:020000040000FA
:060800005FEF29F0120079
:020806001200DE
:0608080066EF18F012007B
:02080E00C250D6
:08081000020B01E0010E1200D1
:06081800DBEF22F01200EC
:02081E000500D3
:1008200084530000EC070000040000008253000025
:10083000F007000002000000665300000002000004
:100840001C00000058530000DE0700000E000000EE
:0C0850004C530000350200000C000000BA
:04085C00D9CFE6FF0B
:10086000E1CFD9FF140EE126100EDB6A110EDB6A10
:10087000430EDF6EDE52520EDD6E200EF36E020E60
:10088000F3CFDBFF310EF36E030EF3CFDBFF360E3B
:10089000F36E040EF3CFDBFF200EF36E050EF3CFE5
:1008A000DBFFE6EC0BF01EEC0CF0F3CF2BF0F4CFFB
:1008B0002CF0D950100FE96EDACFEAFF2B50EE265C
:1008C0002C50ED2202010051011107E0010EE66EED
:1008D000E66ACEEC0AF0E552E55206C2E6FF07C230
:1008E000E6FF28EC0BF0E552E552F3CF2BF0F4CF06
:1008F0002CF0D950100FE96EDACFEAFF2B50EE261C
:100900002C50ED221AC2E6FF1BC2E6FF28EC0BF0CA
:10091000E552E552F3CF2BF0F4CF2CF0D950100F65
:10092000E96EDACFEAFF2B50EE262C50ED22FD0EB9
:10093000DBCF1DF0FE0EDBCF1EF0020E1D1801E115
:100940001E5001E178D1010E1D1801E11E5001E198
:10095000A7D0030E1D1801E11E5001E1A1D0050E24
:100960001D1801E11E5001E19BD0040E1D1801E18C
:100970001E5001E0F5D1090EF36E120EF3CFDBFF2E
:10098000130EDB6A44C1E6FF45C1E6FFD950060FEE
:10099000E66E000EDA20E66EBBDAE552E552E5526D
:1009A000E5520AC2E6FF0BC2E6FF28EC0BF0E55267
:1009B000E552F3CF2BF0F4CF2CF0D950100FE96EA5
:1009C000DACFEAFF2B50EE262C50ED2216C2E6FFBE
:1009D00017C2E6FF28EC0BF0E552E552F3CF2BF0FF
:1009E000F4CF2CF0D950100FE96EDACFEAFF2B507C
:1009F000EE262C50ED2218C2E6FF19C2E6FF28ECC5
:100A00000BF0E552E552F3CF2BF0F4CF2CF0D95098
:100A1000100FE96EDACFEAFF2B50EE262C50ED22B4
:100A2000D9CFE6FFDACFE6FF88EC0BF0E552E552CE
:100A3000F3CF2BF0F4CF2CF0D950100FE96EDACFB2
:100A4000EAFF2B50EE262C50ED2208C2E6FF09C229
:100A5000E6FF28EC0BF0E552E552F3CF2BF0F4CF94
:100A60002CF0D950100FE96EDACFEAFF2B50EE26AA
:100A70002C50ED2212C2E6FF13C2E6FF28EC0BF069
:100A8000E552E552F3CF2BF0F4CF2CF0D950100FF4
:100A9000E96EDACFEAFF2B50EE262C50ED2264D11E
:100AA000080EF36E120EF3CFDBFF130EDB6A40C1AC
:100AB000E6FF41C1E6FFD950060FE66E000EDA20D0
:100AC000E66E26DAE552E552E552E55216C2E6FF39
:100AD00017C2E6FF28EC0BF0E552E552F3CF2BF0FE
:100AE000F4CF2CF0D950100FE96EDACFEAFF2B507B
:100AF000EE262C50ED2218C2E6FF19C2E6FF28ECC4
:100B00000BF0E552E552F3CF2BF0F4CF2CF0D95097
:100B1000100FE96EDACFEAFF2B50EE262C50ED22B3
:100B200008C2E6FF09C2E6FF28EC0BF0E552E552E9
:100B3000F3CF2BF0F4CF2CF0D950100FE96EDACFB1
:100B4000EAFF2B50EE262C50ED22D9CFE6FFDACF6C
:100B5000E6FF88EC0BF0E552E552F3CF2BF0F4CF33
:100B60002CF0D950100FE96EDACFEAFF2B50EE26A9
:100B70002C50ED22D950FD0FE96EFF0EDA20EA6EFF
:100B8000010EEE1801E1ED5015E10EC2E6FF0FC2B5
:100B9000E6FF28EC0BF0E552E552F3CF2BF0F4CF53
:100BA0002CF0D950100FE96EDACFEAFF2B50EE2669
:100BB0002C50ED22D950FD0FE96EFF0EDA20EA6EBF
:100BC000030EEE1801E1ED5015E110C2E6FF11C26F
:100BD000E6FF28EC0BF0E552E552F3CF2BF0F4CF13
:100BE0002CF0D950100FE96EDACFEAFF2B50EE2629
:100BF0002C50ED22D950FD0FE96EFF0EDA20EA6E7F
:100C0000050EEE1801E1ED5015E114C2E6FF15C224
:100C1000E6FF28EC0BF0E552E552F3CF2BF0F4CFD2
:100C20002CF0D950100FE96EDACFEAFF2B50EE26E8
:100C30002C50ED2299D0090EF36E120EF3CFDBFF8C
:100C4000130EDB6A42C1E6FF43C1E6FFD950060F2F
:100C5000E66E000EDA20E66E5BD9E552E552E5520B
:100C6000E5520AC2E6FF0BC2E6FF28EC0BF0E552A4
:100C7000E552F3CF2BF0F4CF2CF0D950100FE96EE2
:100C8000DACFEAFF2B50EE262C50ED2216C2E6FFFB
:100C900017C2E6FF28EC0BF0E552E552F3CF2BF03C
:100CA000F4CF2CF0D950100FE96EDACFEAFF2B50B9
:100CB000EE262C50ED2218C2E6FF19C2E6FF28EC02
:100CC0000BF0E552E552F3CF2BF0F4CF2CF0D950D6
:100CD000100FE96EDACFEAFF2B50EE262C50ED22F2
:100CE000D9CFE6FFDACFE6FF88EC0BF0E552E5520C
:100CF000F3CF2BF0F4CF2CF0D950100FE96EDACFF0
:100D0000EAFF2B50EE262C50ED2208C2E6FF09C266
:100D1000E6FF28EC0BF0E552E552F3CF2BF0F4CFD1
:100D20002CF0D950100FE96EDACFEAFF2B50EE26E7
:100D30002C50ED220CC2E6FF0DC2E6FF28EC0BF0B2
:100D4000E552E552F3CF2BF0F4CF2CF0D950100F31
:100D5000E96EDACFEAFF2B50EE262C50ED2204D0BC
:100D6000F36AF46A37D000D0100EDBCF2BF0110EEF
:100D7000DBCF2CF0120EDB502B1803E1130EDB50EF
:100D80002C1820E0100EDBCFE6FF110EDBCFE6FFC4
:100D9000120EDBCFE6FF130EDBCFE6FF280E2B6E25
:100DA0004C0E2C6E2D6A2BC0E6FF2CC0E6FF2DC02A
:100DB000E6FF54EC27F0F56E070EE15EF550F36A9E
:100DC000F46A08D0010E0201396F3A6B010EF36E1E
:100DD000F46A00D0D9CFE1FFE552E7CFD9FF120086
:100DE000D9CFE6FFE1CFD9FF220EE126DE6ADD6A28
:100DF000FD0EDBCF02F2FE0EDBCF03F2FB0EDBCFEC
:100E000004F2FC0EDBCF05F2530EF36E020EF3CFAD
:100E1000DBFF560EF36E030EF3CFDBFF200EF36EF7
:100E2000040EF3CFDBFF300EF36E050EF3CFDBFFC6
:100E3000200EF36E060EF3CFDBFFE6EC0BF0FD0E9B
:100E4000DBCFE6FFFE0EDBCFE6FFD950070FE66EE5
:100E5000000EDA20E66E5CD8E552E552E552E55226
:100E6000D950020FE66E000EDA20E66E88EC0BF029
:100E7000E552E552F3CF2BF0F4CF2CF0D9CFE9FFB8
:100E8000DACFEAFF2B50EE262C50ED22310EF36E16
:100E9000050EF3CFDBFFFB0EDBCFE6FFFC0EDBCF57
:100EA000E6FFD950070FE66E000EDA20E66E30D866
:100EB000E552E552E552E552D950020FE66E000EBA
:100EC000DA20E66E88EC0BF0E552E552F3CF2BF01A
:100ED000F4CF2CF0D9CFE9FFDACFEAFF2B50EE2682
:100EE0002C50ED22D9CFE9FFDACFEAFF020EEE183F
:100EF00001E1ED5003E0F36AF46A04D0010EF36EF1
:100F0000F46A00D0D9CFE1FFE552E7CFD9FF120054
:100F1000D9CFE6FFE1CFD9FF040EE126020EDB6A4E
:100F2000030EDB6A640E2B6E2C6AFB0EDBCF1DF00A
:100F3000FC0EDBCF1EF02BC022F02CC023F010ECF7
:100F400020F01DC0DEFF1EC0DDFFDECF2BF0DDCFA9
:100F50002CF00A0E226E236A2BC01DF02CC01EF04E
:100F600010EC20F019C02BF01AC02CF02BC0DEFFC3
:100F70002CC0DDFFDECF2BF0DDCF2CF02C3404E2D3
:100F80002B500008000E2C541DE2DECF2DF0DDCFDB
:100F90002EF0300E2D26000E2E22020EDBCF2BF06F
:100FA000030EDBCF2CF0FD0EDB502B24E96EFE0E82
:100FB000DB502C20EA6E2DC0EFFF020EDB2A030E61
:100FC00001E3DB2A0A0E2B6E2C6AFB0EDBCF1DF031
:100FD000FC0EDBCF1EF02BC022F02CC023F010EC57
:100FE00020F01DC0DEFF1EC0DDFFDECF2BF0DDCF09
:100FF0002CF00A0E226E236A2BC01DF02CC01EF0AE
:1010000010EC20F019C02BF01AC02CF02BC0DEFF22
:101010002CC0DDFF020EDBCF2BF0030EDBCF2CF05C
:101020002C3404E22B500008000E2C540BE3DECFCE
:101030002DF0DDCF2EF02E3404E22D500008000EEE
:101040002E541DE2DECF2DF0DDCF2EF0300E2D26FA
:10105000000E2E22020EDBCF2BF0030EDBCF2CF086
:10106000FD0EDB502B24E96EFE0EDB502C20EA6EC9
:101070002DC0EFFF020EDB2A030E01E3DB2AFB0E7D
:10108000DBCF2BF0FC0EDBCF2CF00A0E226E236A96
:101090002BC01DF02CC01EF010EC20F019C02BF05E
:1010A0001AC02CF02BC0DEFF2CC0DDFFDECF2DF0F0
:1010B000DDCF2EF0300E2D26000E2E22020EDBCFBD
:1010C0002BF0030EDBCF2CF0FD0EDB502B24E96E52
:1010D000FE0EDB502C20EA6E2DC0EFFF020EDB2A45
:1010E000030E01E3DB2A020EDBCF2BF0030EDBCF76
:1010F0002CF0FD0EDB502B24E96EFE0EDB502C2075
:10110000EA6EEF6AD9CFE1FFE552E7CFD9FF1200CF
:10111000D9CFE6FFE1CFD9FF020EE1268FDBF3CF77
:101120002BF0F4CF2CF02B502C1013E1E70E2B6E8C
:101130004B0E2C6E2D6A2BC0E6FF2CC0E6FF2DC097
:10114000E6FF54EC27F0E552E552E552F36AF46A03
:1011500080D0FD0EDBCF40F1FE0EDBCF41F1FB0E68
:10116000DBCF42F1FC0EDBCF43F1F90EDBCF44F1D4
:10117000FA0EDBCF45F1DE6ADD6A16C2E6FF17C262
:10118000E6FF66DAE552E552F3CF2BF0F4CF2CF010
:10119000D9CFE9FFDACFEAFF2B50EE262C50ED2213
:1011A00018C2E6FF19C2E6FF53DAE552E552F3CF63
:1011B0002BF0F4CF2CF0D9CFE9FFDACFEAFF2B5098
:1011C000EE262C50ED2206C2E6FF07C2E6FF40DA0B
:1011D000E552E552F3CF2BF0F4CF2CF0D9CFE9FF55
:1011E000DACFEAFF2B50EE262C50ED221AC2E6FF92
:1011F0001BC2E6FF2DDAE552E552F3CF2BF0F4CF18
:101200002CF0D9CFE9FFDACFEAFF2B50EE262C5095
:10121000ED22DECF2BF0DDCF2CF0D8902C5004E661
:10122000040E2B5C000E2C5810E2B00E2B6E4B0EF1
:101230002C6E2D6A2BC0E6FF2CC0E6FF2DC0E6FF0A
:1012400054EC27F0E552E552E552010EF36EF46AD4
:1012500000D0D9CFE1FFE552E7CFD9FF1200D9CFB7
:10126000E6FFE1CFD9FF020EE126BEDAF3CF2BF085
:10127000F4CF2CF02B502C1003E1F36AF46A4CD01D
:10128000540E0101005D44E10201090E355D000EBE
:1012900036593EE3010101510101466F476B0101DF
:1012A00002510101486F496B0101035101014A6F6D
:1012B0004B6B0101045101014C6F4D6B0101055154
:1012C00001014E6F4F6B010106510101506F516BCF
:1012D000010107510101526F536B010108510101D6
:1012E000546F556B0201090ED8803555000E3655E6
:1012F0000AE2010109510101566F576B01010A51C0
:101300000101586F596B69DA010EF36EF46A04D06B
:1013100064DAF36AF46A00D0D9CFE1FFE552E7CF8F
:10132000D9FF1200D9CFE6FFE1CFD9FF220EE12687
:10133000200EDB6A210EDB6AD950F90FE96EFF0E31
:10134000DA20EA6EEE50ED1015E1A80EE66E4B0EB7
:10135000E66E7ED9E552E552F3CF2BF0F4CF2CF0B8
:10136000D950200FE96EDACFEAFF2B50EE262C5031
:10137000ED2214D00AC2E6FF0BC2E6FF69D9E5529E
:10138000E552F3CF2BF0F4CF2CF0D950200FE96EBB
:10139000DACFEAFF2B50EE262C50ED2216C2E6FFE4
:1013A00017C2E6FF55D9E552E552F3CF2BF0F4CF43
:1013B0002CF0D950200FE96EDACFEAFF2B50EE2641
:1013C0002C50ED2218C2E6FF19C2E6FF41D9E552C2
:1013D000E552F3CF2BF0F4CF2CF0D950200FE96E6B
:1013E000DACFEAFF2B50EE262C50ED22430EDF6EB3
:1013F000DE52520EDD6E200EF36E020EF3CFDBFFD7
:10140000310EF36E030EF3CFDBFF360EF36E040ED8
:10141000F3CFDBFF200EF36E050EF3CFDBFFFD0EE7
:10142000DBCFE6FFFE0EDBCFE6FFD950060FE66E00
:10143000000EDA20E66E6CDDE552E552E552E5522B
:10144000D9CFE6FFDACFE6FF63D9E552E552F3CF15
:101450002BF0F4CF2CF0D950200FE96EDACFEAFF51
:101460002B50EE262C50ED22430EDF6EDE52520E34
:10147000DD6E200EF36E020EF3CFDBFF300EF36E47
:10148000030EF3CFDBFF200EF36E040EF3CFDBFF72
:10149000FB0EDBCFE6FFFC0EDBCFE6FFD950050FDE
:1014A000E66E000EDA20E66E33DDE552E552E552D7
:1014B000E552D9CFE6FFDACFE6FF2AD9E552E55269
:1014C000F3CF2BF0F4CF2CF0D950200FE96EDACF08
:1014D000EAFF2B50EE262C50ED22200EDBCF2BF016
:1014E000210EDBCF2CF0D8902C5004E6050E2B5C9F
:1014F000000E2C5810E26E0E2B6E4B0E2C6E2D6AC9
:101500002BC0E6FF2CC0E6FF2DC0E6FF54EC27F011
:10151000E552E552E552D9CFE1FFE552E7CFD9FFD9
:101520001200D9CFE6FFE1CFD9FF040EE126010E6C
:10153000E66EE66A6C0EE66E4B0EE66E010EE66E29
:10154000E66AFAEC1DF0F56E060EE15EF55045D93F
:101550004BD9F3CF2BF0F4CF2CF02B502C1003E110
:10156000F36AF46A15D0410E0101005D05E135D939
:10157000010EF36EF46A0CD0540E0101005D04E11B
:10158000020EF36EF46A04D028D9F36AF46A00D02C
:10159000D9CFE1FFE552E7CFD9FF1200D9CFE6FF5F
:1015A000E1CFD9FF020EE126D950FD0FE96EFF0E03
:1015B000DA20EA6EEE50ED103AE0570EE66E4B0E72
:1015C000E66E46D8E552E552F3CFDEFFF4CFDDFFFD
:1015D000510EE66E4B0EE66E3BD8E552E552F3CF68
:1015E0002BF0F4CF2CF0D9CFE9FFDACFEAFF2B5064
:1015F000EE162C50ED1604C2E6FF05C2E6FF02C24D
:10160000E6FF03C2E6FFF0EC06F0E552E552E552D4
:10161000E552010E0201006F016BDECF2BF0DDCF32
:101620002CF02BC0F3FF2CC0F4FF0CD00BD0020128
:10163000006B016B4C0EE66E4B0EE66E09D8E55260
:10164000E55200D0D9CFE1FFE552E7CFD9FF120034
:10165000D9CFE6FFE1CFD9FF040EE126DE6ADD6ACD
:10166000DECF2BF0DDCF2CF0D8902C5004E6400ECE
:101670002B5C000E2C582FE2FD0EDBCF2BF0FE0E64
:10168000DBCF2CF0DE502B24F66EDD502C20F76ED5
:101690000800F5500D080FE0FD0EDBCF2DF0FE0E1B
:1016A000DBCF2EF0DE502D24F66EDD502E20F76EAF
:1016B0000800F5500BE1D9CFE9FFDACFEAFF020EBF
:1016C000EECFDBFF030EEDCFDBFF05D0DF2A010EEF
:1016D00001E3DB2AC5D7020EDBCFE6FF030EDBCF2B
:1016E000E6FFFD0EDBCFE6FFFE0EDBCFE6FF010ED1
:1016F000E66EE66AFAEC1DF0F56E060EE15EF55058
:1017000010DF00D0D9CFE1FFE552E7CFD9FF1200BB
:10171000D9CFE6FFE1CFD9FF040EE126DE6ADD6A0C
:10172000DECF2BF0DDCF2CF0D8902C5004E6400E0D
:101730002B5C000E2C582DE2FD0EDBCF2BF0FE0EA5
:10174000DBCF2CF0DE502B24E96EDD502C20EA6E2E
:10175000EF500D080EE0FD0EDBCF2DF0FE0EDBCFBF
:101760002EF0DE502D24E96EDD502E20EA6EEF5073
:101770000BE1D9CFE9FFDACFEAFF020EEECFDBFFB4
:10178000030EEDCFDBFF05D0DF2A010E01E3DB2ADC
:10179000C7D7020EDBCFE6FF030EDBCFE6FFFD0E61
:1017A000DBCFE6FFFE0EDBCFE6FF010EE66EE66A5C
:1017B000BCEC1DF0F56E060EE15EF550B2DE00D019
:1017C000D9CFE1FFE552E7CFD9FF12000201396B13
:1017D0003A6BA7DEA6DE00D012000201356B366B35
:1017E00002011E6B1F6B1200D9CFE6FFE1CFD9FFBC
:1017F000020EE126DE6ADD6ADECF2BF0DDCF2CF0B3
:10180000D8902C5004E6200E2B5C4E0E2C580DE286
:1018100002011E511F1104E0010EF36EF46A08D09C
:10182000DF2A010E01E3DB2AE7D7F36AF46A00D06E
:10183000D9CFE1FFE552E7CFD9FF1200D9CFE6FFBC
:10184000E1CFD9FF020EE1260201396B3A6B030E9C
:10185000E66EE66A480EE66E4B0EE66E010EE66E2A
:10186000E66AFAEC1DF0F56E060EE15EF55059DE03
:10187000F3CFDEFFF4CFDDFF54DE00D0D9CFE1FFA0
:08188000E552E7CFD9FF120089
:0818880080EC11F0FB0EDBCF38
:10189000F3FFDB06F35000090AE0CEEC11F0FA0E7C
:1018A00039EC12F0F3E12C1CF1E1010E01D0000E35
:1018B000AFEF11F080EC11F03B0EE12402E3E168A0
:1018C000E652E16E010EDB6A020EDB6AF90EDBCF37
:1018D000F6FFFA0EDBCFF7FFFB0EDBCFF8FF0800B9
:1018E000F550DF6EDF5002E1D5EF10F0250EDF5C22
:1018F00002E0C8EF10F0030EDB6A040EDB6A050E8F
:10190000DB6A060EDB6A070EDB6AE8EC10F02D0ED0
:10191000DF5C0CE02B0EDF5C09E0200EDF5C06E0F4
:10192000230EDF5C03E0300EDF5C1AE1DF50300A8B
:1019300014E0130A0FE0030A0AE00B0A05E0060AA6
:10194000E4E1030EDB80E1D7030EDB82DED7030E7A
:10195000DB84DBD7030EDB86D8D7030EDB88D5D735
:101960002A0EDF5C1BE1E4EC10F032EC11F010E029
:10197000030EDB801D681E68130EDBCF22F0140EF1
:10198000DBCF23F036EC20F0040E1BC0DBFF03D0CE
:10199000130E1BEC11F0E8EC10F00BD0090EDB6A13
:1019A00089EC11F003E0FDEC11F0FAD7090E1BEC05
:1019B00011F0030EDBB0DB982E0EDF5C1BE1E8ECD0
:1019C00010F02A0EDF5C0BE1E4EC10F032EC11F0C9
:1019D00003E1130E6DEC11F0E8EC10F00BD0090EE2
:1019E000DB6A89EC11F003E0FDEC11F0FAD7090E87
:1019F0006DEC11F0680EDF5C07E1E8EC10F0680EAA
:101A0000DF5C1DE1030E18D0740EDF5C17E07A0E68
:101A1000DF5C14E0480EDF5C06E0540EDF5C03E0A0
:101A20005A0EDF5C02E1020E07D06C0EDF5C03E0B1
:101A30006A0EDF5C04E1010EC0EC11F0C9DBDF507F
:101A40006E0A01E181D31E0A01E192D1200A01E16F
:101A50008FD13F0A01E149D11A0A01E146D10D0AAD
:101A600001E143D1200A01E140D13A0A01E13DD12F
:101A7000200A01E13AD1260A01E135D10D0A01E13E
:101A800032D11A0A01E1D9D0200A4AE0300A1FE017
:101A9000460A0EE0250A01E085D3D950F90FE96E18
:101AA000FF0EDA20EA6E010EEE5E000EEE5AEE5ADE
:101AB000CEEC11F0250EE66E95DB03E12C1C01E166
:101AC0006BD3CAEC11F001E26DD3DB2A6BD3080EA5
:101AD000DB6A040EDB50010806E2040EDB0492EC24
:101AE00011F0DB508BDB080EDB5009E0030EDB50FE
:101AF000010B05E172DB01E04FD3080EDB6A64DB0A
:101B0000EFCFDFFF42EC12F003E12C1C01E144D3E4
:101B1000CAEC11F001E3DB2A60DB01E143D33CD3E3
:101B2000070EDB5002080FE10EEC12F0030ED5ECAD
:101B300011F00E0EEECFDBFF0F0EEECFDBFF100E1F
:101B4000EECFDBFF20D0F70EDBCF2EF0F80EDBCF91
:101B50002FF0020E2E5E000E2F5AF70E2EC0DBFF66
:101B6000F80E2FC0DBFF2EC0E9FF2FC0EAFFC5EC47
:101B700011F02D6A0E0E2BC0DBFF0F0E2CC0DBFF09
:101B8000100E2DC0DBFF0E0EDBCFE6FF0F0EDBCFFE
:101B9000E6FF100EDBCFE6FF2FEC27F0E552E55213
:101BA000E552130E1CC0DBFF140E1DC0DBFF060E3A
:101BB000DB5005E0130E09EC12F001E26ADB2DECBC
:101BC00012F002E2130E37DBF0EC11F006E0040E27
:101BD00009EC12F002E2050E2EDB030EDBB005D09D
:101BE000FCDA01E0D9D2080EDB6A090EDB6A0E0EC0
:101BF000DBCFF6FF0F0EDBCFF7FF100EDBCFF8FFCA
:101C00000800F550DF6EDF5014E033EC12F011E203
:101C100042EC12F003E12C1C01E1BED2BBDB01E37C
:101C2000DB2A090EDB2AD9500E0FE96E000ECBDB42
:101C3000E7D7D3DA01E1B6D2AFD2C6DA110EEECFD2
:101C4000DBFF120EEDCFDBFF110EDBCFE6FF120E36
:101C5000DBCFE6FF21EC27F0E552E552130EF3CF80
:101C6000DBFF140EF4CFDBFF060EDB5004E0130E97
:101C7000D0DB01E20EDB2DEC12F002E2130EDBDA18
:101C8000AFDB05E0040EC5DB02E2050ED4DA030E7D
:101C9000DBB005D0A2DA01E07FD2080EDB6A090EC4
:101CA000DB6A110EDBCFE9FF120EDBCFEAFFEFCFCD
:101CB000DFFFDF5014E0D7DB12E2E4DB03E12C1C92
:101CC00001E16AD267DB01E3DB2A090EDB2A110E90
:101CD000DB2ADBCFE9FF120EE8E3DB2AE6D77DDA69
:101CE00001E160D259D2030EDB8E070EDB0410E156
:101CF00095DB040E5ADB0A0EEECFDBFF0B0EEECFA8
:101D0000DBFF0C0EEECFDBFF0D0EEECFDBFF6CD05A
:101D1000070EDB5003082CE1030EDBAE0DD0B2DA68
:101D2000020E76DAEFCF2BF02C6A2D6A2E6A2BAEDC
:101D300039D02C682D6835D0F70EDBCF2CF0F80E9B
:101D4000DBCF2DF0020E2C5E000E2D5AF70E2CC0AC
:101D5000DBFFF80E2DC0DBFF2CC0E9FF2DC0EAFF32
:101D6000EFCF2BF00A0E2BC0DBFF0B0EDB6A38D057
:101D7000070EDB50020809E1030EDBAE04D059DB8D
:101D80002DAE10D00ED055DB0DD0030EDBAE12D031
:101D900079DA020E3DDAF9DA2D6A2E6A2CAE02D01B
:101DA0002D682E68E2DA0C0E2DC0DBFF0D0E2EC062
:101DB000DBFF1AD0F70EDBCF2DF0F80EDBCF2EF0C5
:101DC000020E2D5E000E2E5AF70E2DC0DBFFF80E10
:101DD0002EC0DBFF2DC0E9FF2EC0EAFFD6DAC5DA40
:101DE0000C0EDB6A0D0EDB6A060EDB5005E1010E00
:101DF000F36E050EF3CFDBFF150EDB6A160EDB6A02
:101E0000D950370F2B6E000EDA202C6E390E2BC0F6
:101E1000DBFF3A0E2CC0DBFF380EDB6A080EDB6AF4
:101E20000A0EAEDADF50780A12E0200A10E0280A23
:101E30000CE0200A0AE03F0A06E00D0A02E0200A50
:101E400008E1020E05D0080E03D0080EDF26100EA2
:101E500097DA030EDBBE02D0DB92DB94DB50800B03
:101E600026E08ADA030EEB50000AE8AE02D0D890E2
:101E700008D0000EEE5C000EEE58000EEE58000E7C
:101E8000EE5815E211DA2068216822682368E0EC38
:101E900027F00A0E17C0DBFF0B0E18C0DBFF0C0E7D
:101EA00019C0DBFF0D0E1AC0DBFF2D0E08D0030E8C
:101EB000DBA202D02B0E03D0DBA408D0200EF36EE1
:101EC000170EF3CFDBFF150EDB2A02D0170EDB6AED
:101ED000050EDB5003E1B5D901E189D0300E2B6E40
:101EE000530E2C6E000E2D6E070EDBCF2EF02F6AD8
:101EF000306A316A2EC020F02FC021F030C022F0AD
:101F000031C023F0D1D9E0EC28F02B501724F36E28
:101F10002C501820F46E2D501920F86EF4CFF7FFD6
:101F2000F3CFF6FF0800090EF5CFDBFF580EDF5C9C
:101F30000FE1610EF36E090E79D90AE3200E2B6EC4
:101F4000090EDBCFE7FF2B50E75E090EE7CFDBFF83
:101F5000070EDBCF2BF02C6A2D6A2E6A0DDA2BC010
:101F600020F02CC021F02DC022F02EC023F0EECFA7
:101F70001BF0EECF1CF0EECF1DF0EFCF1EF0E0EC2B
:101F800028F01EC0EDFF1DC0EDFF1CC0EDFF1BC003
:101F9000EFFF390EDBCFE9FFDB063A0EDBCFEAFFBE
:101FA00001E2DB06090EDBCFEFFF150EDB2A49D974
:101FB00095E1030EDBA61DD06F0EDF5C06E1BFD9F5
:101FC00018E3150EDB2859DA14D0780EDF5C09E02F
:101FD000580EDF5C06E0620EDF5C03E0420EDF5C61
:101FE00008E1020EF36E160EF3CFDBFF02D0150EE2
:101FF000DB6A030EDB50100B0EE0040EDBCF2BF080
:10200000050EDB50D8802B5406E2060EDB5003E1B0
:10201000040EDB5032DA93D90AE2050EDBCFE7FF7C
:10202000150EDB50E75E050EE7CFDBFF02D0050E95
:10203000DB6A040EDBCF2BF0160E43D9D8802B546D
:1020400014E2160EDBCFE6FF150EDBCFE6FF040E23
:10205000DBCFE6FF050EDB50E552E75CE552D880AA
:10206000E754E552D880E7545DD9030EDB50010BED
:102070000BE1080EDB5008E0B0D801E08DD0080E6F
:10208000DB50BCD8080EDB6A170EDB5007E086D9A0
:10209000170EEFD903E12C1C01E17ED0160EDB50A8
:1020A00016E07CD9300EE66E9DD802E12C1C74E05F
:1020B00075D9DFCFE6FF9EEC27F0E552E552E552F9
:1020C000F4CF2CF00001F31C02E12C1C65E0050E9E
:1020D000DBCF2BF0160EDB50D8802B5409E2050E17
:1020E000DBCFE7FF160EDB50E75E050EE7CFDBFF29
:1020F000300EE66E050EC9D94FE1390EDB2ADBCF73
:10210000E9FF3A0E01E3DB2ADBCFEAFF090EEFCF4E
:10211000DBFFDB500EE042D9090EABD902E12C1CEB
:102120003BE0390EDB2ADBCFE9FF3A0EEDE3DB2A99
:10213000EBD753D831E1160EDBCFE6FF080EC1D83E
:10214000E552E7245BD82ED0070EDB50030A1CE0D3
:10215000010A14E0030A07E079D9DBCFEEFF020E93
:10216000DBCFEDFF1FD0F3D8306A2EAE02D02F6840
:1021700030682AD8BAD830C0EEFF14D0E8D82EBEC6
:102180002F6822D8B2D80ED061D9DBCFEFFF0AD0AA
:1021900079D905E12C1C03E1F368F46810D0FAD872
:1021A00001E3DB2A77D96FEF0CF0010EDBCF2BF0C8
:1021B000020EDBCF2CF02BC0F3FF2CC0F4FFD9CFE5
:1021C000E1FFDACFE2FFCBD029D9020ED5EF11F033
:1021D00061D90800F550DF6E1200200EE66E080E81
:1021E00045EF12F09EEC27F0E552E552E552F3CFB1
:1021F0002BF0F4CF2CF00001F31C12002B6E2C6A94
:10220000D950010F4DD92B50EE262C50ED22120043
:102210002F5E000E305AF70E2FC0DBFFF80E30C0D5
:10222000DBFF2FC0E9FF30C0EAFF1200DBCFF4FF75
:10223000F350F45C1200DB50E76E040EE7CFDBFFD7
:1022400012000A0EDBCF2BF00B0EDBCF2CF00C0EA6
:10225000DBCF2DF00D0EDBCF2EF02B502C102D10E0
:102260002E101200130EEECFDBFF140EEDCFDBFFAE
:10227000130EDBCF2BF0140EDBCF2CF00001800E01
:102280002C141200F70EDBCF2FF0F80EDBCF30F05E
:102290001200050EDB50E66ED950130F01D9E5523E
:1022A000E750EE6EED6A12000A0EDBCF1BF00B0E4C
:1022B000DBCF1CF00C0EDBCF1DF00D0EDBCF1EF0C4
:1022C0001200DBCFE6FF150EDBCFE6FF050EDB507D
:1022D000E552E724E552E7241200DB50CED8010E88
:1022E000F36E060EF3CFDBFF1200EE50EFCFEAFFE6
:1022F000E96E2DC0EEFF2EC0EEFF2FC0EEFF1200E4
:10230000D9CFE6FFDACFE6FFE1CFD9FFE2CFDAFFA0
:102310001200DFCFE6FFE66A4DEC29F0E552E55208
:10232000F3501200E76E080EE7CFDBFF1200EECF8E
:102330002BF0EECF2CF0EFCF2DF02E6A1200050E11
:10234000DBCF2BF0150EDB50D8802B541200010E82
:10235000DBCF2DF0020EDBCF2EF02F6A1200E552FC
:10236000E5CFDAFFE7CFD9FF12000A0E2BC0DBFF63
:102370000B0E2CC0DBFF1200D9500A0F50EF12F0E9
:10238000F36E070EF3CFDBFF1200EECF2BF0EFCF93
:102390002CF01200010EDB2A020E1200FC0EDBCF25
:1023A000E6FFFD0EDBCFE6FF12002B5E000E2C5A7F
:1023B000F70E2BC0DBFFF80E2CC0DBFF2BC0E9FFB4
:1023C0002CC0EAFF1200DA20EA6EEF2AEECFF6FF09
:1023D000000EEF22EECFF7FFEF22EECFF8FF120054
:1023E000040EDBCFE6FF130EDB50E552E75C9ADF0D
:1023F000DB5004DF060EDB501200090EDB500A0D25
:10240000F350DF24D00FE76E090EE7CFDBFFE8EFD4
:1024100010F0DB50F36E050E16EF11F0F70EDBCF68
:102420002BF0F80EDBCF2CF01200DFCFE6FFF2EF3F
:1024300010F028DF030EECDE97EF11F044EC0CF007
:10244000E552E552E552E55200091200BDDEEE50BC
:10245000EFCFEAFFE96E010E1200130EDB50F36EB0
:10246000040E16EF11F0040EDB50F36E090E16EF9A
:1024700011F0DBCFE6FFF2EF10F0E76E050EE7CFCD
:10248000DBFF12008BDF15EF12F0DBCFE6FF86DFFC
:102490001EEF12F0D950F90FE96EFF0EE3EF11F0C5
:0A24A000E96E000EDA20EA6E120069
:0624AA00D9CFE6FFE1CFEF
:1024B000D9FFFE0EDB5011E1FC0EDBCFE9FFFD0E74
:1024C000DBCFEAFFEF507F0808E2FC0EDBCFE9FF2D
:1024D000FD0EDBCFEAFF7F0EEF6EE552E7CFD9FFAF
:1024E0001200D9CFE6FFE1CFD9FFFE0EDB5013E19A
:1024F000FC0EDBCFE9FFFD0EDBCFEAFFEFCF2BF0C9
:102500007F0E2B5C08E2FC0EDBCFE9FFFD0EDBCF7C
:10251000EAFF7F0EEF6EE552E7CFD9FF1200D9CF69
:10252000E6FFE1CFD9FFFD0EDBCF2BF0FE0EDBCFB8
:102530002CF0D8902C5004E6D00E2B5C070E2C58B3
:1025400006E20201D00E4F6F070E506F19D0FD0E3C
:10255000DBCF2BF0FE0EDBCF2CF02C3404E22B5023
:10256000CE08080E2C5406E20201CE0E4F6F080E64
:10257000506F06D0FD0EDBCF4FF2FE0EDBCF50F2D8
:102580004FC22BF050C22CF0D00E2B5E070E2C5AEF
:102590002B5000D0E552E7CFD9FF1200F00EE66EC7
:1025A00059EC25F0E552938A938893869384998217
:1025B0009980938E938C9A849A82998699849A8A28
:1025C0009A8894809A869A8E9A9C919C01017F0E9B
:1025D000BD6FBDC1BCF1BDC1BBF1BDC1BAF1BDC1D3
:1025E000B9F1BDC1B8F1BDC1B7F1BDC1B6F10101CD
:1025F0007F0EC56FC5C1C4F1C5C1C3F1C5C1C2F16C
:10260000C5C1C1F1C5C1C0F1C5C1BFF1C5C1BEF1F0
:10261000000EE66EE66A000EE66EE66A000EE66EF4
:10262000E66A000EE66EE66ADBEC19F0F56E080E5F
:10263000E15EF550B20EE66E010EE66E98EC19F012
:10264000E552E552BAEC1DF0490E2B6E4D0E2C6E84
:102650002D6A2BC0E6FF2CC0E6FF2DC0E6FF54EC30
:1026600027F0E552E552E55202014D6B4E6B15EC39
:1026700019F01200D20EE66E010EE66E7FEC19F034
:10268000E552E5529FD8C5C1E6FFC4C1E6FFC3C10C
:10269000E6FFC2C1E6FF5FEC22F0E552E552E552EB
:1026A000E5520701D95113E00201010E516F1D0ED1
:1026B0000201515D0CE251C2E6FFC8EC1EF0E5528A
:1026C000000902E051C2B4F10201512BF0D7040E0F
:1026D00002014D1901E14E5161E0030E02014D1955
:1026E00001E14E5159E0020E02014D1901E14E5136
:1026F00047E0010E02014D1901E14E510EE00201C9
:102700004D5101E14E5101E054D00201260E526FAD
:10271000040E02014D6F4E6B4CD0320EE66EE66A2F
:10272000550EE66EE66A400EE66EE66A88EC08F044
:10273000F56E060EE15EF550F3CF2BF0F4CF2CF0E2
:102740002B502C100DE0020E02014D6F4E6B01015B
:10275000B29D0101B2990101B2970101B2930FD06C
:10276000040E02014D6F4E6B0201130E526F0101F8
:10277000B2730101B2770101B2790101B27D19D0C2
:10278000010EE66EE66ACEEC0AF0E552E552030E63
:1027900002014D6F4E6B0DD077DB0BD00201525111
:1027A00003E00201520704D0010E02014D6F4E6B8F
:1027B00000D0B20EE66E010EE66E98EC19F0E5520E
:1027C000E5521200D8C1B6F1D9C1B7F1DAC1B8F1FA
:1027D000DBC1B9F1DCC1BAF1DDC1BBF1DEC1BCF1D5
:1027E000DFC1BDF1E0C1BEF1E1C1BFF1E2C1C0F1A5
:1027F000E3C1C1F10101D451010B000801E3A4D0F0
:102800000201243504E223510008000E245501E39F
:102810009BD04BC2D8F125C2DCF10101DC512B6EFB
:102820002C6AFF0ED8802B56000E2C562BC0DCF1E4
:102830000101DC512B6E2C6A2C3404E22B508708EA
:10284000000E2C541DE20101DC512D6E2E6AD89031
:102850002E5004E6E10E2D5C000E2E5811E2070109
:10286000E93504E2E8510008000EE95509E20101EA
:10287000DC512B6E2C6A2B500701E8250101DC6F1F
:10288000780E0101DC5D25E20101DC512B6E2C6A22
:102890000701E9512C18E8AE02D02C3404D02B509B
:1028A000E85D2C50E95915E20701E93504E2E851E9
:1028B0000008000EE9550DE20101DC512D6E2E6A73
:1028C0000701E8512D5C2B6EE9512E582C6E2BC060
:1028D000DCF10101D8512E6AD00F2D6E070E2E2289
:1028E0000101DC5100012D242B6E000E2E202C6ED8
:1028F0007F0E2B5E000E2C5A2BC0E6FF2CC0E6FF8D
:102900000EDEE552E5520101C06F0101D8512E6A79
:10291000D00F2D6E070E2E220101DC512F6E306A72
:102920002F502D5C2B6E30502E582C6E7F0E2B2688
:10293000000E2C222BC0E6FF2CC0E6FFF0DDE55296
:10294000E5520101C16F41D00101D451010B2B6E41
:10295000010E2B5C3AE20101D8512E6AD00F2D6E88
:10296000070E2E220101DC5100012D242B6E000EDA
:102970002E202C6E7F0E2B5E000E2C5A2BC0E6FFF5
:102980002CC0E6FFCCDDE552E5520101C06F01012C
:10299000D8512E6AD00F2D6E070E2E220101DC5168
:1029A0002F6E306A2F502D5C2B6E30502E582C6EAF
:1029B0007F0E2B26000E2C222BC0E6FF2CC0E6FF3C
:1029C000AEDDE552E5520101C16F8150040B01E01B
:1029D000010E2B6E0101D451010B2B14010BF36E70
:1029E000FE0E8D14F3108D6E8150080B01E0010E68
:1029F0002B6E0101D451020B01E0010E2B14010BCF
:102A0000F36EFE0E8C14F3108C6E8150100B01E0EF
:102A1000010E2B6E0101D551010B2B14010BF36E2E
:102A2000F346FD0E8D14F3108D6E8150200B01E0E6
:102A3000010E2B6E0101D551020B01E0010E2B148A
:102A4000010BF36EF346FD0E8C14F3108C6E010136
:102A50000101D451100B02E08D8401D08D9401014D
:102A60000101D451200B02E08C8401D08C9401012F
:102A70000101D551100B02E08D8601D08D96010128
:102A80000101D551200B02E08C8601D08C9601010A
:102A90000101D451040B02E08D8801D08D98010111
:102AA0000101D451080B02E08C8801D08C980101FF
:102AB0000101D451400B02E08D8A01D08D9A0101B1
:102AC0000101D451800B02E08C8A01D08C9A010163
:102AD0000101D551400B02E08D8C01D08D9C01018C
:102AE0000101D551800B02E08C8C01D08C9C885068
:102AF000800B02E0919001D091808C9EB80EE66E22
:102B0000010EE66E8150400B01E0010EE66ECDDC59
:102B1000E552E552E552B80EE66E010EE66E8150C2
:102B2000800B01E0010EE66EDCDCE552E552E55279
:102B3000B90EE66E010EE66E8750010BE66EB5DC4F
:102B4000E552E552E552B90EE66E010EE66E87508B
:102B5000020B01E0010EE66EC4DCE552E552E552DF
:102B6000BE0EE66E010EE66E8750040B01E0010E0C
:102B7000E66E9BDCE552E552E552BE0EE66E010EB6
:102B8000E66E8750080B01E0010EE66EAADCE55206
:102B9000E552E552BF0EE66E010EE66E8850020B5E
:102BA00001E0010EE66E81DCE552E552E552BF0E12
:102BB000E66E010EE66E8850040B01E0010EE66E33
:102BC00090DCE552E552E552C00EE66E010EE66E6F
:102BD0008850080B01E0010EE66E67DCE552E55215
:102BE000E552C00EE66E010EE66E8250010BE66EF7
:102BF00078DCE552E552E552C10EE66E010EE66E56
:102C00008850100B01E0010EE66E4FDCE552E552F4
:102C1000E552C10EE66E010EE66E8850200B01E013
:102C2000010EE66E5EDCE552E552E5522CD1010163
:102C3000D3BBD7D0000E0101D85D09E30101D85103
:102C4000380805E30101B2910101B28334D07D0E51
:102C50000101D85D10E30101D8512B6E2C6A2C3490
:102C600004E22B508108000E2C5405E30101B281CF
:102C70000101B28320D00101D8512B6E2C6AD8906B
:102C80002C5004E6D80E2B5C000E2C5810E30101EA
:102C9000D8512D6E2E6A2E3404E22D50FF08000EFE
:102CA0002E5405E30101B2810101B29304D0010168
:102CB000B2910101B293000E0101D95D09E3010156
:102CC000D951380805E30101B2950101B28734D02A
:102CD0007D0E0101D95D10E30101D9512B6E2C6AE3
:102CE0002C3404E22B508108000E2C5405E3010122
:102CF000B2850101B28720D00101D9512B6E2C6A17
:102D0000D8902C5004E6D80E2B5C000E2C5810E303
:102D10000101D9512D6E2E6A2E3404E22D50FF0888
:102D2000000E2E5405E30101B2850101B29704D0D3
:102D30000101B2950101B2970101B29B8D50010BC7
:102D400001E0B28B0101B2998C50010B01E0B28914
:102D50000101B29F8D50020B01E0B28F0101B29DC3
:102D60008C50020B01E0B28D8150040B01E0010E8A
:102D70002B6E2C6A2B502C1002E0000E01D0010E9D
:102D80000101010BF36EFE0EB315F310B36F81500A
:102D9000080B01E0010E2B6E2C6A2B502C1002E068
:102DA000000E01D0010E0101010BF36EF346FD0E82
:102DB000B315F310B36F8150100B01E0010E2B6EB1
:102DC0002C6A2B502C1002E0000E01D0010E0101E4
:102DD000010BF36EF346F346FB0EB315F310B36F1E
:102DE00052D0E9C11EF03FEC1FF01CC033F01DC0F3
:102DF00034F01EC035F01FC036F0710E216E3D0E4E
:102E0000226E7A0E236E410E246E33C01CF034C045
:102E10001DF035C01EF036C01FF0A3EC1FF01CC023
:102E20002FF01DC030F01EC031F01FC032F0216AFB
:102E3000226A800E236E430E246E2FC01CF030C019
:102E40001DF031C01EF032C01FF050EC1FF01CC04E
:102E50002BF01DC02CF01EC02DF01FC02EF0216ADB
:102E6000226A200E236E410E246E2BC01CF02CC053
:102E70001DF02DC01EF02EC01FF0A3EC1FF063EC60
:102E800020F01EC0B2F112000101D5A353D00701FA
:102E9000E42B000EE5230701010EE41901E1E551E1
:102EA00048E10701DE2B000EDF230701DF3504E2D6
:102EB000DE510208000EDF5503E20701DE6BDF6B17
:102EC000020E0701DE1901E1DF5126E0010E0701C4
:102ED000DE1901E1DF5113E00701DE5101E1DF51AD
:102EE00001E027D0800EE66EE66A800EE66EE66AA6
:102EF000F0EC06F0E552E552E552E5521AD0800EAC
:102F0000E66EE66A290EE66EE66AF0EC06F0E55239
:102F1000E552E552E5520DD0800EE66EE66AD20E1D
:102F2000E66EE66AF0EC06F0E552E552E552E5524F
:102F300000D003D00701E46BE56B0101D5A176D089
:102F40000701E22B000EE3230701010EE21901E164
:102F5000E3516BE10101B2910101B2950101B29B14
:102F60000101B29F0101B3910701E62B000EE72397
:102F70000701E73504E2E6510508000EE75504E2D3
:102F8000010E0701E66FE76BE6C7E6FFE7C7E6FF5E
:102F90002EEC04F0E552E552F3CF53F20201535107
:102FA000E66EE66AE6C7E6FFE7C7E6FF330E2B6E7E
:102FB0004D0E2C6E2D6A2BC0E6FF2CC0E6FF2DC0F7
:102FC000E6FF54EC27F0F56E070EE15EF550050EB6
:102FD0000701E61901E1E75125E0040E0701E619B2
:102FE00001E1E7511CE0030E0701E61901E1E75199
:102FF00013E0020E0701E61901E1E7510AE0010EB4
:103000000701E61901E1E75101E00FD00101B281AA
:103010000CD00101B28509D00101B28B06D00101AB
:10302000B28F03D00101B38100D003D00701E26B5E
:10303000E36B2FEC09F0F3CF2BF0F4CF2CF0010E63
:103040002B1801E12C5041E158C1E6FF59C1E6FFC0
:1030500056C1E6FF57C1E6FF54C1E6FF55C1E6FF82
:1030600052C1E6FF53C1E6FF48C1E6FF49C1E6FF92
:1030700046C1E6FF47C1E6FF0C0E2B6E4D0E2C6ECF
:103080002D6A2BC0E6FF2CC0E6FF2DC0E6FF54ECF6
:1030900027F0F56E0F0EE15EF5500101000ED880AD
:1030A0005255000E53550EE20101D451010B000898
:1030B00009E2010E0201236F246B56C125F257C1AC
:0C30C00026F203D00201236B246B1200E7
:0430CC00DACFE4FF74
:1030D000E2CFDAFFE9CFE4FFEACFE4FFE652F2A263
:1030E00002D0A8D802D09EB6D8D8E552E5CFEAFFE4
:1030F000E5CFE9FFE5CFDAFF1100E66A010EE66EE3
:10310000050EE66E18EC28F0E552E552E552120085
:10311000070EB46E000E886E876E866E856E846EA6
:10312000836E826E816E806E000E916E906E8F6ED9
:103130008E6E8D6E8C6E8B6E8A6E896E2F0E926E79
:1031400093689C0E946E956A966A9768040E986EC2
:103150000E0E9A6E9968C16AF19EB0989C8EA26A12
:103160009F6AA06A9D6AA36AA56AC7DF9F86D08E00
:103170009E969D869382F06AF288F09EF098F19276
:10318000F09AF16AF28CF28E1200D9CFE6FFE1CF0D
:10319000D9FFE652BDDF0101F2970101F299010169
:1031A000B60EFE6F010EFF6FDF6A100EDF5C0BE2E2
:1031B000DF500101EA6AFE25E96EFF51EA227F0E27
:1031C000EF6EDF2AF2D70101CF6B0101010ED06F44
:1031D0000101C20ED16F0101F2850101D46B010121
:1031E000D56B0101B26B0101B46B0101B56B010E2E
:1031F000D56E320ED76ECF0ED66ED59EB20EE66E5F
:10320000010EE66E95D8E552E5520101F293B20E39
:10321000E66E010EE66E8CD8E552E5520101F2939E
:10322000E552E552E7CFD9FF12008282808894925E
:1032300092981200F2920101200EFA6F9F8601010E
:10324000F2A906D00101E00EF76F000EF86F05D06D
:103250000101C00EF76F000EF86F0101F2B102D04C
:103260000101F2790101F2A706D00101800EF56F8C
:10327000000EF66F05D00101A00EF56F000EF66F7F
:10328000C9CFFBF10101F5C1E9FFF6C1EAFFF52B5A
:10329000000EF623EF50C96E12009E96C9CFFBF1C7
:1032A0000101FA51000829E20101F7C1E9FFF8C163
:1032B000EAFFF72B000EF823FBC1EFFF0101F5C178
:1032C000E9FFF6C1EAFFF52B000EF623EFCFFBF185
:1032D000FBC1C9FF0101FA070101FA510DE101012A
:1032E000020ED06F0101F2930101F281320ED76E0E
:1032F000CF0ED66EF294D58E01D0C96A1200D9CF06
:10330000E6FFE1CFD9FF0101F2A10ED0FD0EDBCF28
:10331000E6FFFE0EDBCFE6FFCBEC21F0E552E552F7
:103320009D960101F2919D86E552E7CFD9FF1200EB
:10333000D9CFE6FFE1CFD9FF0101F2B333D0FD0EC3
:10334000DBCFE9FFFE0EDBCFEAFF1E0EE926000E03
:10335000EA22EF50020809E1FD0EDBCFE6FFFE0E88
:10336000DBCFE6FF6ED8E552E552FD0EDBCFE9FF7D
:10337000FE0EDBCFEAFF150EE926000EEA22EF9ED5
:10338000FD0EDBCFE6FFFE0EDBCFE6FF39EC21F0D2
:10339000E552E5529D960101F2770101F2839D8687
:1033A0000101CF2BE552E7CFD9FF12009D96010115
:1033B000F2919D861200D9CFE6FFE1CFD9FF00013F
:1033C000166BD950FD0FE96EFF0EDA20EA6E010E82
:1033D000EE1801E1ED5003E10001168101D0BA6A57
:1033E000D950FB0FE96EFF0EDA20EA6E010EEE18DF
:1033F00001E1ED5003E10001168301D0B76AD95015
:10340000F90FE96EFF0EDA20EA6E010EEE1801E107
:10341000ED5003E10001168501D0736AD950F70F12
:10342000E96EFF0EDA20EA6E010EEE1801E1ED50B2
:1034300003E10001168701D0706AE552E7CFD9FF9A
:103440001200D9CFE6FFE1CFD9FFFD0EDBCFE9FFB8
:10345000FE0EDBCFEAFF1C0EE926000EEA22EF6A21
:10346000FD0EDBCFE9FFFE0EDBCFEAFF170EE926EC
:10347000000EEA22EF6AC6AE0ED0C69EFD0EDBCF6E
:10348000E9FFFE0EDBCFEAFF170EE926000EEA2267
:10349000010EEF6E22D0F150800B10E0F250080BBD
:1034A0000DE0FD0EDBCFE9FFFE0EDBCFEAFF170ECE
:1034B000E926000EEA22020EEF6E0FD0F0A60DD024
:1034C000909EFD0EDBCFE9FFFE0EDBCFEAFF170E6D
:1034D000E926000EEA22030EEF6E250EC61425081B
:1034E00019E0FD0EDBCFE9FFFE0EDBCFEAFF1C0E7D
:1034F000E926000EEA22010EEF6EFD0EDBCFE9FF9A
:10350000FE0EDBCFEAFF170EE926000EEA22C6CF39
:10351000EFFF80D1C55019E0FD0EDBCFE9FFFE0EB5
:10352000DBCFEAFF1C0EE926000EEA22020EEF6E48
:10353000FD0EDBCFE9FFFE0EDBCFEAFF170EE9261B
:10354000000EEA22C5CFEFFF65D1D0BE19D0FD0E27
:10355000DBCFE9FFFE0EDBCFEAFF1C0EE926000EF3
:10356000EA22030EEF6EFD0EDBCFE9FFFE0EDBCF8E
:10357000EAFF170EE926000EEA22D0CFEFFF4AD16C
:103580009DB619D0FD0EDBCFE9FFFE0EDBCFEAFFC3
:103590001C0EE926000EEA22040EEF6EFD0EDBCFB4
:1035A000E9FFFE0EDBCFEAFF170EE926000EEA2246
:1035B0009DCFEFFF2FD19C5019E0FD0EDBCFE9FF2F
:1035C000FE0EDBCFEAFF1C0EE926000EEA22050EF6
:1035D000EF6EFD0EDBCFE9FFFE0EDBCFEAFF170E2D
:1035E000E926000EEA229CCFEFFF14D1080E9F5C63
:1035F00019E0FD0EDBCFE9FFFE0EDBCFEAFF1C0E6C
:10360000E926000EEA22060EEF6EFD0EDBCFE9FF83
:10361000FE0EDBCFEAFF170EE926000EEA229FCF4F
:10362000EFFFF8D0A25019E0FD0EDBCFE9FFFE0E50
:10363000DBCFEAFF1C0EE926000EEA22070EEF6E32
:10364000FD0EDBCFE9FFFE0EDBCFEAFF170EE9260A
:10365000000EEA22A2CFEFFFDDD0A55019E0FD0E4B
:10366000DBCFE9FFFE0EDBCFEAFF1C0EE926000EE2
:10367000EA22080EEF6EFD0EDBCFE9FFFE0EDBCF78
:10368000EAFF170EE926000EEA22A5CFEFFFC2D00F
:10369000100EF214100819E0FD0EDBCFE9FFFE0E4C
:1036A000DBCFEAFF1C0EE926000EEA22090EEF6EC0
:1036B000FD0EDBCFE9FFFE0EDBCFEAFF170EE9269A
:1036C000000EEA22F2CFEFFFA5D0470EF11419E069
:1036D000FD0EDBCFE9FFFE0EDBCFEAFF1C0EE92675
:1036E000000EEA220A0EEF6EFD0EDBCFE9FFFE0EA2
:1036F000DBCFEAFF170EE926000EEA22F1CFEFFF3B
:1037000089D0C00EF01419E0FD0EDBCFE9FFFE0EEC
:10371000DBCFEAFF1C0EE926000EEA220B0EEF6E4D
:10372000FD0EDBCFE9FFFE0EDBCFEAFF170EE92629
:10373000000EEA22F0CFEFFF6DD092A819D0FD0E57
:10374000DBCFE9FFFE0EDBCFEAFF1C0EE926000E01
:10375000EA220C0EEF6EFD0EDBCFE9FFFE0EDBCF93
:10376000EAFF170EE926000EEA2292CFEFFF52D0B1
:1037700093B019D0FD0EDBCFE9FFFE0EDBCFEAFFE1
:103780001C0EE926000EEA220D0EEF6EFD0EDBCFB9
:10379000E9FFFE0EDBCFEAFF170EE926000EEA2254
:1037A00093CFEFFF37D03E0E94141C0819E0FD0EA6
:1037B000DBCFE9FFFE0EDBCFEAFF1C0EE926000E91
:1037C000EA220E0EEF6EFD0EDBCFE9FFFE0EDBCF21
:1037D000EAFF170EE926000EEA2294CFEFFF1AD077
:1037E00097BE18D0FD0EDBCFE9FFFE0EDBCFEAFF60
:1037F0001C0EE926000EEA220F0EEF6EFD0EDBCF47
:10380000E9FFFE0EDBCFEAFF170EE926000EEA22E3
:0C38100097CFEFFFE552E7CFD9FF120081
:04381C00D9CFE6FF1B
:10382000E1CFD9FFF29CFD0EDBCFE9FFFE0EDBCF2F
:10383000EAFFEE52EF6AFD0EDBCFE9FFFE0EDBCFB3
:10384000EAFF540EE926000EEA22EF6AF28CE552F6
:10385000E7CFD9FF1200D9CFE6FFE1CFD9FFE6527B
:103860000701AE0E7C6F0F0E7D6F0701AD0E7E6FF0
:103870000F0E7F6F0701010E276F270EE66E070EF2
:10388000E66ECCDFE552E55207016E0ED56F0F0EE6
:10389000D66F07016D0ED76F0F0ED86F0701020E9E
:1038A000806F800EE66E070EE66EB8DFE552E552D9
:1038B000150EE66EFC0EE66E7DEC28F0E552E55244
:1038C0009F989F9A949C948EAE50DF6EAE50DF6EA0
:1038D0009E9A150EE66E7C0EE66E4BEC28F0E552D5
:1038E000E552A59AA598989298846E50DF6E6E5016
:1038F000DF6EA49A0701D96BE552E552E7CFD9FFF5
:103900001200D9CFE6FFE1CFD9FFFD0EDBCFE9FFF3
:10391000FE0EDBCFEAFFEF0402E19D8801D0A38811
:10392000E552E7CFD9FF1200D9CFE6FFE1CFD9FFAB
:10393000D950FD0FE96EFF0EDA20EA6EEE50ED1061
:103940000AE19EA807D0270EE66E070EE66ED9DFC5
:10395000E552E55209D0A4A807D0800EE66E070E06
:10396000E66ECFDFE552E552E552E7CFD9FF120010
:10397000D9CFE6FFE1CFD9FFD950FD0FE96EFF0E99
:10398000DA20EA6EEE50ED1005E1ABB2AB98AB88F1
:103990009D8A04D06BB26B986B88A38AE552E7CFFF
:1039A000D9FF1200D9CFE6FFE1CFD9FFFD0EDBCF63
:1039B000E9FFFE0EDBCFEAFFEF0403E19E989D983E
:1039C00002D0A498A398E552E7CFD9FF1200D9CF2F
:1039D000E6FFE1CFD9FFFD0EDBCFE9FFFE0EDBCF27
:1039E000EAFFEE52EF500AE1FD0EDBCFE6FFFE0EDE
:1039F000DBCFE6FFD7DFE552E55230D0FD0EDBCF5F
:103A0000E9FFFE0EDBCFEAFF020EE926000EEA22F6
:103A1000EECFF3FFEDCFF4FFEE2A000EEF22F3CF4F
:103A2000E9FFF4CFEAFFEF50E66EFD0EDBCFE9FFD2
:103A3000FE0EDBCFEAFF570EE926000EEA22EE501B
:103A4000EFCFEAFFE96EE552E750EF6EFD0EDBCFF8
:103A5000E9FFFE0EDBCFEAFFEE52EF06E552E7CFBD
:103A6000D9FF1200D9CFE6FFE1CFD9FF07012651D8
:103A7000050A44E0010A38E0070A2CE0010A19E0CF
:103A8000030A0DE0010A01E042D00701266BFE0E99
:103A9000DB50C90803E10701010E266F3BD0070187
:103AA000266BFE0EDB50170803E10701020E266F9E
:103AB00031D0FE0EDBCF22F7FE0EDBCFCAF10701BD
:103AC0002251800B01E0010E0701D96F0701030E9F
:103AD000266F20D0FE0EDBCF23F7FE0EDBCFCBF11F
:103AE0000701040E266F16D0FE0EDBCF24F7FE0E64
:103AF000DBCFCCF10701050E266F0CD0FE0EDBCF1D
:103B000025F7FE0EDBCFCDF10701266B03D00701B1
:103B1000266B00D0E552E7CFD9FF12009EAA0AD04B
:103B20009E9A7CC7E9FF7DC7EAFFEF50E66E9ADFF9
:103B3000E5521FD09EA807D0270EE66E070EE66E50
:103B400046DFE552E552A4AA0BD0A49AD5C7E9FFF7
:103B5000D6C7EAFFEF50E66ED0EC23F0E55209D06D
:103B6000A4A807D0800EE66E070EE66E30DFE552A1
:103B7000E552120070DE1200D9CFE6FFE1CFD9FF87
:103B8000590E1D6E1E6AFD0EDBCF22F0FE0EDBCF3E
:103B900023F036EC20F01BC0DAF71CC0DBF7270E51
:103BA0000701DA27070E0701DB23F29CDAC7E9FFDA
:103BB000DBC7EAFF020EE926000EEA22FB0EDBCF8E
:103BC000EEFFFC0EDBCFEDFFDAC7E9FFDBC7EAFF54
:103BD000EE52F90EDBCFEFFFF28CFD0EDBCFE6FFEE
:103BE000FE0EDBCFE6FFA0DEE552E552E552E7CF61
:103BF000D9FF1200D9CFE6FFE1CFD9FFFD0EDBCF11
:103C0000E9FFFE0EDBCFEAFF590EEA02F3CFEAFF2F
:103C1000590EE902F3CFE9FFF450EA26270EE92610
:103C2000070EEA22EE52EF50000801E2E7D7F90E44
:103C3000DBCF2BF0FA0EDBCF2CF02C3404E22B5030
:103C40005008000E2C5407E2500EF36EF90EF3CF1D
:103C5000DBFFFA0EDB6AFB0EDBCF2BF0FC0EDBCFBB
:103C60002CF02D6A2BC0E6FF2CC0E6FF2DC0E6FF2E
:103C7000000EE66E070EE66E08EC27F0F56E050EF8
:103C8000E15EF550F90EDBCFE6FFFA0EDBCFE6FF83
:103C9000000EE66E070EE66EFD0EDBCFE6FFFE0EB3
:103CA000DBCFE6FF69DFF56E060EE15EF550000E34
:103CB00000D0E552E7CFD9FF1200D9CFE6FFE1CF20
:103CC000D9FF590E1D6E1E6AFD0EDBCF22F0FE0ECF
:103CD000DBCF23F036EC20F01BC0DCF71CC0DDF797
:103CE000270E0701DC27070E0701DD23DCC7E9FFEC
:103CF000DDC7EAFF570EE926000EEA22EE50EFCFAD
:103D0000EAFFE96EFB0EDBCFEFFFD950FD0FE96E46
:103D1000FF0EDA20EA6EEE50ED1003E19EA8FED70A
:103D200002D0A4A8FED7E552E7CFD9FF1200D9CF21
:103D3000E6FFE1CFD9FF07012851000801E2FBD7D8
:103D400007017B517B2BEA6A2B0FE96E070EEA22F3
:103D5000FE0EDBCFEFFFFE0EDB500D0804E0500E31
:103D600007017B5D11E3F29C07012B0E296F070E03
:103D70002A6F7BC728F7F28C07017B6B000EE66E7B
:103D8000E66AD2DDE552E552E552E7CFD9FF1200EF
:103D9000D9CFE6FFE1CFD9FF020EE126010EDB6AA3
:103DA000090EF36EFE0EDBCFF4FFF350F45C13E26A
:103DB000FE0EDB042B6E010E2B5204E0E846FE0BD8
:103DC0002B06FCE1DF6EDF5007012515E76E010EC3
:103DD000E7CFDBFF4BD0110EF36EFE0EDBCFF4FF0F
:103DE000F350F45C14E2FE0EDB50F70F2B6E010E65
:103DF0002B5204E0E846FE0B2B06FCE1DF6EDF50A1
:103E000007012415E76E010EE7CFDBFF2FD0190E57
:103E1000F36EFE0EDBCFF4FFF350F45C14E2FE0E03
:103E2000DB50EF0F2B6E010E2B5204E0E846FE0B29
:103E30002B06FCE1DF6EDF5007012315E76E010E54
:103E4000E7CFDBFF13D0FE0EDB50E70F2B6E010E2A
:103E50002B5204E0E846FE0B2B06FCE1DF6EDF5040
:103E600007012215E76E010EE7CFDBFF010EDB50E5
:0E3E700000D0D9CFE1FFE552E7CFD9FF120015
:023E7E00269E7E
:103E800005D0269E1EAE02D01E6C268E1EC018F0D7
:103E9000176A2A6A296A860E196E1A6AA6EF20F036
:103EA000266AE2EC20F0FAEC20F026B68AEF20F049
:103EB00026A205D026BA8AEF20F091EF20F026BA8C
:103EC0009DEF20F026A005D026B88AEF20F09DEFC8
:103ED00020F026B891EF20F01A6A7F0E1F24196E89
:103EE000E86A1A222450195EE86A1A5A1A0E276ED6
:103EF0001F6A296A2A6A176A186A21501C5E2250B2
:103F00001D5A23501E5A000E1F5A09E721501C2625
:103F100022501D2223501E22000E1F2201D0298A6A
:103F2000D8901C361D361E361F36D89029362A36B4
:103F300017361836272EE1D71E501D101C10D8A496
:103F4000298AA6EF20F0266AE2EC20F0FAEC20F0B5
:103F500026B68AEF20F026A205D026B88AEF20F0F8
:103F600091EF20F026AA05D026B08AEF20F091EF3D
:103F700020F026B002D026A802D09DEF20F01A6AC9
:103F800024501F24196EE86A1A227E0E195EE86A10
:103F90001A5A296A2A6A176A186A23501E02F4CF2D
:103FA00018F0F3CF17F022501E02F3502A26F450D7
:103FB0001722000E182223501D02F3502A26F45017
:103FC0001722000E182221501E02F3502926F45009
:103FD0002A22000E1722182222501D02F3502926F1
:103FE000F4502A22000E1722182223501C02F350EC
:103FF0002926F4502A22000E1722182221501D02D1
:10400000F4502926000E2A221722182222501C02C0
:10401000F4502926000E2A2217221822A6EF20F09B
:10402000256A23AE19EF20F0226C231EE86A2322B2
:10403000251E1EAE21EF20F01D6C1E1EE86A1E22FA
:10404000251E23EC29F01EBE31EF20F025AE000C1A
:104050001D6C1E1EE86A1E22196C1A1EE86A1A22BE
:10406000000C25BE28EF20F02688FF0C1EC02AF089
:104070001DC029F01D502202F4CF1CF0F3CF1BF01D
:104080001E502302F4CF1EF0F3CF1DF02202F35096
:104090001C26F4501D22E86A1E2229502302F350E8
:1040A0001C26F4501D22E86A1E2223AE5CEF20F08D
:1040B00029501D5E2A501E5A2AAE000C22501D5E49
:1040C00023501E5A000C266AE2EC20F026B66DEF53
:1040D00020F026A20AD026B403D07F0E1E6E19D07F
:1040E000800E1E6E16D01E6A14D026B0FCD7870E26
:1040F0001F60F1D77E0E1F64F6D7860E1F5C04E0AA
:10410000D8901E321F2AF9D726A403D01E6C1EAEEB
:10411000EAD712007F0E1F6EFF0E1E6E1D6E1C6E04
:1041200012007F0E26BEFF0E1F6E02D07F0E1F6E86
:10413000800E1E6E1D6A1C6AF3D726AE04D0800E58
:104140001F6E1E6AF7D71F6A1E6AF4D71850171021
:104150002A102910F8E01ABEF0D718BE0CD019505A
:104160001A10EBE0D89029362A3617361836190679
:10417000D8A01A06F2D71A50D4E11928D2E029AEF5
:1041800011D07F0E291402E12AA00CD02A2AE86A55
:104190001722182207E3D880183217322A32192A38
:1041A0001928BFE01950C9E02AC01CF017C01DF043
:1041B00018341E6E19301F6E1E321F9E26BE1F8EB3
:1041C00090EF20F01E361F3602E32684267E06E19D
:1041D00026801F6A1E6A1D6A1C6A12001F2803E0DF
:1041E000D8801E321200D8901E3202E126821200C0
:1041F000268612002336243602E3268C267E06E12C
:104200002688246A236A226A216A1200242803E08D
:10421000D88023321200D8902332EAE1268A120095
:10422000000EE96EEA6E04001DEC21F0EA2A080E89
:10423000EA5CD8A413EF21F01200EF6AE93E1DEF0B
:1042400021F01200FF0EE3CF09F009380F0B060F23
:10425000D8B2070F2A0FAD6E55EC24F009500F0BA2
:10426000060FD8B2070F2A0FAD6E55EC24F0000CE4
:104270001200EACF04F0E9CF05F0FF0EE3CFEAFF2A
:10428000FE0EE3CFE9FFF2A741D0EECFA0F0EECFD4
:10429000A1F0EECFA2F0EECFA3F0EECFA4F0EECFE0
:1042A000A5F0EECFA6F0EECFA7F0EECFA8F0EECFC0
:1042B000A9F0EECFAAF0EECFABF0EECFACF0EECFA0
:1042C000ADF0EECFAEF0EECFAFF0EECFB0F0EECF80
:1042D000B1F0EECFB2F0EECFB3F0EECFB4F0EECF60
:1042E000B5F0EECFB6F0EECFB7F0EECFB8F0EECF40
:1042F000B9F0EECFBAF0EECFBBF0EECFBCF0EECF20
:10430000BDF0EECFBEF0EECFBFF040D0EECF80F0EC
:10431000EECF81F0EECF82F0EECF83F0EECF84F0DF
:10432000EECF85F0EECF86F0EECF87F0EECF88F0BF
:10433000EECF89F0EECF8AF0EECF8BF0EECF8CF09F
:10434000EECF8DF0EECF8EF0EECF8FF0EECF90F07F
:10435000EECF91F0EECF92F0EECF93F0EECF94F05F
:10436000EECF95F0EECF96F0EECF97F0EECF98F03F
:10437000EECF99F0EECF9AF0EECF9BF0EECF9CF01F
:10438000EECF9DF0EECF9EF0EECF9FF004C0EAFF9F
:1043900005C0E9FF1200F2A11200EACF04F0E9CF54
:1043A00005F0FF0EE3CFEAFFFE0EE3CFE9FFF2A92F
:1043B00041D0C0C0EEFFC1C0EEFFC2C0EEFFC3C01F
:1043C000EEFFC4C0EEFFC5C0EEFFC6C0EEFFC7C023
:1043D000EEFFC8C0EEFFC9C0EEFFCAC0EEFFCBC003
:1043E000EEFFCCC0EEFFCDC0EEFFCEC0EEFFCFC0E3
:1043F000EEFFD0C0EEFFD1C0EEFFD2C0EEFFD3C0C3
:10440000EEFFD4C0EEFFD5C0EEFFD6C0EEFFD7C0A2
:10441000EEFFD8C0EEFFD9C0EEFFDAC0EEFFDBC082
:10442000EEFFDCC0EEFFDDC0EEFFDEC0EEFFDFC062
:10443000EEFF40D0E0C0EEFFE1C0EEFFE2C0EEFFD5
:10444000E3C0EEFFE4C0EEFFE5C0EEFFE6C0EEFF26
:10445000E7C0EEFFE8C0EEFFE9C0EEFFEAC0EEFF06
:10446000EBC0EEFFECC0EEFFEDC0EEFFEEC0EEFFE6
:10447000EFC0EEFFF0C0EEFFF1C0EEFFF2C0EEFFC6
:10448000F3C0EEFFF4C0EEFFF5C0EEFFF6C0EEFFA6
:10449000F7C0EEFFF8C0EEFFF9C0EEFFFAC0EEFF86
:1044A000FBC0EEFFFCC0EEFFFDC0EEFFFEC0EEFF66
:1044B000FFC0EEFF04C0EAFF05C0E9FF1200F2B43E
:1044C000120016500F0AD8B41200FF0EE3CF0AF004
:1044D000FE0EE3CF0BF0FD0EE3CF0CF0FC0EE3CFAE
:1044E0000DF00A2A16A08D8E0B2A16A28F800C2A98
:1044F00016A48F860D2A16A68F880E6A0F6A106A78
:10450000116AB2EC22F00A2E88EF22F016A08D9EDE
:104510000B2E8DEF22F016A28F900C2E92EF22F030
:1045200016A48F9600000D2E98EF22F016A68F98F5
:1045300000000E2E9DEF22F0129000000F2EA2EF31
:1045400022F012920000102EA7EF22F01294000029
:10455000112EACEF22F01296D4EC22F0133E83EF32
:1045600022F01200D70E136E0000000000000000C1
:10457000CAEC22F0132EB4EF22F0D70E136E000017
:10458000000000000000CAEC22F0132EBFEF22F062
:10459000000012000000CDEF22F00000000000003B
:1045A0000000000000001200030E146E0000142E24
:0645B000D6EF22F012001C
:0A45B600D8CFE4FFE0CFE4FFE46E8D
:1045C000DACFE4FFE2CFDAFFE9CFE4FFEACFE4FF9E
:1045D000F3CFE4FFF4CFE4FFE652D9CFE6FFE1CF1B
:1045E000D9FFE652F050020B05E0F050100B02E04C
:1045F000F09214D0F050040B05E0F050200B02E0D4
:10460000F0940CD0F250010B07E0F250080B04E0DC
:104610008150DF6EF29002D08EEC1DF0E552E55233
:10462000E7CFD9FFE552E5CFF4FFE5CFF3FFE5CFC4
:10463000EAFFE5CFE9FFE5CFDAFFE550E5CFE0FFA0
:10464000E5CFD8FF100001017F0EBD6FBDC1BCF1E9
:10465000BDC1BBF1BDC1BAF1BDC1B9F1BDC1B8F1B8
:10466000BDC1B7F1BDC1B6F101017F0EC56FC5C1B6
:10467000C4F1C5C1C3F1C5C1C2F1C5C1C1F1C5C154
:10468000C0F1C5C1BFF1C5C1BEF18C928D928C90B5
:104690008D908C968D968C948D948C9A8D9A8C9806
:1046A0008D988C9E91908C9C8D9C0101D3AD22D0D5
:1046B0000101F2A11ED0D20EE66E010EE66E7FEC75
:1046C00019F0E552E552C5C1E6FFC4C1E6FFC3C11A
:1046D000E6FFC2C1E6FF5FEC22F0E552E552E5528B
:1046E000E552B20EE66E010EE66E98EC19F0E55258
:1046F000E552DBD71200800E0701EBAF02D0D89055
:1047000003D0EA5D000EEB5908E302014C3504E2E8
:104710004B51FE08000E4C5504E2960E0701EA6F5D
:10472000EB6B0101D451010B000820E2020124359A
:1047300004E223510008000E245505E2EAC74BF2BB
:10474000EBC74CF213D002013F2B000E40230201B5
:10475000E80ED8803F55030E405505E27F0E02015A
:104760004B6F4C6B03D002013F6B406B010E02019B
:1047700024AF02D0D89003D0235D000E24590FE25D
:104780000101D451010B2B6E010E2B5C08E27F0E50
:1047900002014B6F4C6B7F0E0201256F266B1200DE
:1047A000D9CFE6FFE1CFD9FF02011E511F1101E071
:1047B00078D0020139513A1127E1FE0EDB500D0885
:1047C00006E00201400E351901E136510EE1000EFE
:1047D00002013525E96E010E02013621EA6EEF6A0B
:1047E000010E02011E6F1F6B0FD0000E0201352556
:1047F000E96E010E02013621EA6EFE0EDBCFEFFFFD
:104800000201352B000E36230201010E391901E198
:104810003A5147E1FE0EDB5054080BE102011E6BDA
:104820001F6BFE0EDBCF00F1010E0201356F366B00
:1048300038D00201000ED8803555000E365531E2D1
:10484000FE0EDB502B6E2C6AFF0E2B1801E12C5054
:1048500006E00201400E351901E1365113E1020173
:104860003551361101E11DD0000E02013525E96EEA
:10487000010E02013621EA6EEF6A010E02011E6F7F
:104880001F6B0FD0000E02013525E96E010E0201EB
:104890003621EA6EFE0EDBCFEFFF0201352B000E54
:0A48A0003623E552E7CFD9FF1200DE
:0648AA009EB802D0FDD70C
:1048B000FCD71200D9CFE6FFE1CFD9FFFE0EDBCF48
:1048C000E6FF22EC21F0E5520D0EAD6EEEDFE55273
:1048D000E7CFD9FF1200D9CFE6FFE1CFD9FF010121
:1048E000D950FD0FAA6FFF0EDA20AB6F010E010148
:1048F000EA6AAA25E96EAB51EA22EF50E66E22EC95
:1049000021F0E552AAC1E9FFABC1EAFFEF50E66E24
:1049100022EC21F0E5520D0EAD6EC7DFE552E7CF78
:10492000D9FF1200D9CFE6FFE1CFD9FFFD0EDBCFD3
:104930002BF0FE0EDBCF2CF02D6A2BC0E6FF2CC037
:10494000E6FF2DC0E6FF5A0EE66E010EE66E08EC9D
:1049500027F0F56E050EE15EF5505A0EE66E010E7B
:10496000E66E21EC27F0E552E552F3CFAEF1F4CF3D
:10497000AFF10101AF3504E2AE515008000EAF5562
:1049800004E2500E0101AE6FAF6B0101B06BB16B71
:104990000101B1510101AF19E8AE02D0AF3507D026
:1049A000AE510101B05D0101AF510101B15910E2F9
:1049B0005A0E0101B025E96E010E0101B121EA6E26
:1049C000EF50AD6E72DF0101B02B000EB123E0D7C6
:1049D000E552E7CFD9FF1200D9CFE6FFE1CFD9FFEB
:1049E0000101AC6B1A0E0101AC5D11E2FD0EDBCFD3
:1049F000E9FFDB2AFE0EDBCFEAFF01E3DB2AEF5003
:104A0000E66E22EC21F0E5520101AC2BEBD70D0E46
:104A1000AD6E4BDFE552E7CFD9FF12000101D20E98
:104A2000AA6F010EAB6F0101D2510701EC6FED6B64
:104A30000701EE510701EC1904E10701EF510701ED
:104A4000ED1919E00101F2A503D00101F2950FD093
:104A5000EEC7E6FF22EC21F0E552ECC7E6FF22ECC0
:104A600021F0E5520D0EAD6E20DF0101F295ECC78D
:104A7000EEF7EDC7EFF70701EE2B000EEF2307016E
:104A8000EF3504E2EE51FF08000EEF5503E2070197
:104A9000EE6BEF6B1200150EE66E3C0EE66E7DECD3
:104AA00028F0E552E552320EE66E6FEC29F0E55241
:104AB0001200D9CFE6FFE1CFD9FFFE0EDBCFADF17B
:104AC000E552E7CFD9FF1200D9CFE6FFE1CFD9FFFA
:104AD000020EE126FE0EDB507F0BFE0BFD0BE66E99
:104AE000ADC1E6FFAFEC28F0E552E5520A0EE66EE6
:104AF0008DEC29F0E552A4EC29F007EC04F0000954
:104B000001E0FBD704EC29F0A1EC29F0C4502D6E94
:104B10002DC02EF02D6AC35000012D102B6E2EC01B
:104B20002CF02BC0DEFF2CC0DDFFDECF2BF0DDCF65
:104B30002CF02BC0F3FF2CC0F4FF00D0D9CFE1FF45
:084B4000E552E7CFD9FF120096
:084B480072730D00534D203083
:104B500000534D2031350053502035302032352060
:104B60003135203438203234203131000D000D0D24
:104B70004F6E65206F66207468652063616D657295
:104B8000612073657474696E677320696E20636158
:104B90006D6572615F636F6E6669677572652066C9
:104BA00061696C65640D0D00637220313820380036
:104BB0000D0D4F6E65206F66207468652063616D12
:104BC0006572612073657474696E6773206F6E20FF
:104BD000696E6974696C697A6174696F6E20666167
:104BE000696C65640D0D000D0D43616D657261208A
:104BF0006E6F7420666F756E64210D506C65617305
:104C00006520636865636B2C20706F776572206127
:104C10006E64206361626C6520636F6E6E656374A1
:104C2000696F6E732E0D0D002A204572726F72200F
:104C300073657474696E6720636F6C6F7220747231
:104C400061636B696E6720706172616D6574657216
:104C5000730D45787065637465642025642C20614C
:104C60006E6420676F742025640D00726D20310022
:104C70004352203139203332004352203431203125
:104C80003238005443203020313530203020313547
:104C90003020373020323535005443203139302030
:104CA0003235352030203235352030203430005434
:104CB0004320313530203235352031353020323502
:104CC0003520353020323535005443203130302006
:104CD000323535203735203235352030203230001E
:104CE00054432038352031323020302032353520C1
:104CF00038302031353000435220313820300043E5
:104D0000522030203332006E66203600476F742008
:104D100054207061636B6574202564202564202510
:104D20006420256420736572766F3A2025642025FF
:104D3000640D00434F4C4F52205357495443482071
:104D40002564203D2025640D00494649203230303D
:104D50003520557365722050726F636573736F727F
:104D600020496E697469616C697A6564202E2E2E03
:024D70000D0034
:0E4D72001E0EF66E080EF76E000EF86E0201B1
:104D80000900F550466F0900F550476F03E146678B
:104D900001D03DD00900F550416F0900F550426F38
:104DA0000900F550436F09000900F550E96E09004C
:104DB000F550EA6E090009000900F550446F09003A
:104DC000F550456F09000900F6CF48F2F7CF49F2D8
:104DD000F8CF4AF241C2F6FF42C2F7FF43C2F8FFE2
:104DE0000201445302E1455307E00900F550EE6E1D
:104DF0004407F8E24507F9D748C2F6FF49C2F7FF72
:104E00004AC2F8FF02014607000E475BBFD71200F7
:104E1000FB0EE3CFF6FFFC0EE3CFF7FFFD0EE3CF73
:104E2000F8FFFE0EE3CFE9FFFF0EE3CFEAFFE9CF85
:104E3000F3FFEACFF4FF0900F5CFEFFFEE66FBD7F3
:104E40001200FE0EE3CFE9FFFF0EE3CFEAFFF36AA5
:104E5000F46AEE5203E0F34AF42AFBD71200FF0E85
:104E6000E3CFF8FFE552FF0EE3CFF7FFE552FF0E69
:104E7000E3CFF6FFE552E66AE66AE66A0900F55214
:104E800009E0FD0EE32A05E1FE0EE32A02E1FF0E32
:104E9000E32AF4D7FD0EE3CF1CF0FE0EE3CF1DF0A6
:084EA000FF0EE3CF1EF012002B
:084EA800D9CFE6FFDACFE6FFE7
:104EB000E1CFD9FFE2CFDAFFE652E652E652E65200
:104EC000D950FB0F2B6EFF0EDA202C6E2BC0DEFFAD
:104ED000DD6EDECFE6FFDDCFE6FFFB0EDBCFE6FFCC
:104EE000FC0EDBCFE6FFFD0EDBCFE6FFF0C7E6FFF3
:104EF000F1C7E6FF5AEC0CF0F56E070EE15C02E23A
:104F0000E16AE552E16EF550020EF3CFDBFF030ECE
:104F1000F4CFDBFF020EDBCF2BF0030EDBCF2CF048
:104F20002BC0F3FF2CC0F4FFD9CFE1FFDACFE2FFB3
:0C4F3000E552E5CFDAFFE7CFD9FF120011
:044F3C00D9CFE6FFE4
:104F4000DACFE6FFE1CFD9FFE2CFDAFFFB0EDBCF0E
:104F50002BF0FC0EDBCF2CF00001800E2C141AE19C
:104F6000FB0EDBCFE9FFFC0EDBCFEAFFEECFF3FF5A
:104F7000EDCFF4FFEE2A000EEF22F3CFE9FFF4CFDE
:104F8000EAFFFD0EDBCFEFFFEF502C6AF36E2CC073
:104F9000F4FF10D0FB0EDB50FE0806E1FD0EDBCF68
:104FA000E6FF7FEC29F005D0FD0EDBCFE6FF03EC3A
:104FB00004F0E552E552E5CFDAFFE7CFD9FF120062
:104FC0001B502002F3CF17F0F4CF18F02102F3505A
:104FD0001826000EF420196E1B502202F3501926D9
:104FE000000EF4201A6E1B502302F3501A261C5098
:104FF0002002F3501826F4501922000E1A221C50D9
:105000002102F3501926F4501A221C502202F350A8
:105010001A261D502002F3501926F4501A221D5052
:105020002102F3501A261E502002F3501A261200B5
:10503000D9CFE6FFDACFE6FFE1CFD9FFE2CFDAFF43
:105040003F0EC716C66AFD0EDB50C612FB0EDB50C4
:10505000C712FC0EDB50030A09E0010A04E0020A51
:1050600006E1C78C04D0C78CC68801D0C688FD0E67
:10507000DB50050A03E0010A04E1928A9486C79E88
:1050800001D09496949A9488C68AE552E5CFDAFFC7
:06509000E7CFD9FF12007A
:0A509600D9CFE6FFDACFE6FFE1CF45
:1050A000D9FFE2CFDAFF6C6A6B6AFD0EDBB06C8869
:1050B000DBA202D06C8C6B8CDBB46C8EDBA602D0D6
:1050C0006B8801D06B8ADBA802D06C8401D06C9411
:1050D000DBAC02D0A38A01D0A39ADBAE02D0A388B6
:1050E00001D0A398FC0EDB506F6E6C8A6B8EE5527C
:0A50F000E5CFDAFFE7CFD9FF120089
:0650FA00D9CFE6FFDACF7A
:10510000E6FFE1CFD9FFE2CFDAFFAC6AAB6AFD0E72
:10511000DBB0AC88DBA202D0AC8CAB8CDBB4AC8E49
:10512000DBA602D0AB8801D0AB8ADBA802D0AC846E
:1051300001D0AC94DBAC02D09D8A01D09D9ADBAE4D
:1051400002D09D8801D09D98FC0EDB50AF6EAC8ADA
:0E515000AB8EE552E5CFDAFFE7CFD9FF1200B4
:02515E00D9CFA7
:10516000E6FFDACFE6FFE1CFD9FFE2CFDAFFC26A8E
:10517000C16AC06AFC0EDB407F0B3C0BC26EFD0EA9
:10518000DB500F0B2B6EFC0EDB38F00B300B2B10B3
:10519000C16EFD0EDB380F0B070B2B6EFD0EDB50C7
:1051A000800B2B10C06EFC0EDBAE03D09E9C9D8C42
:1051B000F28CC280E552E5CFDAFFE7CFD9FF1200CB
:1051C0001A6A196A186A176A200EE76ED8901B3699
:1051D0001C361D361E361736183619361A3620502C
:1051E000175C215018582250195823501A5809E3B7
:1051F0002050175E2150185A2250195A23501A5A1B
:085200001B2AE72EE4D712007F
:08520800D9CFE6FFDACFE6FF83
:10521000E1CFD9FFE2CFDAFFE652E652C350DF6EAC
:10522000010EC4CFDBFFDECF2BF0DDCF2CF02BC087
:10523000F3FF2CC0F4FFE552E552E552E5CFDAFF6B
:06524000E7CFD9FF1200C8
:0A5246001A6A196A100EE76ED8907C
:105250001D361E3619361A362250195C23501A583C
:1052600005E32250195E23501A5A1D2AE72EF0D763
:0252700012002A
:0E527200C5EC18F0CEEC12F00101F291010132
:10528000F2A107D03AEC13F00101D3AD02D023EC28
:0A52900023F07BEC23F0F3D71200AB
:06529A00F36AF46AFF0E46
:1052A000E124E96EFF0EE220EA6EED6607D02F0ED4
:0E52B000EF6404D03A0EEF6001D0F32A120032
:0252BE0016EEEA
:1052C00000F026EE00F0F86A269CA68EA69C10EC54
:0E52D00021F0B9EC26F039EC29F0F9D71200E4
:0252DE00FF0EC1
:1052E000E350376E480E01D04C0EE76EE72EFED726
:0E52F000E76AE72EFED7372EF7D70000120030
:0252FE00FF0EA1
:10530000E350ACBA04D0AF6AAB8EAC8A949CACA22A
:0A531000FED7AD6EF36EF46A1200D2
:06531A00FF0EE350E84E17
:105320001200000000D000D000D0E82EFAD7120002
:10533000303132333435363738396162636465660B
:01534000006C
:06534200C2909D9C1200C8
:04534800C28212000B
:04534C00000000005D
:08535000000000000000000055
:0853580000000000000000004D
:0653600000001E00960093
:0A53660000007F007F00074DFF4CA0
:10537000F74CE04CC94CAF4C994C834C794C704C79
:025380006B4C74
:02538200FEFF2C
:045384000000000025
:020000040030CA
:0E000000FFFEFEFCFFFEFBFFFFFFFFFFFFFF0A
:00000001FF
