:020000040000FA
:0608000029EF3AF012009E
:02080600FEFFF3
:06080800E2EF17F0120000
:02080E00C250D6
:08081000020B01E0010E1200D1
:06081800D5EF33F01200E1
:02081E001100C7
:1008200028760000C0020000050000001D760000D0
:10083000810200000B00000013760000AA020000F5
:100840000A00000009760000A00200000A00000073
:10085000F47500005C02000015000000F075000057
:10086000D102000004000000C57500003102000044
:100870002B000000C1750000CD0200000400000044
:10088000BF750000DA02000002000000A67500003B
:10089000410F00001900000006080000D802000007
:1008A00002000000A3750000D50200000300000054
:1008B0009D750000BA020000060000009775000058
:1008C000B402000006000000267500008001000050
:1008D000710000001C750000960200000A00000074
:0C08E0000C750000710200001000000008
:0408EC000F015E6B2F
:1008F0005F6B5A6B5B6B5C6B5D6B12006BEC0CF0AF
:100900005ECFE6FFB40EE66E010EFAEC0BF00F01BF
:100910005A6F5B6B800B01E05B695FCFE6FF890E6E
:10092000E66E010EFAEC0BF00F015C6F5D6B800B55
:1009300001E05D695ACF2BF05BCF2CF02B6C2C1EA5
:10094000000E2C223DEC0CF009EC1CF0E552E552B7
:100950000F01056F5CCFE6FF5DCFE6FF09EC1CF0F1
:10096000E552E5520F01046F15EF0BF018EC0BF098
:100970001F0EE1260201C0A114D0060EF36E040E74
:10098000F3CFDBFF580E01EC0CF0920EF36E050E68
:10099000F3CFDBFFE00EF36E060EF3CFDBFF220E8C
:1009A00013D0060EF36E040EF3CFDBFFFA0E01EC4C
:1009B0000CF0C10EF36E050EF3CFDBFF8F0EF36E5E
:1009C000060EF3CFDBFF7C0EF36E070EF3CFDBFFDB
:1009D000080EDB6AFD0EDBCFE6FFFE0EDBCFE6FF87
:1009E0003EEC0AF0E552E5521BC0DEFF1CC0DEFF04
:1009F0001DC0DEFF1EC0DDFFDD52DD52D950050FE8
:100A000053EC0CF081EC0BF0C2EC0BF0A4EC35F0E5
:100A10001EC0EDFF1DC0EDFF1CC0EDFF1BC0EFFFB2
:100A2000010E2B6E4FEC0CF001E0010E2B5C1AE175
:100A3000050EDBCF1BF0060EDBCF1CF0070EDBCF65
:100A40001DF0080E72EC0CF045EC38F0050E17C0E6
:100A5000DBFF060E18C0DBFF070E19C0DBFF080E18
:100A60001AC0DBFF27EC0CF0EFCF2BF02B3415E393
:100A70004FEC0CF002E0000E01D0010E2B6EFC0ECC
:100A8000DBCF2CF02C3402E3000E01D0010E2B5CE6
:100A900004E027EC0CF00C0EEF6E27EC0CF0EFCF1F
:100AA0002BF0E76E2B18E8AE02D02B3403D0E750C2
:100AB000D8802B5444E227EC0CF0EF060C0E3C6E71
:100AC00027EC0CF0EF503C5C386E396A3A6A3B6AAE
:100AD00038AE03D039683A683B680C0E376E27ECA5
:100AE0000CF0EF50375C336E346A356A366A33AED9
:100AF00003D0346835683668F5EC0BF0316A326A39
:100B00002FAE03D0306831683268FAEC0AF040EC5E
:100B10000BF038C020F039C021F03AC022F03BC0C1
:100B200023F045EC38F040EC0BF0900E206E216A7B
:100B3000226A236AA4EC35F0FC0E1BC0DBFF27EC15
:100B40000CF0EF5014E14FEC0CF002E0000E01D07D
:100B5000010E2B6EFC0EDBCF2CF02C3402E3000ECA
:100B600001D0010E2B5C03E127EC0CF0EF68F5ECF3
:100B70000BF02FBE3068030ED8902F363036E806C3
:100B8000FBE1316A326A30AE02D031683268D95046
:100B9000050F53EC0CF046EC0CF0EE5032582E6E74
:100BA000090E2BC0DBFF0A0E2CC0DBFFADEC0BF0F7
:100BB0002C340AE22B50FF08000E2C5405E2090EDB
:100BC000DB680A0EDB6A11D0ADEC0BF0D8802C503C
:100BD00004E7010E2B5CFF0E2C5807E2010EF36EAA
:100BE000090EF3CFDBFF0A0EDB68040EDBCFE6FF56
:100BF000FC0EDBCF2DF02D3405E3FC0EDB50FF0D9A
:100C0000F35002D0FC0EDB50E552D880E7542B6E37
:100C10002C6A2BBE2C680D0E2BC0DBFF0E0E2CC0D9
:100C2000DBFF0D0EDBCF2BF00E0EDBCF2CF02C34C8
:100C300004E22B500008000E2C5403E3010E08ECD4
:100C40000CF0D9500D0F53EC0CF0070ED890EE3687
:100C5000ED36E806FBE10D0EDBCF33F00E0EDBCFF9
:100C600034F0356A366A34AE02D0356836680B0E19
:100C7000DBCF2FF00C0EDBCF30F0316A326A30AEB2
:100C800002D031683268FAEC0AF0070EB4EC0BF0CF
:100C9000FDE10F0E2BC0DBFF100E2CC0DBFF110E91
:100CA0002DC0DBFF120E2EC0DBFFADEC0BF02D6A6A
:100CB0002E6A2CAE02D02D682E68CBEC0BF00F0EF6
:100CC000DBCF20F0100EDBCF21F0110EDBCF22F0B6
:100CD000120EDBCF23F02AEC0CF0180EDB6A50EC7E
:100CE0000BF0030EEB50000AE8AE02D0D89008D00B
:100CF000000EEE5C000EEE58000EEE58000EEE58A0
:100D000007E2010EF36E180EF3CFDBFFCCEC0AF016
:100D10006CEC0BF00F0EB4EC0BF0FDE154EC0BF0AF
:100D20002B6E2C6A2D6A2E6A50EC0BF0EE502B16AF
:100D3000EE502C16EE502D16EE502E16170E2BC020
:100D4000DBFF6CEC0BF0020EB4EC0BF0FDE154ECAD
:100D50000BF002019B15F66EF76AF10EF626740E83
:100D6000F7220800F5CF2BF0170EDB50E76E2B189B
:100D7000E8AE02D0E73402D0E7502B5C07E250EC3B
:100D80000BF0EE2A000EEE22EE22EE22130EDBCF47
:100D90001CF0140EDBCF1DF0150EDBCF1EF0160E6F
:100DA000DBCF1FF0000E1F18E8AE02D01F3409D0B1
:100DB0001F0ED8801C54000E1D54000E1E54000E31
:100DC0001F540BE21F0EF36E130EF3CFDBFF140E56
:100DD000DB6A150EDB6A160EDB6A180EDB0401E116
:100DE000DBDB040EDBCFE6FFFC0EDBCFE6FFBDEC6A
:100DF00015F0E552E5522B6E2C6A2BBE2C68190EAD
:100E00002BC0DBFF1A0E2CC0DBFFBBEC0BF02C342D
:100E100023E22B500008000E2C541EE2D4EC0BF001
:100E20002EAE02D02F68306850EC0BF0DDEC0BF0EA
:100E30003050000AE8AE02D0D89008D0010E2D5CE8
:100E4000000E2E58000E2F58000E305805E2010EED
:100E5000EFEC0BF0DB6A31D0190E1A0EDBCF2CF061
:100E60000001800E2C141FE0D4EC0BF02EAE02D04B
:100E70002F68306850EC0BF0DDEC0BF0FF0E3018F3
:100E8000E8AE02D0303409D0FF0ED8802D54FF0ECA
:100E90002E54FF0E2F54FF0E305405E2190EDB685E
:100EA0001A0EDB680AD057EC0CF0D950190F53EC2E
:100EB0000CF02B50EE262C50ED22BBEC0BF02C341A
:100EC0000AE22B507F08000E2C5405E27F0EEFEC57
:100ED0000BF0DB6A0ED0BBEC0BF0D8802C5004E793
:100EE000810E2B5CFF0E2C5804E2810EEFEC0BF010
:100EF000DB6802019FA59BD0F50EF66E740EF76EAF
:100F00000900F5CF1BF00900F5CF1CF00900F5CF63
:100F10001DF00800F5CF1EF0F4DB6FEC39F01B0E6E
:100F20001BC0DBFF1C0E1CC0DBFF1D0E1DC0DBFF4A
:100F30001E0E1EC0DBFF040EDBCF2BF02C6A2BBE77
:100F40002C683DEC0CF0660E2D6E410EF0DB050EAC
:100F5000E15EF550090EDBCFE6FF0A0EDBCFE6FFC0
:100F6000050EDBCFE6FF060EDBCFE6FFFC0EDBCF88
:100F70002BF02C6A2BBE2C68030ED8902B362C3607
:100F8000E806FBE13DEC0CF0190EDBCFE6FF1A0E94
:100F9000DBCFE6FF1B0EDBCFE6FF1C0EDBCFE6FF51
:100FA000FC0EDBCF2DF02E6A2DBE2E682DC0E6FF85
:100FB0002EC0E6FFEADAEFCF2FF0306A2FBE30689E
:100FC0002FC0E6FF30C0E6FF1C0E316E410E326EC0
:100FD000336A31C0E6FFE66E33C0E6FF35EC37F02A
:100FE000F56E110EE15EF550D9CFE9FFABDB130EC4
:100FF000DBCFE6FF140EDBCFE6FFD9500F0FE96E13
:10100000A1DB0B0EDBCFE6FF0C0EDBCFE6FFE70E1E
:101010002B6E400E2C6E2D6A2BC0E6FFE66E2DC0A7
:10102000E6FF35EC37F0F56E0F0EE15EF550190E68
:10103000DB50FBD2FDDA020EE126A7DA120E39EC04
:101040000CF01DEC0CF0160E6FEC0CF0EE52F5DB14
:10105000120EAFDA02019FA743D0DE68DD6895DA91
:10106000120EEBDA92DA220EF5DA8FDA260E6FEC38
:101070000CF0120E39EC0CF0E0DB220E6FEC0CF0F1
:10108000260EF7DB7FDB3C0E206E216A226A236A84
:1010900045EC38F0F5DA206A010E216E226A236AE7
:1010A000A4EC35F01BC0DEFF1CC0DDFFDECFE6FF89
:1010B000DDCFE6FF6ADA260EDCDB5EEC0CF0120E0A
:1010C000D8DB5EEC0CF0EFCF2BF02C6A2BBE2C683B
:1010D000D4DBB50E2D6E400E2ADB0B0EE15EF55013
:1010E000A4D2A6DA050EE126B40EE66E010EE66E77
:1010F000C5D9E552E552010E1BC0DBFF020E1CC034
:10110000DBFF030E1DC0DBFF040E1EC0DBFF8DD214
:101110008FDA3C0EE66E5ECF2BF02C6A2BBE2C686D
:10112000D1DA0F015A6F5B6B800B01E05B69AAD3C8
:101130007FDA3C0EE66E5FCF2BF02C6A2BBE2C685C
:10114000C1DA0F015C6F5D6B800B01E05D699AD3C2
:10115000C2DBFE0EDB50E76E020EE7CFDBFFFE0EBA
:10116000DB5002E1000E78D05ADB01E32CDA91DA91
:101170002C3409E22B507E08000E2C5404E27E0E23
:10118000D0DADB6A0CD085DAD8802C5004E7820EE6
:101190002B5CFF0E2C5803E2820EC3DADB68FE0ED6
:1011A000DBCF2DF02E6A2DBE2E68FC0EDBCF2FF08C
:1011B000FD0EDBCF30F07F0ED8802F56000E30565C
:1011C00050DA7F0E226E236A2BC01DF02CC01EF059
:1011D0007EEC35F01DC0DEFF1EC0DDFFDECF2BF044
:1011E000DDCF2CF0FB0EDBCF2DF02E6A2DBE2E684E
:1011F0002E502C18E8AE02D02C3404D02B502D5C8D
:101200002C502E5827E20201010EC46FFC0EDBCFDA
:101210002DF0FD0EDBCF2EF07F0ED8802D56000E68
:101220002E56FB0EDBCF2BF02C6A2BBE2C687F0ECC
:10123000CDDAF3CF1DF02CC01EF02DC022F02EC051
:1012400023F07EEC35F0020E1DC0DBFF030EDB50F9
:1012500001E0ECDA020EDB50E8D13DDB020EDB6A86
:10126000FE0EDB5002E1000E5BD0D9DA01E3ABD910
:1012700010DA2C3409E22B507E08000E2C5404E2C4
:101280007E0E4FDADB6A0CD004DAD8802C5004E7EB
:10129000820E2B5CFF0E2C5803E2820E42DADB68D2
:1012A000FC0EDBCF31F0FD0EDBCF32F07F0ED880AD
:1012B0003156000E3256FB0EDBCF2DF02E6A2DBEBE
:1012C0002E68FE0EDBCF2FF0306A2FBE3068C9D9F2
:1012D0002BC01DF02CC01EF031C022F032C023F014
:1012E0007EEC35F0020E1DC0DBFFDBCF2BF07F0E56
:1012F000E76E2B18E8AE02D02B3403D0E750D8802D
:101300002B5408E27F0EF36E020EF3CFDBFF0201D7
:10131000010EC46F030EDB5001E088DA020EDB50D1
:1013200084D186D90D01026BFE0EDBCF2BF02B345E
:1013300003E3010E026FC8DAFD0EDB5013E1FE0E6F
:10134000DBCF2BF02C6A2BBE2C68F30E3FDA040E99
:10135000D8902C322B32E804FBE12BC000FD2CC0CE
:1013600001FD15D0FE0EDBCF00FD016B00BF016952
:10137000110E0103F3CF01FD0003F3CF00FDF45084
:101380000127D89001330033D890013300330D0189
:10139000013508E200517E08000E015503E27E0E81
:1013A000006F016B025104E0006D011F000E01236C
:1013B00000CDF3FF01CDF4FF65D23AD9E150FB0F28
:1013C000E96EFF0EDA20EA6EFF0ED880EE54FF0EB3
:1013D000EE54000EEE54000EEE5411E3FB0EDBCF84
:1013E0002BF0FC0EDBCF2CF0FD0EDBCF2DF0FE0E34
:1013F000DBCF2EF02B502C102D102E1003E1F36AB2
:10140000F46A3BD0F90EDB0408E1FB0EDBCF2EF0D3
:10141000ECD9F70E2B6E430E07D0FB0EDBCF2EF070
:10142000E4D9970E2B6EF20E2C6E2D6A2BC01CF099
:101430001D6E2DC01EF02EC021F02FC022F030C036
:1014400023F0B2EC39F01CC000FD1DC001FD0D0100
:101450001D3408E200517E08000E015503E27E0EA5
:10146000006F016BFA0EDB5004E0006D011F000EEF
:10147000012300CDF3FF01CDF4FF04D2D9D8100E23
:10148000E12683D8050ED9D880D8090EE3D8040EFA
:101490002BC0DBFF050E2CC0DBFF060E2DC0DBFFD3
:1014A000070E2EC0DBFF420EF36E0C0EF3CFDBFFF8
:1014B0000F0EAED90F0EDB6A68D82FD9010B05E0ED
:1014C00064D80D0ED6D9EF9046D0D650DF6E010EFF
:1014D000D7CFDBFF020E41C2DBFF030E42C2DBFFB0
:1014E00054D8050EAAD8D9CFE9FFDACFEAFF2F509A
:1014F000EE5C2B6E3050EE582C6E3150EE582D6E47
:101500003250EE582E6E080E2BC0DBFF090E2CC099
:10151000DBFF0A0E2DC0DBFF0B0E2EC0DBFFE4D875
:10152000D950080FC0D9EE502B5CEE502C58EE501D
:101530002D58EE502E580FE2D950080FB4D9040E92
:10154000EECFDBFF050EEECFDBFF060EEECFDBFFAF
:10155000070EEECFDBFF040EDBCF2FF0050EDBCF47
:1015600030F0060EDBCF31F0070EDBCF32F02F501C
:1015700030103110321006E12B682C682D687F0E78
:101580002E6E01D0B1D807D950D0FD0EDBCFE9FFC8
:10159000FE0EDBCFEAFF1200130EDBCF1BF0140EA2
:1015A000DBCF1CF0150EDBCF1DF0160E9BD92AEFFA
:1015B0000CF05FD92BC0EEFF2CC0EEFF2DC0EEFF6C
:1015C0002EC0EEFF1200010EF36E030EF3CFDBFF11
:1015D0007BD91D681E68FC0EDBCF22F0FD0EDBCF31
:1015E00023F0D8EC35F0FC0E1BC0DBFFFD0E1CC059
:1015F000DBFF12002FC01BF030C01CF031C01DF00B
:1016000032C01EF033C020F034C021F035C022F0CB
:1016100036C023F045EC38F017C02BF018C02CF082
:1016200019C02DF01AC02EF01200D9CFE1FF2AD137
:10163000D9CFE6FFE1CFD9FF12001BD9EECF2FF0B3
:10164000EECF30F0EECF31F0EFCF32F012002A0EB5
:1016500039EF0CF00ED91AD92D6EEE5032582E6E8D
:10166000120000012F502D02F3CF2BF0F4CF2CF0FD
:101670002E02F3502C2630502D02F3502C2612004F
:1016800017C01BF018C01CF019C01DF01AC01EF0C6
:101690001200FC0EDBCF2BF0FD0EDBCF2CF0120086
:1016A000D950130F53EF0CF0130E2BC0DBFF140EA9
:1016B0002CC0DBFF150E2DC0DBFF160E2EC0DBFF8E
:1016C000030E1200DAD8FE0EDBCFE6FF41DDE55255
:1016D000E552E552E5521200EAD8150EDBCF2DF0A7
:1016E000160EDBCF2EF01200040EDBCF2BF0050E12
:1016F000DBCF2CF0060EDBCF2DF0070EDBCF2EF06C
:101700001200DFCF20F0010EDBCF21F0020EDBCF85
:1017100022F0030EDBCF23F012000D0EAAD8EF50FB
:101720001200F36EFC0EF3CFDBFFFD0E12002E6EE7
:101730002F6A2DC0E6FFE66E2FC0E6FF35EC37F0CE
:10174000F56E1200DACFEAFFEECFE6FFEECFE6FF4E
:10175000EECFE6FFEFCFE6FF1200090EDBCF2BF056
:101760000A0EDBCF2CF01200D8902E322D322C3204
:101770002B32E8061200190EDBCF2BF01A0EDBCF4E
:101780002CF01200EECF1BF0EECF1CF0EECF1DF0D0
:10179000EFCF1EF012002BC01BF02CC01CF02DC090
:1017A0001DF02EC01EF01200190EDBCF2DF01A0E08
:1017B000DBCF2EF02F6A306A1200EE502D26EE504D
:1017C0002E22EE502F22EE50302212002C02F3CFA8
:1017D0002CF02B02F3CF2BF0F4502C261200F36EDA
:1017E000190EF3CFDBFF1A0E1200FC0EDBCF2FF029
:1017F000306A1200E66EB6EC04F0E552E552E552AE
:101800001200F36E0B0EF3CFDBFF0C0EDB6A12003F
:10181000F36E0D0EF3CFDBFF0E0EDB6A1200030E2C
:10182000DB6AFE0EDBCF2BF02B341200020EDB50F6
:10183000FF0D020EF3CFDBFF1200EECF2BF0EECF49
:101840002CF0EECF2DF0EFCF2EF0C5EF0AF09DDE9D
:1018500027EF0BF045EC38F0130E17C0DBFF140E2A
:1018600018C0DBFF150E19C0DBFF160E1AC0DBFF18
:101870001200E926000EEA2212002BC0E6FF2CC05F
:10188000E6FF1200E552E7CFD9FF1200EE502F5CC1
:101890002B6EEE5030582C6EEE503158120075DE23
:1018A0003CDF020B1200E96EDACFEAFF1200130EE2
:1018B000DBCF2BF0140EDBCF2CF01200EECFE6FFC7
:1018C000EFCFE6FFC5EF0AF0FE0EDB50FF0DFE0E78
:1018D000F3CFDBFF1200ACDE040EE126120069DE5E
:1018E000C5EF0AF0DBCF1EF020682168226823686C
:0218F0001200E4
:0E18F200B5EC11F0FB0EDBCFF3FFDB06F3507D
:1019000000090AE003EC12F0FA0E6EEC12F0F3E1BB
:101910002C1CF1E1010E01D0000EE4EF11F0B5EC4A
:1019200011F03B0EE12402E3E168E652E16E010EA4
:10193000DB6A020EDB6AF90EDBCFF6FFFA0EDBCFB5
:10194000F7FFFB0EDBCFF8FF0800F550DF6EDF502E
:1019500002E10AEF11F0250EDF5C02E0FDEF10F06E
:10196000030EDB6A040EDB6A050EDB6A060EDB6A19
:10197000070EDB6A1DEC11F02D0EDF5C0CE02B0E68
:10198000DF5C09E0200EDF5C06E0230EDF5C03E095
:10199000300EDF5C1AE1DF50300A14E0130A0FE06A
:1019A000030A0AE00B0A05E0060AE4E1030EDB8005
:1019B000E1D7030EDB82DED7030EDB84DBD7030E19
:1019C000DB86D8D7030EDB88D5D72A0EDF5C1BE178
:1019D00019EC11F067EC11F010E0030EDB801D68CC
:1019E0001E68130EDBCF22F0140EDBCF23F0D8ECF1
:1019F00035F0040E1BC0DBFF03D0130E50EC11F0CA
:101A00001DEC11F00BD0090EDB6ABEEC11F003E007
:101A100032EC12F0FAD7090E50EC11F0030EDBB0E5
:101A2000DB982E0EDF5C1BE11DEC11F02A0EDF5C53
:101A30000BE119EC11F067EC11F003E1130EA2ECCD
:101A400011F01DEC11F00BD0090EDB6ABEEC11F0A9
:101A500003E032EC12F0FAD7090EA2EC11F0680E96
:101A6000DF5C07E11DEC11F0680EDF5C1DE1030E89
:101A700018D0740EDF5C17E07A0EDF5C14E0480EBD
:101A8000DF5C06E0540EDF5C03E05A0EDF5C02E12F
:101A9000020E07D06C0EDF5C03E06A0EDF5C04E12F
:101AA000010EF5EC11F0C9DBDF506E0A01E181D3C4
:101AB0001E0A01E192D1200A01E18FD13F0A01E122
:101AC00049D11A0A01E146D10D0A01E143D1200AA8
:101AD00001E140D13A0A01E13DD1200A01E13AD1C8
:101AE000260A01E135D10D0A01E132D11A0A01E1DC
:101AF000D9D0200A4AE0300A1FE0460A0EE0250A43
:101B000001E085D3D950F90FE96EFF0EDA20EA6EB5
:101B1000010EEE5E000EEE5AEE5A03EC12F0250EA8
:101B2000E66E95DB03E12C1C01E16BD3FFEC11F0B9
:101B300001E26DD3DB2A6BD3080EDB6A040EDB50A7
:101B4000010806E2040EDB04C7EC11F0DB508BDB6E
:101B5000080EDB5009E0030EDB50010B05E172DBE0
:101B600001E04FD3080EDB6A64DBEFCFDFFF77ECD9
:101B700012F003E12C1C01E144D3FFEC11F001E36E
:101B8000DB2A60DB01E143D33CD3070EDB500208C4
:101B90000FE143EC12F0030E0AEC12F00E0EEECF42
:101BA000DBFF0F0EEECFDBFF100EEECFDBFF20D002
:101BB000F70EDBCF2EF0F80EDBCF2FF0020E2E5EED
:101BC000000E2F5AF70E2EC0DBFFF80E2FC0DBFFE2
:101BD0002EC0E9FF2FC0EAFFFAEC11F02D6A0E0EBD
:101BE0002BC0DBFF0F0E2CC0DBFF100E2DC0DBFF68
:101BF0000E0EDBCFE6FF0F0EDBCFE6FF100EDBCFC6
:101C0000E6FFBFEC38F0E552E552E552130E1CC07A
:101C1000DBFF140E1DC0DBFF060EDB5005E0130ECC
:101C20003EEC12F001E26ADB62EC12F002E2130E0B
:101C300037DB25EC12F006E0040E3EEC12F002E277
:101C4000050E2EDB030EDBB005D0FCDA01E0D9D2A5
:101C5000080EDB6A090EDB6A0E0EDBCFF6FF0F0EF5
:101C6000DBCFF7FF100EDBCFF8FF0800F550DF6E7B
:101C7000DF5014E068EC12F011E277EC12F003E1AF
:101C80002C1C01E1BED2BBDB01E3DB2A090EDB2AFF
:101C9000D9500E0FE96E000ECBDBE7D7D3DA01E1A6
:101CA000B6D2AFD2C6DA110EEECFDBFF120EEDCFF9
:101CB000DBFF110EDBCFE6FF120EDBCFE6FFB1EC50
:101CC00038F0E552E552130EF3CFDBFF140EF4CFDC
:101CD000DBFF060EDB5004E0130ED0DB01E20EDB6F
:101CE00062EC12F002E2130EDBDAAFDB05E0040E69
:101CF000C5DB02E2050ED4DA030EDBB005D0A2DAB2
:101D000001E07FD2080EDB6A090EDB6A110EDBCF21
:101D1000E9FF120EDBCFEAFFEFCFDFFFDF5014E069
:101D2000D7DB12E2E4DB03E12C1C01E16AD267DBC2
:101D300001E3DB2A090EDB2A110EDB2ADBCFE9FFE8
:101D4000120EE8E3DB2AE6D77DDA01E160D259D250
:101D5000030EDB8E070EDB0410E195DB040E5ADB6D
:101D60000A0EEECFDBFF0B0EEECFDBFF0C0EEECF3D
:101D7000DBFF0D0EEECFDBFF6CD0070EDB50030850
:101D80002CE1030EDBAE0DD0B2DA020E76DAEFCF25
:101D90002BF02C6A2D6A2E6A2BAE39D02C682D6858
:101DA00035D0F70EDBCF2CF0F80EDBCF2DF0020E86
:101DB0002C5E000E2D5AF70E2CC0DBFFF80E2DC046
:101DC000DBFF2CC0E9FF2DC0EAFFEFCF2BF00A0E9E
:101DD0002BC0DBFF0B0EDB6A38D0070EDB5002088E
:101DE00009E1030EDBAE04D059DB2DAE10D00ED0CE
:101DF00055DB0DD0030EDBAE12D079DA020E3DDAE0
:101E0000F9DA2D6A2E6A2CAE02D02D682E68E2DA3D
:101E10000C0E2DC0DBFF0D0E2EC0DBFF1AD0F70E0F
:101E2000DBCF2DF0F80EDBCF2EF0020E2D5E000E74
:101E30002E5AF70E2DC0DBFFF80E2EC0DBFF2DC093
:101E4000E9FF2EC0EAFFD6DAC5DA0C0EDB6A0D0E0A
:101E5000DB6A060EDB5005E1010EF36E050EF3CFD3
:101E6000DBFF150EDB6A160EDB6AD950370F2B6EBF
:101E7000000EDA202C6E390E2BC0DBFF3A0E2CC080
:101E8000DBFF380EDB6A080EDB6A0A0EAEDADF50C3
:101E9000780A12E0200A10E0280A0CE0200A0AE082
:101EA0003F0A06E00D0A02E0200A08E1020E05D012
:101EB000080E03D0080EDF26100E97DA030EDBBEE5
:101EC00002D0DB92DB94DB50800B26E08ADA030E33
:101ED000EB50000AE8AE02D0D89008D0000EEE5CBD
:101EE000000EEE58000EEE58000EEE5815E211DA14
:101EF000206821682268236845EC38F00A0E17C074
:101F0000DBFF0B0E18C0DBFF0C0E19C0DBFF0D0E44
:101F10001AC0DBFF2D0E08D0030EDBA202D02B0E61
:101F200003D0DBA408D0200EF36E170EF3CFDBFF37
:101F3000150EDB2A02D0170EDB6A050EDB5003E11B
:101F4000B5D901E189D0E00E2B6E740E2C6E000E17
:101F50002D6E070EDBCF2EF02F6A306A316A2EC04D
:101F600020F02FC021F030C022F031C023F0D1D9B1
:101F70006FEC39F02B501724F36E2C501820F46EB0
:101F80002D501920F86EF4CFF7FFF3CFF6FF0800BD
:101F9000090EF5CFDBFF580EDF5C0FE1610EF36E2B
:101FA000090E79D90AE3200E2B6E090EDBCFE7FF6D
:101FB0002B50E75E090EE7CFDBFF070EDBCF2BF0E0
:101FC0002C6A2D6A2E6A0DDA2BC020F02CC021F06D
:101FD0002DC022F02EC023F0EECF1BF0EECF1CF070
:101FE000EECF1DF0EFCF1EF06FEC39F01EC0EDFF0D
:101FF0001DC0EDFF1CC0EDFF1BC0EFFF390EDBCF96
:10200000E9FFDB063A0EDBCFEAFF01E2DB06090E51
:10201000DBCFEFFF150EDB2A49D995E1030EDBA6D6
:102020001DD06F0EDF5C06E1BFD918E3150EDB286B
:1020300059DA14D0780EDF5C09E0580EDF5C06E058
:10204000620EDF5C03E0420EDF5C08E1020EF36E1D
:10205000160EF3CFDBFF02D0150EDB6A030EDB504A
:10206000100B0EE0040EDBCF2BF0050EDB50D880FA
:102070002B5406E2060EDB5003E1040EDB5032DA8D
:1020800093D90AE2050EDBCFE7FF150EDB50E75EC2
:10209000050EE7CFDBFF02D0050EDB6A040EDBCFB7
:1020A0002BF0160E43D9D8802B5414E2160EDBCF3A
:1020B000E6FF150EDBCFE6FF040EDBCFE6FF050ED5
:1020C000DB50E552E75CE552D880E754E552D88012
:1020D000E7545DD9030EDB50010B0BE1080EDB501A
:1020E00008E0B0D801E08DD0080EDB50BCD8080E57
:1020F000DB6A170EDB5007E086D9170EEFD903E134
:102100002C1C01E17ED0160EDB5016E07CD9300E7F
:10211000E66E9DD802E12C1C74E075D9DFCFE6FF96
:10212000C3EC37F0E552E552E552F4CF2CF0000154
:10213000F31C02E12C1C65E0050EDBCF2BF0160E24
:10214000DB50D8802B5409E2050EDBCFE7FF160EDB
:10215000DB50E75E050EE7CFDBFF300EE66E050EC7
:10216000C9D94FE1390EDB2ADBCFE9FF3A0E01E393
:10217000DB2ADBCFEAFF090EEFCFDBFFDB500EE0FF
:1021800042D9090EABD902E12C1C3BE0390EDB2A07
:10219000DBCFE9FF3A0EEDE3DB2AEBD753D831E191
:1021A000160EDBCFE6FF080EC1D8E552E7245BD858
:1021B0002ED0070EDB50030A1CE0010A14E0030ACC
:1021C00007E079D9DBCFEEFF020EDBCFEDFF1FD0AA
:1021D000F3D8306A2EAE02D02F6830682AD8BAD829
:1021E00030C0EEFF14D0E8D82EBE2F6822D8B2D867
:1021F0000ED061D9DBCFEFFF0AD079D905E12C1CD5
:1022000003E1F368F46810D0FAD801E3DB2A77D948
:10221000A4EF0CF0010EDBCF2BF0020EDBCF2CF085
:102220002BC0F3FF2CC0F4FFD9CFE1FFDACFE2FFE0
:10223000CBD029D9020E0AEF12F061D90800F5506F
:10224000DF6E1200200EE66E080E7AEF12F0C3EC7D
:1022500037F0E552E552E552F3CF2BF0F4CF2CF0F6
:102260000001F31C12002B6E2C6AD950010F4DD9BE
:102270002B50EE262C50ED2212002F5E000E305A0D
:10228000F70E2FC0DBFFF80E30C0DBFF2FC0E9FFD9
:1022900030C0EAFF1200DBCFF4FFF350F45C120011
:1022A000DB50E76E040EE7CFDBFF12000A0EDBCF38
:1022B0002BF00B0EDBCF2CF00C0EDBCF2DF00D0E28
:1022C000DBCF2EF02B502C102D102E101200130EE1
:1022D000EECFDBFF140EEDCFDBFF130EDBCF2BF0C9
:1022E000140EDBCF2CF00001800E2C141200F70E20
:1022F000DBCF2FF0F80EDBCF30F01200050EDB50F5
:10230000E66ED950130F01D9E552E750EE6EED6A33
:1023100012000A0EDBCF1BF00B0EDBCF1CF00C0EF5
:10232000DBCF1DF00D0EDBCF1EF01200DBCFE6FF82
:10233000150EDBCFE6FF050EDB50E552E724E55234
:10234000E7241200DB50CED8010EF36E060EF3CF59
:10235000DBFF1200EE50EFCFEAFFE96E2DC0EEFF7B
:102360002EC0EEFF2FC0EEFF1200D9CFE6FFDACF6E
:10237000E6FFE1CFD9FFE2CFDAFF1200DFCFE6FFC1
:10238000E66A17EC3AF0E552E552F3501200E76EB8
:10239000080EE7CFDBFF1200EECF2BF0EECF2CF0D4
:1023A000EFCF2DF02E6A1200050EDBCF2BF0150EAD
:1023B000DB50D8802B541200010EDBCF2DF0020E23
:1023C000DBCF2EF02F6A1200E552E5CFDAFFE7CF20
:1023D000D9FF12000A0E2BC0DBFF0B0E2CC0DBFF57
:1023E0001200D9500A0F85EF12F0F36E070EF3CFEB
:1023F000DBFF1200EECF2BF0EFCF2CF01200010E1E
:10240000DB2A020E1200FC0EDBCFE6FFFD0EDBCF57
:10241000E6FF12002B5E000E2C5AF70E2BC0DBFFDE
:10242000F80E2CC0DBFF2BC0E9FF2CC0EAFF120026
:10243000DA20EA6EEF2AEECFF6FF000EEF22EECFA3
:10244000F7FFEF22EECFF8FF1200040EDBCFE6FF1E
:10245000130EDB50E552E75C9ADFDB5004DF060E1B
:10246000DB501200090EDB500A0DF350DF24D00FB1
:10247000E76E090EE7CFDBFF1DEF11F0DB50F36EC7
:10248000050E4BEF11F0F70EDBCF2BF0F80EDBCF84
:102490002CF01200DFCFE6FF27EF11F028DF030E4C
:1024A000ECDECCEF11F079EC0CF0E552E552E552A0
:1024B000E55200091200BDDEEE50EFCFEAFFE96EF3
:1024C000010E1200130EDB50F36E040E4BEF11F0F1
:1024D000040EDB50F36E090E4BEF11F0DBCFE6FF7D
:1024E00027EF11F0E76E050EE7CFDBFF12008BDF61
:1024F0004AEF12F0DBCFE6FF86DF53EF12F0D95040
:10250000F90FE96EFF0E18EF12F0E96E000EDA20F7
:04251000EA6E12005D
:0C25140069EC17F00C0EE1261FEC17F02C
:102520007CEC17F01FEC17F0050EE926000EEA22EE
:102530003AEC17F0040E2BC0DBFF050E2CC0DBFFBE
:10254000060E2DC0DBFF070E2EC0DBFFD5EC17F00B
:10255000EF50010B04E0D5EC17F0EF904AD0D650C5
:10256000DF6E010ED7CFDBFF020E41C2DBFF030E91
:1025700042C2DBFF1FEC17F07CEC17F0D9CFE9FF6C
:10258000DACFEAFF2F50EE5C2B6E3050EE582C6EF7
:102590003150EE582D6E3250EE582E6E080E2BC074
:1025A000DBFF090E2CC0DBFF0A0E2DC0DBFF0B0E7C
:1025B0002EC0DBFF47EC17F0D950080FD1EC17F015
:1025C000EE502B5CEE502C58EE502D58EE502E58FD
:1025D00010E2D950080FD1EC17F0040EEECFDBFF5C
:1025E000050EEECFDBFF060EEECFDBFF070EEECFC4
:1025F000DBFF040EDBCF2FF0050EDBCF30F0060E35
:10260000DBCF31F0070EDBCF32F02F50301031101E
:10261000321006E12B682C682D687F0E2E6E02D0DA
:1026200047EC17F06EEC17F02EC01EF026EF17F0F7
:1026300069EC17F0090EE126430EE66E020EE66E17
:1026400069DFE552E552010E1BC0DBFF020E1CC024
:10265000DBFF030E1DC0DBFF040E1EC0DBFF4C0EB4
:10266000E66EFE0EDBCFE6FFD950010FDDDB0F017A
:102670000A6F4E0EE66E020EE66E4CDFE552E55234
:10268000050E1BC0DBFF060E1CC0DBFF070E1DC0C6
:10269000DBFF080E1EC0DBFF520EE66EFE0EDBCF28
:1026A000E6FFD950050FC0DB0F010B6FCFD369ECEC
:1026B00017F0180EE126060EDB6A070EDB6A080E1D
:1026C000DB6A090EDB6AE66818EC35F0E5520A0EA3
:1026D000F3CFDBFF0B0EF4CFDBFF0201725102E000
:1026E000000E01D0010E726F080E716F02019FA9DA
:1026F00019D071C22BF02C6A2BBE2C682BC0E6FFC0
:102700002CC0E6FF010E2D6E420E2E6E2F6A2DC0DC
:10271000E6FFE66E2FC0E6FF35EC37F0F56E050EEE
:10272000E15EF550060EDB6A540EF36E070EF3CF32
:10273000DBFFB10EF36E080EF3CFDBFF020EF36E7C
:10274000090EF3CFDBFFD950060FD1EC17F0ACDB4D
:10275000EECF1BF0EECF1CF0EECF1DF0EFCF1EF052
:102760006FEC39F01EC0EDFF1DC0EDFF1CC0EDFF8A
:102770001BC0EFFF5CC22FF0306A316A326A2FAEA5
:1027800003D0306831683268030ED8902F36303667
:1027900031363236E806F9E1D950060FD1EC17F0A0
:1027A00069DBD2DB040E2DC0DBFF050E2EC0DBFF84
:1027B000020EDBCF1CF0030EDBCF1DF0040EDBCFCF
:1027C0001EF0050EDBCF1FF0000E1F18E8AE02D082
:1027D0001F3402D0FF0EA3DB09E2020EDB68030EFA
:1027E000DB6A040EDB6A050EDB6A1ED0D950020FCD
:1027F000D8DB030EEB50FF0AE8AE02D0D88008D039
:10280000010EEE5CFF0EEE58FF0EEE58FF0EEE5876
:102810000BE2010EF36E020EF3CFDBFF030EDB685B
:10282000040EDB68050EDB68FA0EDB500201D8806F
:1028300071552B6E2C6A2BBE2C680C0E2BC0DBFF47
:102840000D0E2CC0DBFF0C0EDBCF2BF00D0EDBCF03
:102850002CF02C3404E22B500008000E2C5407E31B
:10286000010EF36E0C0EF3CFDBFF0D0EDB6AD950B9
:102870000C0F97DB070ED890EE36ED36E806FBE13D
:102880000C0EDBCF33F00D0EDBCF34F0356A366A39
:1028900034AE02D0356836680A0EDBCF2FF00B0E4F
:1028A000DBCF30F0316A326A30AE02D03168326844
:1028B0002FC01BF030C01CF031C01DF032C01EF024
:1028C00033C020F034C021F035C022F036C023F0F0
:1028D00045EC38F017C02BF018C02CF019C02DF0C3
:1028E0001AC02EF0070E01DBFEE10E0E2BC0DBFF3F
:1028F0000F0E2CC0DBFF100E2DC0DBFF110E2EC003
:10290000DBFF29DB040EDBCF2DF0050EDBCF2EF035
:10291000E5DA2EC01EF00E0EDBCF20F00F0EDBCF5F
:1029200021F0100EDBCF22F0110EDBCF23F021DBE4
:10293000170EDB6AFDDA030EEB50000AE8AE02D098
:10294000D89008D0000EEE5C000EEE58000EEE5847
:10295000000EEE5806E2010EF36E170EF3CFDBFF0A
:1029600049DAAFDA0F0EC1DAFEE176DA2B6E2C6AA5
:102970002D6A2E6ADDDAEE502B16EE502C16EE5034
:102980002D16EE502E16160E2BC0DBFF9ADA020E15
:10299000ACDAFEE161DA02019B15F66EF76A000E11
:1029A000F626750EF7220800F5CF2BF0160EDB5039
:1029B000E76E2B18E8AE02D0E73402D0E7502B5C6C
:1029C00006E2B6DAEE2A000EEE22EE22EE22120E19
:1029D000DBCF1CF0130EDBCF1DF0140EDBCF1EF08F
:1029E000150EDBCF1FF0000E1F18E8AE02D01F340B
:1029F00002D03F0E94DA0BE23F0EF36E120EF3CFCD
:102A0000DBFF130EDB6A140EDB6A150EDB6A170E92
:102A1000DB0401E1EFD971C2E6FFFA0EDBCFE6FF7E
:102A2000ACD8E552E5522B6E2C6A2BBE2C682BC01D
:102A3000DEFF2CC0DDFFBFDAD9CFE9FFDACFEAFF36
:102A40002B50EE262C50ED22DECF2BF0DDCF2CF0DC
:102A50002C3408E22B507F08000E2C5403E27F0E2A
:102A6000DE6E09D0DECF2BF0DDCF2CF00001800E22
:102A70002C1402E0DE6ADD6A02019FA97CD0800E80
:102A80002B6ED10E2C6EF00E2D6E080E2E6E26DAE9
:102A90001E6E0ADA6FEC39F01BC000FD1CC001FD90
:102AA0001DC002FD1EC003FD020EDBCFE6FF030EBC
:102AB000DBCFE6FF060EDBCFE6FF070EDBCFE6FF40
:102AC000FA0EDBCF2BF02C6A2BBE2C68030ED890AD
:102AD0002B362C36E806FBE12BC0E6FF2CC0E6FFC8
:102AE000DECFE6FFDDCFE6FF00CDE6FF01CDE6FF5E
:102AF000FA0EDBCF2DF02E6A2DBE2E682DC0E6FF1C
:102B00002EC0E6FFF90EDBCF2FF0306A2FBE306803
:102B10002FC0E6FF30C0E6FFBB0E316E410E326EB5
:102B2000336A31C0E6FFE66E33C0E6FF35EC37F0BE
:102B3000F56E110EE15EF550D950FB0FE96EFF0EF8
:102B4000DA20EA6E25DA120EDBCFE6FF130EDBCFBA
:102B5000E6FFD9500E0F25DA1BDA0A0EDBCFE6FFAF
:102B60000B0EDBCFE6FF7E0E2B6E410ECFD9F56E3E
:102B70000F0EE15EF550DF5069D1ABD9030EE126AF
:102B8000DF6AFE0EDB5002E1000E5AD0FE0EDBCFF4
:102B90002BF02B3408E3010EDF6EFE0EDB50FF0D31
:102BA000FE0EF3CFDBFFFE0EDBCF2DF02E6A2DBE27
:102BB0002E68800ED8802D56000E2E56FD0EDB504E
:102BC000800DF3CF2BF0F4CF2CF0F3CF1DF0F4CF2A
:102BD0001EF02DC022F02EC023F07EEC35F0DE5228
:102BE0001DC0DEFF1EC0DDFFDD52BCD92C340BE260
:102BF0002B507F08000E2C5406E27F0EF36E010E60
:102C0000F3CFDBFF07D0AED90001800E2C1404E017
:102C1000010EDB6A020EDB6ADF0410E11D681E682C
:102C2000010EDBCF22F0020EDBCF23F0D8EC35F023
:102C3000DE521BC0DEFF1CC0DDFFDD52010EDB508B
:102C400005D147D90D01050E006F000EE76E001982
:102C5000E8AE02D0003503D0E750D880005566E2D8
:102C60000005E96EEA6AE9BEEA68D6D8EFCF2BF034
:102C70002C6A2BBE2C68FD0EDBCF1DF0FE0EDBCFC9
:102C80001EF02B501D5C036F2C501E58046F800EDD
:102C9000041502E00007D9D700CDE9FFEA6AE9BED2
:102CA000EA68BAD849D9E9BEEA68B6D8EE52EF5018
:102CB00000012E5C2C6A0D01E8500303F3CF01FDE7
:102CC000F4CF02FD0403F35002272C500303F3500A
:102CD000022700CDE9FFEA6AE9BEEA689DD82CD94F
:102CE000E9BEEA6899D8EF5000012D5C2B6E2C6A82
:102CF0002BBE2C682BC022F02CC023F001CD1DF080
:102D000002CD1EF07EEC35F01DC001FD1EC002FD9F
:102D10000D010005E96EEA6AE9BEEA687DD8EE5267
:102D2000EF502C6AE85001272C5002230151E55244
:102D3000E7CFD9FF1200CDD8040EE126000E020124
:102D4000E76E7F19E8AE02D07F3503D0E750D88018
:102D50007F5502E3040E7F6F7F073CEC27F0040BE6
:102D600013E0C1EC27F0F3CFDEFFF4CFDDFFDECFC1
:102D7000E6FFDDCFE6FF65DFE552E5520201806F39
:102D8000E50E7D6F7E6B07D0710E2B6E410EBED8A7
:102D9000E552E552E55202017E3509E27D51000817
:102DA000000E7E5504E27D07000E7E5B20D07F5131
:102DB0001EE180C22BF02C6A2BBE2C68650E2B5EA8
:102DC000000E2C5AC1D8C7D82C3407E22B5000086B
:102DD000000E2C5402E280070AD0020E030EDBCF55
:102DE0002CF00001800E2C1402E00201802B020165
:102DF00080512CD0120EDBCF1BF0130EDBCF1CF05A
:102E0000140EDBCF1DF0150EDBCF1EF020682168FD
:102E100022682368B9EF17F0D890E936EA36730EC6
:102E2000E926020EEA221200BCD8B2D840DCF56EC8
:102E3000060EE15EF550DF6E7F0EDF241200FD0E00
:102E4000DBCFE9FFFE0EDBCFEAFF1200D9CFE1FFB7
:102E5000E552E7CFD9FF1200120E2BC0DBFF130E95
:102E60002CC0DBFF140E2DC0DBFF150E2EC0DBFFC8
:102E7000030E1200EE502F5C2B6EEE5030582C6E6D
:102E8000EE5031582D6EEE5032582E6E1200040E58
:102E9000DBCF2BF0050EDBCF2CF0060EDBCF2DF0B9
:102EA000070EDBCF2EF01200FB0EDBCF20F0FC0E66
:102EB000DBCF21F0FD0EDBCF22F0FE0EDBCF23F0C7
:102EC000120079D8140EDBCF2DF0150EDBCF2EF0CB
:102ED0001200D9CFE6FFE1CFD9FF12002BC01BF0C3
:102EE0002CC01CF02DC01DF01200D8902E322D32B7
:102EF0002C322B32E8061200EE52EECF2FF0EECF3E
:102F000030F0EECF31F0EFCF32F012002C6E2D6AA0
:102F10002BC0E6FFE66E2DC0E6FF35EF37F0D88018
:102F20001C54000E1D54000E1E54000E1F5412009F
:102F3000D950120FD1EF17F0EECF2DF0EFCF2EF0CA
:102F40000005E96EEA6A1200020E2BC0DBFF030ED9
:102F50002CC0DBFF1200020EDBCF2BF0030EDBCF09
:102F60002CF01200010EDBCF2BF0020EDBCF2CF089
:102F7000120045EC38F0120E17C0DBFF130E18C01C
:102F8000DBFF140E19C0DBFF150E1AC0DBFF1200A9
:102F9000EECFE6FFEECFE6FFEECFE6FFEFCFE6FFA8
:102FA0001200E96EDACFEAFF120049DF0A0EE926C5
:102FB000000EEA221200120EDBCF2BF0130EDBCF35
:042FC0002CF01200DF
:0C2FC400D8CFE4FFE0CFE4FFE46EDACFEA
:102FD000E4FFE2CFDAFFE9CFE4FFEACFE4FFE65215
:102FE000F2A202D0A5D802D09EB6D1D8E552E5CF44
:102FF000EAFFE5CFE9FFE5CFDAFFE550E5CFE0FFF7
:10300000E5CFD8FF1000E66A010EE66E050EE66E0B
:10301000E4EC38F0E552E552E5521200070EB46ECA
:10302000000E886E876E866E856E846E836E826EED
:10303000816E806E916E906E8F6E8E6E8D6E8C6EC8
:103040008B6E8A6E896E2F0E926E93689C0E946EB4
:10305000956A966A9768040E986E0E0E9A6E996835
:10306000C16AF19EB0989C8EA26A9F6AA06A9D6A0E
:10307000A36AA56AC8DF9F86D08E9E969D8693829E
:10308000F06AF288F09EF098F192F09AF16AF28C70
:10309000F28E1200D9CFE6FFE1CFD9FFE652BEDFB4
:1030A0000F01409740990101040EFC6F0F0EFD6F58
:1030B000DF6A100EDF5C0AE2DF50EA6AFC25E96E87
:1030C000FD51EA227F0EEF6EDF2AF3D70F011D6B51
:1030D000010E1E6FC20E1F6F0F0140850F01226B84
:1030E000236B0F01006B026B036B010ED56E320E6A
:1030F000D76ECF0ED66ED59E000EE66E0F0EE66E24
:103100008BD8E552E5520F014093000EE66E0F0E8C
:10311000E66E82D8E552E5520F014093E552E55242
:10312000E7CFD9FF12008282808894929298120091
:10313000F2920101200EF86F9F860F0140A906D080
:103140000101E00EF56F000EF66F05D00101C00E13
:10315000F56F000EF66F0F0140A1407940A706D031
:103160000101800EF36F000EF46F05D00101A00E77
:10317000F36F000EF46FC9CFF9F1F3C1E9FFF4C1A9
:10318000EAFFF32B000EF423EF50C96E12009E9657
:10319000C9CFF9F10101F851000823E2F5C1E9FFB7
:1031A000F6C1EAFFF52B000EF623F9C1EFFFF3C1DC
:1031B000E9FFF4C1EAFFF32BF423EFCFF9F1F9C1F2
:1031C000C9FFF807F8510CE10F01020E1E6F0F0145
:1031D00040934081320ED76ECF0ED66EF294D58ECC
:1031E00001D0C96A1200D9CFE6FFE1CFD9FF0F01A4
:1031F00040A10ED0FD0EDBCFE6FFFE0EDBCFE6FFDB
:103200000AEC2FF0E552E5529D960F0140919D8604
:10321000E552E7CFD9FF1200D9CFE6FFE1CFD9FFC2
:103220000F0140B332D0FD0EDBCFE9FFFE0EDBCF46
:10323000EAFF1E0EE926000EEA22EF50020809E11D
:10324000FD0EDBCFE6FFFE0EDBCFE6FF69D8E552D1
:10325000E552FD0EDBCFE9FFFE0EDBCFEAFF150ED8
:10326000E926000EEA22EF9EFD0EDBCFE6FFFE0E02
:10327000DBCFE6FF78EC2EF0E552E5529D960F018C
:10328000407740839D860F011D2BE552E7CFD9FF84
:1032900012009D960F0140919D861200D9CFE6FF46
:1032A000E1CFD9FF0001166BD950FD0FE96EFF0E7B
:1032B000DA20EA6E010EEE1801E1ED5002E116810E
:1032C00001D0BA6AD950FB0FE96EFF0EDA20EA6E20
:1032D000010EEE1801E1ED5002E1168301D0B76A4C
:1032E000D950F90FE96EFF0EDA20EA6E010EEE18E2
:1032F00001E1ED5002E1168501D0736AD950F70F54
:10330000E96EFF0EDA20EA6E010EEE1801E1ED50D3
:1033100002E1168701D0706AE552E7CFD9FF1200AB
:10332000D9CFE6FFE1CFD9FFFD0EDBCFE9FFFE0EDF
:10333000DBCFEAFF1C0EE926000EEA22EF6AFD0E43
:10334000DBCFE9FFFE0EDBCFEAFF170EE926000E0A
:10335000EA22EF6AC6AE0ED0C69EFD0EDBCFE9FFB5
:10336000FE0EDBCFEAFF170EE926000EEA22010E61
:10337000EF6E22D0F150800B10E0F250080B0DE000
:10338000FD0EDBCFE9FFFE0EDBCFEAFF170EE926CD
:10339000000EEA22020EEF6E0FD0F0A60DD0909E26
:1033A000FD0EDBCFE9FFFE0EDBCFEAFF170EE926AD
:1033B000000EEA22030EEF6E250EC614250819E052
:1033C000FD0EDBCFE9FFFE0EDBCFEAFF1C0EE92688
:1033D000000EEA22010EEF6EFD0EDBCFE9FFFE0EBE
:1033E000DBCFEAFF170EE926000EEA22C6CFEFFF79
:1033F00080D1C55019E0FD0EDBCFE9FFFE0EDBCF1B
:10340000EAFF1C0EE926000EEA22020EEF6EFD0E08
:10341000DBCFE9FFFE0EDBCFEAFF170EE926000E39
:10342000EA22C5CFEFFF65D1D0BE19D0FD0EDBCFAC
:10343000E9FFFE0EDBCFEAFF1C0EE926000EEA22B2
:10344000030EEF6EFD0EDBCFE9FFFE0EDBCFEAFFD2
:10345000170EE926000EEA22D0CFEFFF4AD19DB623
:1034600019D0FD0EDBCFE9FFFE0EDBCFEAFF1C0E0D
:10347000E926000EEA22040EEF6EFD0EDBCFE9FF17
:10348000FE0EDBCFEAFF170EE926000EEA229DCFE3
:10349000EFFF2FD19C5019E0FD0EDBCFE9FFFE0EB0
:1034A000DBCFEAFF1C0EE926000EEA22050EEF6EC6
:1034B000FD0EDBCFE9FFFE0EDBCFEAFF170EE9269C
:1034C000000EEA229CCFEFFF14D1080E9F5C19E09A
:1034D000FD0EDBCFE9FFFE0EDBCFEAFF1C0EE92677
:1034E000000EEA22060EEF6EFD0EDBCFE9FFFE0EA8
:1034F000DBCFEAFF170EE926000EEA229FCFEFFF8F
:10350000F8D0A25019E0FD0EDBCFE9FFFE0EDBCFB5
:10351000EAFF1C0EE926000EEA22070EEF6EFD0EF2
:10352000DBCFE9FFFE0EDBCFEAFF170EE926000E28
:10353000EA22A2CFEFFFDDD0A55019E0FD0EDBCFD0
:10354000E9FFFE0EDBCFEAFF1C0EE926000EEA22A1
:10355000080EEF6EFD0EDBCFE9FFFE0EDBCFEAFFBC
:10356000170EE926000EEA22A5CFEFFFC2D0100EFB
:10357000F214100819E0FD0EDBCFE9FFFE0EDBCFE1
:10358000EAFF1C0EE926000EEA22090EEF6EFD0E80
:10359000DBCFE9FFFE0EDBCFEAFF170EE926000EB8
:1035A000EA22F2CFEFFFA5D0470EF11419E0FD0E8D
:1035B000DBCFE9FFFE0EDBCFEAFF1C0EE926000E93
:1035C000EA220A0EEF6EFD0EDBCFE9FFFE0EDBCF27
:1035D000EAFF170EE926000EEA22F1CFEFFF89D0AD
:1035E000C00EF01419E0FD0EDBCFE9FFFE0EDBCFBD
:1035F000EAFF1C0EE926000EEA220B0EEF6EFD0E0E
:10360000DBCFE9FFFE0EDBCFEAFF170EE926000E47
:10361000EA22F0CFEFFF6DD092A819D0FD0EDBCFDC
:10362000E9FFFE0EDBCFEAFF1C0EE926000EEA22C0
:103630000C0EEF6EFD0EDBCFE9FFFE0EDBCFEAFFD7
:10364000170EE926000EEA2292CFEFFF52D093B078
:1036500019D0FD0EDBCFE9FFFE0EDBCFEAFF1C0E1B
:10366000E926000EEA220D0EEF6EFD0EDBCFE9FF1C
:10367000FE0EDBCFEAFF170EE926000EEA2293CFFB
:10368000EFFF37D03E0E94141C0819E0FD0EDBCF7F
:10369000E9FFFE0EDBCFEAFF1C0EE926000EEA2250
:1036A0000E0EEF6EFD0EDBCFE9FFFE0EDBCFEAFF65
:1036B000170EE926000EEA2294CFEFFF1AD097BE2C
:1036C00018D0FD0EDBCFE9FFFE0EDBCFEAFF1C0EAC
:1036D000E926000EEA220F0EEF6EFD0EDBCFE9FFAA
:1036E000FE0EDBCFEAFF170EE926000EEA2297CF87
:0A36F000EFFFE552E7CFD9FF12000B
:0636FA0080DAAADA2D6A55
:103700002E6A2CAE02D02D682E689BDAEB502E1854
:10371000E8AE02D02E3408D02B50EE5C2C50EE5880
:103720002D50EE582E50EE5805E2F90EDBCF2BF05F
:10373000FA0E27D0F70EDBCF2BF0F80EDBCF2CF0F4
:103740002D6A2E6A2CAE02D02D682E687ADAEBCF65
:10375000F3FF2E50F318E8AE02D0F33408D0EE5049
:103760002B5CEE502C58EE502D58EE502E5805E2A2
:10377000F70EDBCF2BF0F80E04D0FB0EDBCF2BF0D7
:10378000FC0EDBCF2CF02BC0F3FF2CC0F4FF3BD2A0
:1037900035DA0CDAEFCF2BF0FC0EDB50D8802B544F
:1037A00003E304DAEF6A34D001DAEF502B6E2C6AAF
:1037B000D8902C5004E6FE0E2B5C000E2C5802E331
:1037C000F5D925D0FC0EDB502D6E2E6AFE0ED8806A
:1037D0002D56000E2E56FC0EDBCFE6FFE7D9EF503C
:1037E000E552D880E754FE0DF3CF2BF0F4CF2CF048
:1037F000F3CF1DF0F4CF1EF02DC022F02EC023F029
:1038000001EC3AF01D50E66ED1D9E552E750EF6E6B
:10381000FAD1F4D9020EE1267F0EDE6EDD6AD8D928
:10382000D8902C5004E67F0E2B5C000E2C5802E33F
:10383000FE0E1FD0CDD9D8902C5004E6010E2B5C83
:10384000000E2C580DE30CDA2D06000E2E5AF80E41
:10385000C6D97F0ED8802F56000E3056860E20D047
:10386000B7D92C3404E32B50FF08FF0E2C5403E28D
:103870007F0EDE6E24D0ACD9D8802C5004E7810EA8
:103880002B5CFF0E2C581AE3EBD9810E2D5EFF0E38
:103890002E5A790EA4D9FF0ED8802F5630560B0E13
:1038A0003002F3CF30F0B3D92C6E7E0EC2D91EC0D9
:1038B0002CF01DC0DEFF1EC0DDFF02D0DE6ADD6A17
:1038C000DF50D9CFE1FF9FD199D9020EE126FE0E3C
:1038D000DB50FE083FE38E0ECAD912E3FE0EDBCFAB
:1038E000E6FFE552D880E7542D6E2E6AFE0EDB50BF
:1038F000720F7F0DF3502D242B6EF4502E2022D00A
:10390000FE0EDB50700826E3000EB1D923E3FE0E55
:10391000DB502D6E2E6A2D6C2E1E000E2E22FE0EFA
:10392000DBCFE6FF700EE552D880E7542F6E306A89
:10393000810E3002F3CF30F0FF0E2F02F35030260D
:10394000810E65D92C6E700E74D91DC0DEFF1EC0AD
:10395000DDFF02D0DE6ADD6ADF50D9CFE1FF53D14F
:103960000F017F0E0B6F0A6F096F086F076F066FED
:10397000056F046F136F126F116F106F0F6F0E6F63
:10398000120002019B2B000E9C239D2B260E9D5D99
:1039900001E39D6B9D5103E19E2B9F8101D09F917F
:1039A0009F9B9F999F979F959F939D51050A15E017
:1039B000010A11E0070A0DE0010A09E0030A05E027
:1039C000010A01E012009F8112009F8312009F856F
:1039D00012009F8712009F8912009F8B1200020124
:1039E0009D51E66EE66A9E51E66EE66A980E2B6E73
:1039F0003E0E4DD103D9ECD8FB0EDB502B5C0D01F4
:103A0000006FFC0EDB502C58016F800E011504E096
:103A1000006D011F000E01231CD92C500119E8AEC6
:103A200002D0013504D000512B5C01512C5802E228
:103A3000000E01D0010EE7D00F010551E66EE66AD7
:103A40000451E66EE66A840E2B6E3E0E20D1D6D867
:103A5000180EE1268150040B01E0010EDF6E81504B
:103A6000080B01E0010EE76E010EE7CFDBFF81508E
:103A7000100B01E0010EE76E020EE7CFDBFF815075
:103A8000200B01E0010EE76E030EE7CFDBFF815054
:103A9000400B01E0010EE76E040EF0D8050EF3CFE7
:103AA000DBFF8150800B01E0010EE76E060EE7CFD1
:103AB000DBFF8750010BE76E070EE7CFDBFF875078
:103AC000020B01E0010EE76E080EE7CFDBFF875027
:103AD000040B01E0010EE76E090EE7CFDBFF875014
:103AE000080B01E0010EE76E0A0EC8D80B0EF3CFEB
:103AF000DBFF8850020B01E0010EE76E0C0EC3D80D
:103B0000040B01E0010EE76E0D0EBDD8080B01E0BD
:103B1000010EE76E0E0EE7CFDBFF8250010BE76E62
:103B20000F0EB1D8100B01E0010EE76E100EA6D8F3
:103B3000110EF3CFDBFF8850200B01E0010EE76E82
:103B4000120EA1D8400B01E0010EE76E130E9BD8B8
:103B5000800B01E0010EE76E140EE7CFDBFF150EC0
:103B6000DB68160ED9CFDBFF170EDACFDBFF5AD892
:103B7000EF50FF080BE0300E2B6E54D82B50EF2681
:103B8000160EDB2A170EF3E3DB2AF1D74BD8EF6AC8
:103B9000D9CFE6FFDACFE6FF800E2B6E3E0E0DD8B2
:103BA000050EE15EF550D9CFE1FF2DD0FD0EDBCF44
:103BB000E9FFFE0EDBCFEAFF12002C6E2D6A2BC050
:103BC000E6FFE66E2DC0E6FF35EC37F0F56E12002D
:103BD000FD0EDBCF2BF0FE0EDBCF2CF012002E0201
:103BE000F3CF2EF02D02F3CF2DF0F4502E26FD0E44
:103BF000DBCF2FF0FE0EDBCF30F01200D9CFE6FF87
:103C0000E1CFD9FF1200E552E7CFD9FF12002F0212
:103C1000F3CF2FF0F45030262D50F3242B6E2E507E
:103C200030201200160EDBCFE9FF170EDBCFEAFFC4
:103C30001200226E236A2BC01DF02CC01EF07EEFF6
:103C400035F0D950FB0FE96EFF0EDA20EA6E030E55
:103C50001200F90EDBCF2BF0FA0EDBCF2CF01200A6
:103C6000FD0EDBCF2DF0FE0EDBCF2EF01200F36E3B
:103C7000FE0EDBCFF4FFF350F45C1200E7CFDBFF66
:103C8000F00EF36E1200E7CFDBFF8850120095DFD5
:083C9000070EE15EF550120081
:083C9800536561726368696EF7
:103CA000672E2E2E0D0A005741524E494E473A209C
:103CB00047657450616E4F666673657446726F6DCA
:103CC0004F493A20207472696D3D25640D0072657C
:103CD0006C61792025642564202564256420256491
:103CE00025640D00256420527832204F766572726B
:103CF000756E204572726F727300256420527831A0
:103D0000204F76657272756E204572726F72730005
:103D1000256420527832204672616D696E675F4576
:103D200072726F727300256420527831204672617E
:103D30006D696E675F4572726F727300756E6B6E40
:103D40006F776E206F7074696F6E0D0020756E6BEB
:103D50006E6F776E206D656E75206B65790D004511
:103D60006E7465722027702720746F207072696EE0
:103D7000740D0044697361626C65640D0D004350FD
:103D8000552049646C65204379636C6573202D2050
:103D90004176672F4D696E3D20253664202F202502
:103DA00036640D000D0020253664004C61737446A6
:103DB0006F757249646C65436E74733A000D0D2A19
:103DC000092A092A092A092A092A092A092A092A5B
:103DD000092A092A092A0D00636865636B4F494661
:103DE0006F724B696C6C53776974636865732829CB
:103DF0003A206D46726F6E744B696C6C53773D253B
:103E0000642C206D526561724B696C6C53773D2553
:103E1000640D00466972696E6720627574746F6E16
:103E20003A20256425742051756575696E67206296
:103E30007574746F6E3A20256425740D006D537788
:103E40004C6F77476561720D006D53774869476520
:103E500061720D006D50574D5475727265744D6FDF
:103E6000746F723D25640D0D0062616C6C20696E8B
:103E7000207365632E20706F73203D2025640D0034
:103E800025730D0070776D30313D25642C207077DF
:103E90006D30323D25640A0054696D653A20256411
:103EA00073202533642F33380A0054696C74204121
:103EB0006E676C6520286465677265657329203DAF
:103EC0002025640D002050616E20416E676C6520D6
:103ED000286465677265657329203D2025640D009F
:103EE00053686F6F74696E6753706565643A202517
:103EF000640D00556E61646A757374656420436176
:103F00006D657261204572726F72203A2025642CB3
:103F100025640D0054757272657450574D3D2564CB
:103F20000D005475727265744572726F723D25642E
:103F30000D0043616D65726150726F704761696E0B
:103F40003D25640D006B50756C7365506F7765721D
:103F50003D25640D00696E204D6F76655475727253
:103F600065744175746F2C206572726F723D2564A3
:103F70000D000D427574746F6E20646F776E20664D
:103F80006F72202564207469636B730D0074757201
:103F900072657453706565643D25642C2070776D7F
:103FA0005475727265746D6F746F723D25640D0087
:103FB0006D54757272657443574C696D69743A201B
:103FC00025643B206D5475727265744343574C6988
:103FD0006D69743A2025640D004175746F466972ED
:103FE00065212121210D004175746F46697265219B
:103FF0002121210D000D456E64206F6620417574EE
:104000006F50686173653D25640D0054696D656F7F
:1040100075740D005374617274696E67206D6F76EC
:104020006520666F72202564207469636B730D00D0
:10403000536869667420696E746F204869676820E8
:10404000476561722C207475726E696E67206F6EA1
:104050002072656172206C6966740D005374617220
:1040600074696E67206175746F6E6F6D6F75732004
:104070006D6F64652E200077616974696E672E2EFE
:104080002E0D006C656674206175746F6E6F6D6FB8
:104090007573206D6F6465206561726C790D0041E8
:1040A00075746F6E6F6D6F75732070686173653AAC
:1040B0002025640D0025633A20456E636F646572A8
:1040C000202536643D706F73202536643D64706F23
:1040D0007320202533643D72706D20283173656331
:1040E0002073756D290D002533643D6761696E2C61
:1040F0002025366C643D61646A4761696E2C202519
:1041000034643D7370656564436F72726563742CCB
:1041100020256C643D6454696D650D0025633A206B
:104120002533643D696E7075742C202535643D72AD
:10413000706D2C202533643D442E4379636C652CCF
:1041400020202534643D696E28314B292C202534EC
:10415000643D72706D28314B292C202533643D65F8
:1041600072726F720D006D696E50574D3D25640D72
:10417000004C6F7374207461726765740D00253391
:10418000643D6761696E2C2025366C643D61646A0C
:104190004761696E2C202534643D73706565644306
:1041A0006F7272656374696F6E2C20256C643D7745
:1041B0006865656C5469636B730D0025633A20254F
:1041C00033643D696E7075742C202535643D7270C2
:1041D0006D2C202533643D70776D2C2020253464B0
:1041E0003D696E28314B292C202534643D72706D59
:1041F00028314B292C202533643D6572726F720D76
:0D420000006B4D696E50574D3D25640D005B
:02420E00F00EB0
:10421000E66E13EC35F0E552938A93889386938487
:1042200099829980938E938C9A849A8299869984A4
:104230009A8A9A8894809A869A8E9A8CB0EC1CF00E
:10424000000EE66EE66AE66EE66AE66EE66AE66E20
:10425000E66A4EEC19F0F56E080EE15EF55062EC80
:1042600031F07AEC31F09FEC32F0AEEC33F00F012C
:10427000010E416F000EE66E0F0EE66E0CEC19F0AB
:10428000E552E55293EF18F0200EE66E0F0EE66E43
:10429000F3EC18F0E552E552C1EC1CF05CD9B40E19
:1042A000E66E010EE66E1AEC08F0E552E552890E54
:1042B000E66E010EE66E1AEC08F0E552E5520000DB
:1042C000000014D902019FA310D0BD0E2B6E3D0E2D
:1042D0002C6E2D6A2BC0E6FF2CC0E6FF2DC0E6FF3A
:1042E00035EC37F0E552E552E552B0EC1CF076ECD7
:1042F00004F002019FB1D1D902019FA106D08850DC
:10430000800B02E08D9401D08D8402019FB1C5D94C
:1043100024D871D902019FA702D027EC1DF017D82D
:10432000C4D80F01009F8850400B01E0008F7EEC45
:1043300004F0C8EC2AF002019FB1AFD9000EE66E7E
:104340000F0EE66E0CEC19F0E552E552120049EC46
:1043500039F053EC28F010EF26F0DBD9020EE126FD
:104360000101882B8051842781518523000E8623EB
:1043700087238251805D8351815904E280C182F19B
:1043800081C183F1070E02019B15E96EEA6A010EF5
:10439000D890E936EA36E806FBE1E10EE926010E9F
:1043A000EA2280C1EEFF81C1EDFF02019FAB3ED04A
:1043B000AB0E2B6E3D0EC2D9010EDE6EDD6ADECF76
:1043C0002BF0DDCF2CF02C3404E22B500808000E2B
:1043D0002C5428E3DE5002019B250F01E96EDD50CD
:1043E00002019C210F01EA6E070EE916000EEA1683
:1043F000010ED890E936EA36E806FBE1E10EE9263F
:10440000010EEA22EECFE6FFEFCFE6FFA60E2B6EFF
:104410003D0E8FD9050EE15EF550DF2A010ECFE388
:10442000DB2ACDD7A40E2B6E3D0E88D902019FAB9F
:1044300039D00D0100690169010188511BE088C173
:104440002BF02C6A2D6A2E6A84C11BF085C11CF0EA
:1044500086C11DF087C11EF088C120F02CC021F05C
:104460002DC022F02EC023F06FEC39F01BC000FDF0
:104470001CC001FD82C1E6FF83C1E6FF00CDE6FF5F
:1044800001CDE6FF7E0E2B6E3D0E53D9070EE15E89
:10449000F5500101886B88C184F1856B866B876B51
:1044A00082698369D9CFE1FF39D10F0121AF0BD0E8
:1044B00002019FA104D0730E2B6E3D0E37D91AEC6A
:1044C00030F025EC30F00F0121AD07D09BEC16F059
:1044D00002015C6F32EC30F002D090EC2AF05CC24A
:1044E000E6FF18EC13F0E5521200120012D9020E8A
:1044F000E12618D908E102019F51010B04E05F0E8B
:104500002B6E3D0E1BD9A4EC31F0DF6EDF5020E0A6
:10451000D8C2E6FFD9C2E6FFDFCFE6FFC3EC37F033
:10452000E552E552E552DF500D0AEDE06E0A08E073
:10453000130A04E04C0E2B6E3D0EE4D730D8E3D7BF
:104540000101E05102E0000E01D0010EE06FDBD767
:10455000D9CFE1FFE3D0E6D803E0DF51020B02E15F
:1045600002019F93DFD803E0DF51040B02E1020157
:104570009F95D8D803E0DF51080B02E102019F9715
:10458000D1D803E0DF51100B02E102019F99CAD894
:1045900003E0DF51200B02E102019F9B1200B9D81A
:1045A000E652A4EC31F0DF6EDF50730A1BE0170A0D
:1045B00016E0070A11E0010A0CE0030A07E0610AAD
:1045C00002E00D0A12E10101DF7113D00101DF7376
:1045D00010D00101DF750DD00101DF770AD0010194
:1045E000DF7907D00101DF7B04D03C0E2B6E3D0E3E
:1045F000A5D8E55293D08DD8E652DF6A02019B51CF
:104600009C1149E10F01485108E0260E2B6E3D0E2A
:104610008DD80F01486B060EDF6E0F01545108E074
:10462000100E2B6E3D0E82D80F01546B060EDF6EFE
:104630000F01475108E0FA0E2B6E3C0E77D80F01A0
:10464000476B060EDF6E0F01535108E0E40E2B6E30
:104650003C0E6CD80F01536B060EDF6EDFCF2BF0D4
:10466000000EE76E2B18E8AE02D02B3403D0E750D3
:10467000D8802B5403E30F0101950DD0DF06100EF7
:1046800002019B150F01010BF36EF346F346FB0E7F
:104690000115F310016FE55241D08C50040B01E07D
:1046A000010EE66EE66A8D50040B01E0010EE66E27
:1046B000E66A8C50020B01E0010EE66EE66A8D5050
:1046C000020B01E0010EE66EE66A8C50010BE66E0D
:1046D000E66A8D50010BE66EE66ACE0E2B6E3C0E3E
:1046E00028D80F0EE15EF55012002C6E2D6A2BC0FB
:1046F000E6FFE66E2DC0E6FF120035EC37F0E5521E
:10470000E552E552120005EC38F0E552E552E5526B
:104710001200D9CFE6FFE1CFD9FF1200E552E7CF73
:10472000D9FF12000101DF51010B1200DEDF7DEF26
:1047300023F0DBDF35EC37F0F56E1200D6DF83EFC8
:0247400023F064
:0E47420028DA02019FA50AD0000EE66EE66A94
:10475000E66EE66AB00E2B6E3F0E4BDA20DAFE0EE6
:10476000DB507F0F0F01096F02019FA510D00F01D1
:104770000951E66EE66AFE0EDBCF2BF02C6A2BBEEB
:104780002C681BDA8D0E2D6E3F0E3BDA08DA2DD227
:1047900001DA020EE1260D01006B2F0E016F0F01F1
:1047A0002251800B03E12251400B03E00201DC2B7C
:1047B0000CD00201DC5109E0DC51E66EE66A720EB3
:1047C0002B6E3F0EC8D90201DC6B0F012251800B0A
:1047D00001E0010E2B6E2251400B01E0010E2B5C1B
:1047E0000DE103D92B6E2C6A2BBE2C68F9D9DECFD4
:1047F000E6FFDDCFE6FF12D8E5520ED022AF03D0A0
:1048000001CD00FD06D022AD04D001CD00FD0D018B
:10481000006D00CDE6FF95DFE552B2D1BBD9020EA7
:10482000E126FD0EDBCF2DF0FE0EDBCF2EF0800E4D
:104830002E1406E0BBD92B6C2C1E000E2C2201D0AE
:10484000B5D9CED902019FA305D09DD9550E2B6EA7
:104850003F0E81D9B7D9D8902C5004E6020E2B5CBC
:10486000000E2C5810E3AED9D8902C5004E60E0E52
:104870002B5C000E2C5803E286D906D802D083D9CF
:1048800036D8E552E5527CD185D9E150FD0FE96E6D
:10489000FF0EDA20EA6EEE50ED1028E00201B4516E
:1048A0000AE1B55103E0B56B0A0E03D0010EB56FF6
:1048B000020EB46F01D0B40702019FA307D0160EF9
:1048C000E66EE66A450E2B6E3F0E45D90201B551E4
:1048D0000DE06CD92C3407E22B500008000E2C544C
:1048E00002E2950E01D0690E0F01096F7ED152D9F7
:1048F000030EE126DE6ADD6A120EF36E020EF3CFBE
:10490000DBFF02019FA30FD0DBCF2BF02C6A2BBE65
:104910002C6853D9320E2D6E3F0E1FD934D9220E7A
:104920002B6E3F0E18D9020EDBCF2BF02C6A2BBE5C
:104930002C68FD0EDBCF1DF0FE0EDBCF1EF02BC072
:1049400022F02CC023F0D8EC35F01BC0DEFF1CC0D9
:10495000DDFFDECF2DF0DDCF2EF00001800E2E1416
:1049600008E130D9050ED8902C322B32E804FBE157
:104970000FD028D9000E2B6C2C1E2C22050ED8909F
:104980002C322B32E804FBE12B6C2C1E000E2C2267
:1049900027D97F0EE66EE66A810EE66EE66812D9CA
:1049A0002D6A2E6A2CAE02D02D682E6806D92DC035
:1049B000E6FF2EC0E6FF7DEC1BF0F56E080EE15E13
:1049C000F550F3CFDEFFF4CFDDFF02019FA308D047
:1049D000DECFE6FFDDCFE6FF140E2B6E3F0EBBD819
:1049E000DFCFE6FFAEDEE552CBD0D4D8030EE12612
:1049F0000201015105E1DF6ADE52010EDD6E7FD05A
:104A0000DE52030EDD6E49EC27F0F350DF6EDFCF90
:104A10002BF02B3404E3FF0EDF02F35001D0DF5004
:104A2000E76E020EE7CFDBFFDBCF2BF0010EE76E68
:104A30002B18E8AE02D02B3403D0E750D8802B548B
:104A400003E3010EDB6A11D0020EDBCF2BF00C0E5C
:104A5000E76E2B18E8AE02D02B3403D0E750D88095
:104A60002B5403E3DE52020EDD6E02019FA547D0F8
:104A7000770E0201015D2B6E2C6A2BBE2C689DD82F
:104A80004F0E005D2D6E2E6A2DBE2E682DC0E6FFE6
:104A90002EC0E6FFF30E2F6E3E0E306E316A2FC031
:104AA000E6FFE66E31C0E6FF7AD85CC22BF02C6AD6
:104AB0002BBE2C6882D8E00E2D6E3E0E4ED80F0114
:104AC0000C512B6E2C6A7C0E2B5E000E2C5A410E64
:104AD0007ED87C0E44D8C50E2D6E3E0E3ED80F01FA
:104AE0000D512B6E2C6A900E2B5E000E2C5A190E57
:104AF0006ED8320E34D8AA0E2D6E3E0E2ED8010E70
:104B0000DBCFE6FF03D8E552DF503AD043D80201AD
:104B1000B92BFE0EDB50030A0CE0010A05E0020A85
:104B200017E10F01008B16D0B951E840E8403F0B68
:104B300002D0B9390F0B0F01010BF36EF346F346A8
:104B4000F346F346F346DF0E0015F310006F02D074
:104B50000F01009B4AD04DD85CD053D85AD0226E5A
:104B6000236AF3CF1DF02CC01EF07EEC35F01DC083
:104B70002BF01EC02CF01DC0E6FF1EC0E6FF120089
:104B8000D9CFE1FF32D0FD0EDBCFE6FFFE0EDBCF4B
:104B9000E6FF1200D9CFE6FFE1CFD9FF120035ECD6
:104BA00037F0F56E070EE15EF5501200FD0EDBCF1B
:104BB0002BF0FE0EDBCF2CF012002BC0E6FF2CC03A
:104BC000E6FF1200DECF2BF0DDCF2CF012002C021E
:104BD000F3CF2CF02B02F3CF2BF0F4502C26120045
:104BE0002BC0DEFF2CC0DDFF1200E552E7CFD9FF5E
:104BF00012002C6E2D6A2BC0E6FFE66E2DC0E6FF7C
:104C000012002E6E2F6A2DC0E6FFE66E2FC0E6FF63
:104C1000120035EC37F0F56E050EE15EF55012002E
:104C2000E2D90A0EE1260201BB510CE1010EBB6F75
:104C300001017C0EFE6F900EFF6FEAD9FFC1E6FF07
:104C400023D9E5520201BC510201A11904E102017C
:104C5000BD510201A21901E1FAD0A1C2BCF2A2C267
:104C6000BDF20201BA6B140E0201075D01E2B1D080
:104C70000201010EBE6FBA6F0101FE51DE6EDD6AE8
:104C800008D9060EF3CFDBFF070EF4CFDBFFCDD93B
:104C90002C3409E22B500608000E2C5404E2E6D90D
:104CA00019E1BBD917D0C1D9D8802C5004E7FA0E2E
:104CB0002B5CFF0E2C5807E2D9D90CE1040EDB68FF
:104CC000050EDB6807D0040EDB6A050EDB6A020EF8
:104CD0000201BA27040EDBCF2BF0050EDBCF2CF040
:104CE000D9CFE9FFDACFEAFF2B50EE262C50ED2288
:104CF0008BD901E6B2D908E3CAD92C3408E22B508B
:104D00007C08000E2C5403E27C0EDE6EDD6ADFCFE1
:104D1000FEF17ED901016CD9020101512B6E2C6A82
:104D2000770E2B5E000E2C5A080E2BC0DBFF090EEF
:104D30002CC0DBFF81D92C3409E22B500608000E71
:104D40002C5404E29CD919E168D917D075D9D880C0
:104D50002C5004E7FA0E2B5CFF0E2C5807E28FD97B
:104D60000CE1040EDB68050EDB6807D0040EDB6A7D
:104D7000050EDB6A040E0201BA271D681E68040EC8
:104D8000DBCF22F0050EDBCF23F0D8EC35F01CC0D2
:104D90002CF0D950020FE96EDACFEAFF1B50EE2655
:104DA0002C50ED221CD904E65E0E2B5C000E2C5814
:104DB00002E25E0E09D070D92C3407E22B50C208F3
:104DC000000E2C5402E2C20E3ED9020EDBCFFFF1E0
:104DD0003AD00201BF2BBF51060839E2BF6BBE05B6
:104DE00006E1BE6B7C0EDE6EDD6A900E1DD0010109
:104DF000FE51DE6EDD6AFCD807D901E62ED916E336
:104E00007C0EDE6EDD6AEBD804E6C20E2B5C000E73
:104E10002C5802E35E0E08D0E2D804E6C20E2B5CEA
:104E2000000E2C580AE3C20E0ED907D0EDD801E6C9
:104E300014D903E37C0EDE6EDD6ADFCFFEF1020ED5
:104E4000DBCFFFF1E5D8FFC1E6FF1ED8E552D9CF91
:104E5000E1FF08D1C8D8E6520201BA5102E1DF6A87
:104E60000AD0070EBA5D02E2010E04D0070EBA5D49
:104E700002E1020EDF6EEED00201BA511200B3D889
:104E8000FE0EDBCF0CFFEED0AED8FE0EDBCF0DFF5B
:104E9000E9D0A9D8040EE1263DD8E70F2B6E2C6A85
:104EA0002BBE2C68020E2BC0DBFF030E2CC0DBFFD9
:104EB0004F0E0201005D2D6E2E6A2DBE2E68020E71
:104EC000DB502D242B6E030EDB502E202C6E2BC0BE
:104ED000DEFFDD6E7F0EE66EE66A810EE66EE66848
:104EE000D6D82D6A2E6A2CAE02D02D682E682BC023
:104EF000E6FF2CC0E6FF2DC0E6FF2EC0E6FF7DECEE
:104F00001BF0F56E080EE15EF550F3CFDEFFF4CF37
:104F1000DDFF5DD068D8E6522CCFDFFF0C0EE66EC9
:104F2000D9CFE6FFDACFE6FFC8EC1BF0E552E55239
:104F3000E5527F0EDF5E040E2B6E236EDFCF1EF078
:104F400064EC35F01EC0DFFF02019FA519D0DFCF52
:104F50002BF02C6A2BBE2C682BC0E6FF2CC0E6FF82
:104F6000A70E2D6E3C0E2E6E2F6A2DC0E6FFE66E4C
:104F70002FC0E6FF35EC37F0F56E050EE15EF5501B
:104F800069D031D8020EE1260F010D512B6E2C6A2B
:104F9000900E2B5E000E2C5A2BC0DEFF2CC0DDFFC6
:104FA00016D0DBCF1EF02BC022F02CC023F07EECFD
:104FB00035F0040E1DC0DBFF050E1EC0DBFFD9500F
:104FC000040FE96EDACFEAFFEE50ED1012005FD861
:104FD0002BC0F3FF2CC0F4FFD9CFE1FF43D05CD846
:104FE000D8902C501200D9CFE6FFE1CFD9FF1200A4
:104FF000FF51E66ED950020FE96EDACFEAFFE552B3
:10500000E750EE6EED6A120042D8D8902C50120094
:10501000FEC1E6FF34DFE5521200010EF36E040E0E
:10502000F3CFDBFF050EDB6A1200060EDBCF2BF0A1
:10503000070EDBCF2CF01200080EDBCF2BF0090E91
:10504000DBCF2CF01200F36E020EF3CFDBFF030E6A
:10505000DB6A1200DF50E55205D07C0E2B5C000E9F
:105060002C581200E552E7CFD9FF1200030E2B6E29
:105070002C6A060EDBCF1DF0070ED1EF27F0080ECD
:105080002B6E2C6ADBCF1DF0090ED1EF27F0DECF9F
:105090002BF0DDCF2CF01200020EDBCF2BF0030E35
:0650A000DBCF2CF0120032
:0A50A6002DDA040EE1260201A051EC
:1050B0000AE1D1D8DF6EDF0404E10201010EA06F26
:1050C00002D0DF500108F6D9E76E010EE7CFDBFF13
:1050D000DB50000817E2030EDB6A010EDB50F36EB3
:1050E000030EDBCFF4FFF350F45C0CE2E5D9E76E7E
:1050F000020EE7CFDBFFDBCFE6FF07D8E552030E5A
:10510000DB2AEBD7D9CFE1FF01D2FBD90201A751AE
:10511000060A01E17FD0030A60E0060A2EE0010AD8
:1051200023E0030A01E096D0FE0EDB502B6E2C6AC2
:10513000FF0E2B1804E12C5002E1020E8AD0FE0E65
:10514000DB50410806E10201020E2B6F0201050E41
:1051500080D0FE0EDB504E0801E07CD00201020E32
:105160002B6F0201060E75D0FE0EDB50540870E165
:1051700002012A6B0201030E6CD002012A512B6E30
:105180002C6A080E2B5C000E2C580AE22A51EA6A9F
:10519000080FE96E020EEA22FE0EDBCFEFFF2A2B8C
:1051A0002A512B6E2C6A080E2B1854E12C5052E118
:1051B00008C200F209C201F20AC202F20BC203F2F3
:1051C0000CC204F20DC205F20EC206F20FC207F2C3
:1051D0000201A12B000EA2233BD0020E02012B5D87
:1051E00004E1FE0EDB50430824E0030E2B5D04E1D6
:1051F000FE0EDB504B081DE0040E2B5D09E1FE0E98
:10520000DB500D0805E10201A32B000EA42320D0E2
:1052100002011ED0020E02012B5D04E1FE0EDB50E6
:10522000430807E0030E2B5D06E1FE0EDB504B0842
:1052300002E12B2B0FD0040E2B5D09E1FE0EDB509B
:105240000D0805E10201A52B000EA62301D00201E5
:10525000010EA76F5BD155D9E6520201A80507E1FF
:1052600000D9050EE66E06D9E5520201A86BA90524
:105270000DE1A96B02012D6B010E2C6F2E6B2F6BB4
:10528000306B0201A36BA46BA56BA66B02012D050D
:1052900028E10201010EA35D000EA45905E30201FD
:1052A0002D6B2E6B2F6BC3D0010EA55D000EA65982
:1052B00003E302012C05BAD002010A0E2E5D000E96
:1052C0002F590BE3800E2C252B6E2C6A000E2C22FE
:1052D0002B062C5A2BC030F2AAD02E2B000E2F23D7
:1052E000A6D00201A36BA46BA56BA66B02012C5187
:1052F000120A01E19AD0030A01E180D0010A01E11A
:1053000077D01F0A6FE0010A67E0030A5FE0010A35
:1053100057E0070A4FE0010A45E0030A3DE0010AB1
:1053200035E00F0A2DE0010A25E0030A1DE0010A1D
:1053300015E0070A0DE0010A07E0030A01E077D053
:1053400090D80201020E01D0030E2C6F2D6B6FD08E
:10535000800EE66E290EC6D8040E63D0200EE66ECF
:10536000130EC0D8050E5DD0840EE66E2D0EBAD891
:10537000060E57D0800EE66E2A0EB4D8070E51D016
:10538000200EE66E2B0EAED8080E4BD0840EE66EC5
:105390002D0EA8D8090E45D0200EE66E120EA2D80A
:1053A0000A0E3FD0E66AE66A7DD8E552E552020170
:1053B0000B0E37D0800EE66E010E94D80C0E31D055
:1053C000800EE66E020E8ED80D0E2BD0800EE66E8D
:1053D000030E88D80E0E25D0010EE66E060E82D87A
:1053E0000F0E1FD0010EE66E100E7CD8100E19D0D5
:1053F000E66A4ED8E5520201110E13D0910EE66E08
:10540000640EE66E110EE66E0F0EE66E730EE66E1D
:10541000550EE66E16D8F56E060EE15EF5500201E9
:10542000120E2C6F010E2D6F02D0010E306F305115
:10543000000803E20201010EA96F02013051E5529A
:1054400065D05FD8540E54D8430E52D8060E62D899
:10545000FC0E52D8FB0E50D8FA0E4ED8F90E4CD88E
:1054600055D00D0E78EF2AF00201A06B1200020158
:10547000A051120046D8520E3BD84D0E39D8200EFE
:1054800037D8FE0EDB50300F33D80D0E31D83ED05A
:1054900038D84E0E2DD8460E2BD8010E29D8FE0E28
:1054A0002BD834D02ED8430E23D8520E21D8020E3A
:1054B00031D82CD09BEF31F0C2EF31F022D8FE0E64
:1054C000DBCFE6FFFAEC31F0E55220D092EF31F07D
:1054D000A4EF31F016D8FE0EDBCFE6FFE0EC31F0A2
:1054E000E55214D0E66EDEDFE552E552020112000D
:1054F000E66EE4DFE5521200DBCFE6FFDFDFE552C8
:105500001200D9CFE6FFE1CFD9FF1200E552E7CF75
:10551000D9FF1200EDDFFE0EEFDFFD0E7CEF2AF06B
:105520001ED83ED8AFD869D9C8EC23F002019FA39A
:105530000AD08850400B01E0010EE66EE66A690E63
:105540002B6E3E0EDAD902019FA308D00F0109513C
:10555000E66EE66A540E2B6E3E0ECFD912000F0196
:1055600022A109D00201C081490E2B6E3E0E9BD9AB
:10557000E552E552E5520F0122A309D00201C09184
:105580003D0E2B6E3E0E8FD9E552E552E5521200CC
:105590008C908D900201C0A18C80C0B18D801200D2
:1055A000A7D9080EE126DE6ADD6A020EDB6A030E69
:1055B000DB6A040EDB6A050EDB6A060EDB6A070E89
:1055C000DB6A27CFE6FF64EC1CF0E5522B6E2C6AF9
:1055D0002BBE2C682BC0DEFF2CC0DDFF26CFE6FFE4
:1055E00064EC1CF0E5522B6E2C6A2BBE2C6873D930
:1055F000020EDBCF2DF0030EDBCF2EF0DE502D247C
:105600002B6EDD502E2058D9060E1DC0DBFF070E75
:105610001EC0DBFFDECF2DF0DDCF2EF0020EDB5003
:105620002D5C2B6E030EDB502E5846D9040E1DC088
:10563000DBFF050E1EC0DBFF040EDBCF2DF0050ED9
:10564000DBCF2EF0060EDB502D242B6E070EDB5029
:105650002E202C6E2BC0DEFFDD6E060EDBCF2DF074
:10566000070EDBCF2EF0040EDB502D5C2B6E050EEB
:10567000DB502E582C6E2FD9DFCF5EFF020EDBCF12
:105680005FFF30D102015F6B5FC25DF25FC25EF20D
:1056900066D856D826D876D86ED87BD87F0E020129
:1056A0005E250F01066F7F0E02015D250F01076F5A
:1056B0007F0E0201D8805F550F01086F12000201B2
:1056C0006E51000E000903E0010E6A6F6B6B6F51A3
:1056D000000E000903E0010E6B6F6A6B6E6B6F6B5F
:1056E00012000F012351400B09E12251200B03E06E
:1056F0008850400B03E00201706B120002019FA36F
:1057000015D00F012251200B01E0010EE66EE66A72
:105710002351400B01E0010EE66EE66A130E2B6E7C
:105720003E0EC1D8F56E070EE15EF5500201500E37
:105730005F6F702B70AB03D05D6B5DC25EF21200C9
:105740000201610506E1320E5D6F5E6B8D928C8207
:105750001200320E5E6F5D6B8D828C9212000F0113
:1057600023A502D00201616B0F0123A703D0020120
:10577000010E616F12000F0123AB03D00201CE0EA8
:105780005D6F12000F0123A903D00201E70E5E6FC7
:10579000120002019FA314D00F012251080B01E057
:1057A000010EE66EE66A2351800B01E0010EE66E03
:1057B000E66AD80E2B6E3D0E76D8F56E070EE15ECA
:1057C0000F0123AF02D002015E6B0F0122A702D0AE
:1057D00002015D6B1200280E0F012D5D03E20D0129
:1057E000006B09D0780E2D5D04E20D01010E006FF3
:1057F00002D00D010069005112007AD8E652EBDFA9
:10580000DF6EDF50FF0A0AE0FF0A05E0010A09E146
:105810009BEC16F004D002015C6B03D007D80201A8
:105820005C6FE552E552E7CFD9FF120061D8020E56
:10583000E12628CFDFFF120EE66ED9CFE6FFDACFE2
:10584000E6FFC8EC1BF0E552E552E552DF502B6E47
:105850002C6AFE0ED8802B56000E2C56D8902C3277
:105860002B32010E2BC0DBFF7F0EE66EE66A210EA7
:10587000E66EE66A010EDBCF2BF02C6A2D6A2E6AEB
:105880002BC0E6FF2CC0E6FF2DC0E6FF2EC0E6FFD2
:105890007DEC1BF0F56E080EE15EF550010EF3CFC6
:1058A000DBFFDB501FD02C6E2D6A2BC0E6FFE66EAF
:1058B0002DC0E6FF35EF37F02C6E020E226E236A04
:1058C0002BC01DF02CC01EF07EEC35F01DC02BF05F
:1058D0001EC02CF01200020E2BC0DBFF030E2CC0EA
:1058E000DBFF1200D9CFE1FFE552E7CFD9FF12006D
:1058F000D9CFE6FFE1CFD9FF1200D5DFF56E050E57
:06590000E15EF55012000B
:0A590600A5D9FA0EDBCF84F2F90EEA
:10591000DBCF85F20201836BBBD9FD0EDBCF88F2B2
:10592000FE0EDBCF89F28A6B8B6B89AF02D08A695E
:105930008B69C60EE96E010EEA6EEE5001019B5DA9
:105940002B6EEE509C592C6EEE509D592D6EEE50E4
:105950009E5974D9FD0EFE0EDBCF2CF00001800E97
:105960002C1402E1010E01D0000E0201816F826B46
:10597000000EE76E8419E8AE02D0843503D0E750FC
:10598000D880845511E3000EE76E8519E8AE02D089
:10599000853503D0E750D880855506E3873502E288
:1059A0006AD902E3030E826F815102E1856D01D055
:1059B000846D54D14ED9040EE1260201825102E0D9
:1059C000825136D0873501E256D903E3020E826F49
:1059D0002FD056D9EE500101A35D2B6EEE50A45985
:1059E0002C6EEE50A5592D6EEE50A65913D9E8AE87
:1059F00002D08B3501D036D902E3000E01D0010E62
:105A00002B6E810502E0000E01D0010E2B5C0DE132
:105A100084C2E6FF88EC08F0E55285C2E6FF98EC08
:105A200008F0E5520201826B02D0010E826F8251B2
:105A3000D9CFE1FF13D10DD9FA0EDBCF83F228D9EC
:105A4000FE0EDBCF2CF0800E2C1402E1000E01D0F4
:105A5000010E0201816FFD0EDBCF2BF0FE0EDBCFBE
:105A60002CF0FD0EDB502B24886FFE0EDB502C201B
:105A7000896F8A6B8B6B89AF02D08A698B69C60E7E
:105A8000E96E010EEA6E01019B51EE242B6E9C51D2
:105A9000EE202C6E9D51EE202D6E9E51EE20CED824
:105AA000826B000EE76E8319E8AE02D0833503D017
:105AB000E750D880835506E3873502E2DCD802E35D
:105AC000030E826FCBD0C5D8080EE12602018251A9
:105AD00054E1873501E2CFD803E3020E826F4ED046
:105AE000CFD80101A351EE242B6EA451EE202C6ED1
:105AF000A551EE202D6EA651EE208CD8E8AE02D036
:105B00008B3501D0AFD802E3000E01D0010E2B6E11
:105B1000815102E0000E01D0010E2B5C2BE181517E
:105B200003E183C22BF004D083C22BF000012B6C65
:105B30002C6A2BBE2C68060E2BC0DBFF070E2CC078
:105B4000DBFF060EDBCF1DF0070EDBCF1EF0040ED1
:105B50001DC0DBFF050E1EC0DBFF040EDBCFE6FF22
:105B600088EC08F0E552060EDBCFE6FF98EC08F073
:105B7000E55202D0010E826F02018251D9CFE1FFBE
:105B80006DD067D80101800ED31509E0D2C12BF08A
:105B9000D3C12CF02B6C2C1E000E2C2204D0D2C1B1
:105BA0002BF0D3C12CF0FE0EDBCF2DF02E6A2DBED4
:105BB0002E682E502C18E8AE02D02C3404D02B5076
:105BC0002D5C2C502E5822E30101800EA81509E00F
:105BD000A7C12FF0A8C130F02F6C301E000E30226C
:105BE00004D0A7C12FF0A8C130F0FE0EDBCF31F0FA
:105BF000326A31BE326832503018E8AE02D03034EA
:105C000004D02F50315C3050325802E2000E01D0E7
:105C1000010E24D02E6E2BC0DFFF010E2CC0DBFF47
:105C2000020E2DC0DBFF030E2EC0DBFFD9CFE9FF34
:105C3000DACFEAFFEB5002018B1912002E6E2B50C7
:105C4000020188272C5089232D508A232E508B2324
:105C50001200D9CFE6FFE1CFD9FF1200E552E7CF1E
:105C6000D9FF12008851EE5C8951EE588A51EE58E6
:105C70008B51EE58120086510008000E8755120015
:105C80008607000E875BCE0EE96E010EEA6E1200EB
:0E5C9000FB0EDBCF86F2FC0EDBCF87F212009C
:025C9E00000EF6
:105CA000E96EEA6E04005CEC2EF0EA2A080EEA5C6B
:105CB000D8A452EF2EF01200EF6AE93E5CEF2EF00E
:105CC0001200FF0EE3CF09F009380F0B060FD8B210
:105CD000070F2A0FAD6E9DEC34F009500F0B060F25
:105CE000D8B2070F2A0FAD6E9DEC34F0000C1200F5
:105CF000EACF04F0E9CF05F0FF0EE3CFEAFFFE0E96
:105D0000E3CFE9FF40A741D0EECFA0F0EECFA1F066
:105D1000EECFA2F0EECFA3F0EECFA4F0EECFA5F041
:105D2000EECFA6F0EECFA7F0EECFA8F0EECFA9F021
:105D3000EECFAAF0EECFABF0EECFACF0EECFADF001
:105D4000EECFAEF0EECFAFF0EECFB0F0EECFB1F0E1
:105D5000EECFB2F0EECFB3F0EECFB4F0EECFB5F0C1
:105D6000EECFB6F0EECFB7F0EECFB8F0EECFB9F0A1
:105D7000EECFBAF0EECFBBF0EECFBCF0EECFBDF081
:105D8000EECFBEF0EECFBFF040D0EECF80F0EECF42
:105D900081F0EECF82F0EECF83F0EECF84F0EECF45
:105DA00085F0EECF86F0EECF87F0EECF88F0EECF25
:105DB00089F0EECF8AF0EECF8BF0EECF8CF0EECF05
:105DC0008DF0EECF8EF0EECF8FF0EECF90F0EECFE5
:105DD00091F0EECF92F0EECF93F0EECF94F0EECFC5
:105DE00095F0EECF96F0EECF97F0EECF98F0EECFA5
:105DF00099F0EECF9AF0EECF9BF0EECF9CF0EECF85
:105E00009DF0EECF9EF0EECF9FF004C0EAFF05C0FC
:105E1000E9FF120040A11200EACF04F0E9CF05F03B
:105E2000FF0EE3CFEAFFFE0EE3CFE9FF40A941D02A
:105E3000C0C0EEFFC1C0EEFFC2C0EEFFC3C0EEFFA8
:105E4000C4C0EEFFC5C0EEFFC6C0EEFFC7C0EEFF88
:105E5000C8C0EEFFC9C0EEFFCAC0EEFFCBC0EEFF68
:105E6000CCC0EEFFCDC0EEFFCEC0EEFFCFC0EEFF48
:105E7000D0C0EEFFD1C0EEFFD2C0EEFFD3C0EEFF28
:105E8000D4C0EEFFD5C0EEFFD6C0EEFFD7C0EEFF08
:105E9000D8C0EEFFD9C0EEFFDAC0EEFFDBC0EEFFE8
:105EA000DCC0EEFFDDC0EEFFDEC0EEFFDFC0EEFFC8
:105EB00040D0E0C0EEFFE1C0EEFFE2C0EEFFE3C085
:105EC000EEFFE4C0EEFFE5C0EEFFE6C0EEFFE7C088
:105ED000EEFFE8C0EEFFE9C0EEFFEAC0EEFFEBC068
:105EE000EEFFECC0EEFFEDC0EEFFEEC0EEFFEFC048
:105EF000EEFFF0C0EEFFF1C0EEFFF2C0EEFFF3C028
:105F0000EEFFF4C0EEFFF5C0EEFFF6C0EEFFF7C007
:105F1000EEFFF8C0EEFFF9C0EEFFFAC0EEFFFBC0E7
:105F2000EEFFFCC0EEFFFDC0EEFFFEC0EEFFFFC0C7
:105F3000EEFF04C0EAFF05C0E9FF1200F2B4120050
:105F400016500F0AD8B41200FF0EE3CF0AF0FE0E6F
:105F5000E3CF0BF0FD0EE3CF0CF0FC0EE3CF0DF022
:105F60000A2A16A08D8E0B2A16A28F800C2A16A440
:105F70008F860D2A16A68F880E6A0F6A106A116A1C
:105F8000F1EC2FF00A2EC7EF2FF016A08D9E0B2EEE
:105F9000CCEF2FF016A28F900C2ED1EF2FF016A47D
:105FA0008F9600000D2ED7EF2FF016A68F980000C9
:105FB0000E2EDCEF2FF0129000000F2EE1EF2FF0ED
:105FC00012920000102EE6EF2FF012940000112E16
:105FD000EBEF2FF0129613EC30F0133EC2EF2FF0E0
:105FE0001200D70E136E000000000000000009EC44
:105FF00030F0132EF3EF2FF0D70E136E00000000D9
:106000000000000009EC30F0132EFEEF2FF000002E
:10601000120000000CEF30F0000000000000000053
:10602000000000001200030E146E0000142E15EF85
:0460300030F012003A
:0C6034000201AD91AA6912000201AA51FC
:1060400012000201AA69AD8112000201AA5101E108
:106050001200ADA103D0030EAA6F1200AA6BAC6BA5
:10606000AB6B1200D9CFE6FFE1CFD9FF030EE126DB
:1060700014D902014B0E5C6F02019FA30AD0ABC280
:106080002BF02C6A2BBE2C680FD99F0E2D6E400E64
:10609000F6D80F0121BD05D0D4DF830E2B6E400E44
:1060A000E9D8FBD8F5EC24F0DF6EDFCF2BF02C6ABB
:1060B0002BBE2C68F9D80EEC24F0E552E5520D0108
:1060C000006B00CD01FD0201B15106E0B107770E72
:1060D0002B6E400ECFD887D0AB51040A4FE0070A91
:1060E00034E0010A1EE0030A0CE0010A03E0AA51B1
:1060F0004FE14DD05C0E2B6E400EBCD8EFEC1CF087
:1061000022D00201C0810201010E616F300E2B6EA0
:10611000400EB0D80D01010E006F0201130EB16FD9
:1061200037D0890E0D01066F076B4C0E066F076B9B
:10613000E66E07CDE6FF140E2B6E400EBAD8F56E54
:10614000050EE15EF5500D0116D00D01073513E285
:1061500006510008000E07550EE2720EF36E020E95
:10616000F3CFDBFF0607000E075B020EDBCF5FFFFE
:106170005FCF5EFF0DD0010E006F0AD0020E2B6EB6
:10618000010EDB502B5C04E1260EAF6F01D0AA6933
:10619000020E0D01015D07E10201020EAA6F0B0E56
:1061A0002B6E400E67D80D0100510CE0ABC22BF0F6
:1061B0002C6A2BBE2C6878D8F50E2D6E3F0E5FD85A
:1061C000EFEC1CF00D0100510EE0640E0201E76ED1
:1061D000AB19E8AE02D0E73402D0E750AB5D02E382
:1061E000AA6905D0AB2B0D01005101E068D702016F
:1061F000AF51000807E2AF070F01238DE70E2B6EAA
:106200003F0E38D80201AA5101E0AD8142EC2BF0DB
:106210000201AA51D9CFE1FFE552E7CFD9FF120021
:106220002AEC27F0020811E10201B22B020EE76E00
:10623000B219E8AE02D0E73402D0E750B25D07E30E
:10624000020EB26F260EB36F02D00201B26B000EC7
:10625000E76EB319E8AE02D0B33503D0E750D8806B
:10626000B35507E2B3070F01238DD90E2B6E3F0EF6
:1062700001D812001ED8E552E552E55212002E6EEA
:106280002F6A2DC0E6FFE66E2FC0E6FF35EC37F033
