:020000040000FA
:0608000056EF18F0120093
:02080600982D2B
:060808004FEF0CF012009E
:02080E00C250D6
:08081000020B01E0010E1200D1
:060818007EEF16F0120055
:02081E000400D4
:1008200032310000F0070000010000002E3100000E
:10083000EA0700000400000006080000EE070000C0
:10084000020000002A310000E6070000040000005A
:10085000D9CFE6FFE1CFD9FFFD0EDB50AD6E8DECB9
:1008600013F0E552E7CFD9FF1200D9CFE6FFE1CF71
:10087000D9FF080EE126DE6ADD6A200EF36E020E55
:10088000F3CFDBFF030EDB6AFB0EDBCF2BF0FC0E9E
:10089000DBCF2CF02C3404E22B500008000E2C543B
:1008A0005AE2040EDB6A050EDB6AFD0EDBCF1DF09B
:1008B000FE0EDBCF1EF0060E1DC0DBFF070E1EC0B6
:1008C000DBFF060EDBCFE9FF070EDBCFEAFFEF50C1
:1008D0000BE0040EDB2A050E01E3DB2A060EDB2A01
:1008E000070E01E3DB2AEDD7040EDBCF2BF0050E5C
:1008F000DBCF2CF0FB0EDBCF2DF0FC0EDBCF2EF090
:100900002C502E18E8AE02D02E3404D02D502B5C83
:100910002E502C5805E3FB0EDB6AFC0EDB6A10D070
:10092000040EDBCF2BF0050EDBCF2CF0D950FB0FE4
:10093000E96EFF0EDA20EA6E2B50EE5E2C50ED5A77
:10094000F90EDB50020B07E0300EF36E020EF3CF10
:10095000DBFF030EDB6AF90EDB50010B20E1FB0E1F
:10096000DBCF2BF0FC0EDBCF2CF02C3404E22B5031
:100970000008000E2C5413E2020EDBCFE6FF030E3C
:10098000DBCFE6FF65DFE552E552DF2A010E01E32A
:10099000DB2AFB0EDB06FC0E01E2DB06E0D7FD0ED8
:1009A000DBCFE9FFFE0EDBCFEAFFEF501CE0FD0ED0
:1009B000DBCFE9FFFE0EDBCFEAFFEFCF2BF02C6A97
:1009C0002BBE2C682BC0E6FF2CC0E6FF41DFE552B2
:1009D000E552DF2A010E01E3DB2AFD0EDB2AFE0EC3
:1009E00001E3DB2ADCD7FB0EDBCF2BF0FC0EDBCFE9
:1009F0002CF02C3404E22B500008000E2C5413E28F
:100A0000020EDBCFE6FF030EDBCFE6FF21DFE55270
:100A1000E552DF2A010E01E3DB2AFB0EDB06FC0EAA
:100A200001E2DB06E0D7DECF2BF0DDCF2CF02BC0D0
:100A3000F3FF2CC0F4FFF56E080EE15C03E200D07A
:100A4000E16AE552E16EF550E552E7CFD9FF1200B9
:100A5000D9CFE6FFE1CFD9FF0A0EE126040EDB6A0B
:100A6000050EDB6A060EDB6A070EDB6AFD0EDBCFC6
:100A70001DF0FE0EDBCF1EF0080E1DC0DBFF090EC1
:100A80001EC0DBFF0701BE0E996FEF0EAD6FD95090
:100A9000FD0FE96EFF0EDA20EA6EEE50ED1019E15F
:100AA000300E996F9A6BF50EDBCFE6FFF60EDBCFBB
:100AB000E6FFF70EDBCFE6FFF80EDBCFE6FF990E81
:100AC000E66E070EE66ED1DEF56E060EE15EF550BF
:100AD00023D1D950F90FE96EFF0EDA20EA6EEE50FD
:100AE000ED102CE0D950FB0FE96EFF0EDA20EA6E14
:100AF0000A0EEE1801E1ED5021E1FD0EDBCF2BF0E7
:100B0000FE0EDBCF2CF00001800E2C1417E0010E3E
:100B1000F36E040EF3CFDBFF050EDB6A1D681E6863
:100B2000FD0EDBCF22F0FE0EDBCF23F002EC16F041
:100B3000080E1BC0DBFF090E1CC0DBFFAD0E2B6EC9
:100B4000070E2C6E2B06000E2C5A2BC0DEFF2CC07D
:100B5000DDFFDECFE9FFDDCFEAFFEF6AD950080FF6
:100B6000E96EDACFEAFFEE50ED106FE0080EDBCF52
:100B70001DF0090EDBCF1EF0FB0EDBCF22F0FC0ECA
:100B8000DBCF23F040EC18F0020E19C0DBFF030EA0
:100B90001AC0DBFF020EDBCF2BF0030EDBCF2CF0F5
:100BA000D8902C5004E60A0E2B5C000E2C5817E34C
:100BB000F30EDBCF2BF0F40EDBCF2CF0300E2B5EE0
:100BC000000E2C5A0A0E2B5E000E2C5AD950020F22
:100BD000E96EDACFEAFF2B50EE262C50ED22300ED4
:100BE000E76E020EDBCF2BF0030EDBCF2CF0E750CD
:100BF0002B26000E2C22D9CFE9FFDACFEAFFEE0632
:100C0000ED5AEECFF3FFEDCFF4FFF3CFE9FFF4CFD2
:100C1000EAFF2BC0EFFFFB0EDBCF2BF0FC0EDBCF90
:100C20002CF0D950080FE96EDACFEAFF2BC022F082
:100C30002CC023F0EECF1DF0EDCF1EF040EC18F0ED
:100C40001DC0EEFF1EC0EDFF89D7D950040FE96E1D
:100C5000DACFEAFFEE50ED102FE0D950F70FE96E32
:100C6000FF0EDA20EA6EEE50ED1015E0F50EDB50C7
:100C7000020B11E02D0EE66EE66AEADDE552E55262
:100C8000060EDB2A070E01E3DB2AF70EDB06F80E61
:100C900001E2DB0611D0D9CFE9FFDACFEAFFEE0699
:100CA000000EED5AEECFF3FFEDCFF4FFF3CFE9FFE7
:100CB000F4CFEAFF2D0EEF6E060EDBCF2DF0070E00
:100CC000DBCF2EF02DC0E6FF2EC0E6FFF50EDBCF0A
:100CD000E6FFF60EDBCFE6FFF70EDBCFE6FFF80E02
:100CE000DBCFE6FFDECFE6FFDDCFE6FFBEDDF56E54
:100CF000060EE15EF550E552E7CF2EF0E552E7CF64
:100D00002DF02D50F3242B6E2E50F4202C6E2BC082
:100D1000F3FF2CC0F4FF00D0F56E0A0EE15C02E296
:100D2000E16AE552E16EF550E552E7CFD9FF1200D6
:100D3000D9CFE6FFE1CFD9FF2E0EE1262C0EDB6ADC
:100D40002D0EDB6AFD0EDBCFE9FFFE0EDBCFEAFFE7
:100D5000EF5001E119D3FD0EDBCFE9FFFE0EDBCF33
:100D6000EAFFEF50250801E0E0D2FD0EDB2AFE0E7F
:100D700001E3DB2A2A0EDB6A2B0EDB6AD950280F2F
:100D8000E96EDACFEAFFEE6AED6AFD0EDBCFE9FF2E
:100D9000FE0EDBCFEAFFEF5001E1F6D2FD0EDBCF16
:100DA000E9FFFE0EDBCFEAFFEF50250801E1BDD2DF
:100DB000FD0EDBCFE9FFFE0EDBCFEAFFEF502D0883
:100DC0000CE1FD0EDB2AFE0E01E3DB2A010EF36EC1
:100DD0002A0EF3CFDBFF2B0EDB6AFD0EDBCFE9FF24
:100DE000FE0EDBCFEAFFEF5030080DE1FD0EDB2AEF
:100DF000FE0E01E3DB2AD9502A0FE96EDACFEAFFB3
:100E0000EE82ED52EAD7FD0EDBCFE9FFFE0EDBCF1F
:100E1000EAFFEFCF2BF0300E2B5C30E3FD0EDBCF83
:100E2000E9FFFE0EDBCFEAFFEF50390827E3D95088
:100E3000280FE96EDACFEAFF0A0EEC02F3CFEDFFDE
:100E4000EF02F3CFEEFFF450ED26FD0EDBCFE9FF0E
:100E5000FE0EDBCFEAFFEF50D00F2B6E2C6AD9507D
:100E6000280FE96EDACFEAFF2B50EE262C50ED2248
:100E7000FD0EDB2AFE0E01E3DB2AC5D7FD0EDBCF1C
:100E8000E9FFFE0EDBCFEAFFEF50730861E1D950B6
:100E9000FB0FE96EFF0EDA20EA6EEECFF3FFEDCF27
:100EA000F4FF020EEE5E000EEF5AF3CFE9FFF4CF2F
:100EB000EAFFEECF2BF0EFCF2CF02D6A2BC0E6FF30
:100EC0002CC0E6FF2DC0E6FFD9CFE6FFDACFE6FF64
:100ED000D6EC17F0F56E050EE15EF550DF5015E12A
:100EE000EEC72BF0EFC72CF02D6A2BC0E6FF2CC00D
:100EF000E6FF2DC0E6FFD9CFE6FFDACFE6FFD6EC5E
:100F000017F0F56E050EE15EF5502A0EDBCFE6FF19
:100F10002B0EDBCFE6FF280EDBCFE6FF290EDBCF63
:100F2000E6FFD9CFE6FFDACFE6FF9FDCF56E060ECF
:100F3000E15EF550F3CF2BF0F4CF2CF0D9502C0F0D
:100F4000E96EDACFEAFF2B50EE262C50ED2216D2B6
:100F5000FD0EDBCFE9FFFE0EDBCFEAFFEF506408AA
:100F60003EE1610EE66EE66A2A0EDBCFE6FF2B0E4F
:100F7000DBCFE6FF280EDBCFE6FF290EDBCFE6FF57
:100F8000010EE66EE66A0A0EE66EE66AD950FB0FBF
:100F9000E96EFF0EDA20EA6EEECFF3FFEDCFF4FF3D
:100FA000020EEE5E000EEF5AF3CFE9FFF4CFEAFF38
:100FB000EECFE6FFEFCFE6FF4BDDF56E0C0EE15E08
:100FC000F550F3CF2BF0F4CF2CF0D9502C0FE96E65
:100FD000DACFEAFF2B50EE262C50ED22CFD1FD0EBA
:100FE000DBCFE9FFFE0EDBCFEAFFEF5078083EE1F2
:100FF000610EE66EE66A2A0EDBCFE6FF2B0EDBCF34
:10100000E6FF280EDBCFE6FF290EDBCFE6FF000E62
:10101000E66EE66A100EE66EE66AD950FB0FE96EE0
:10102000FF0EDA20EA6EEECFF3FFEDCFF4FF020EF3
:10103000EE5E000EEF5AF3CFE9FFF4CFEAFFEECFFA
:10104000E6FFEFCFE6FF04DDF56E0C0EE15EF55036
:10105000F3CF2BF0F4CF2CF0D9502C0FE96EDACF70
:10106000EAFF2B50EE262C50ED2288D1FD0EDBCF6F
:10107000E9FFFE0EDBCFEAFFEF5058083EE1410EDC
:10108000E66EE66A2A0EDBCFE6FF2B0EDBCFE6FF2D
:10109000280EDBCFE6FF290EDBCFE6FF000EE66E63
:1010A000E66A100EE66EE66AD950FB0FE96EFF0E97
:1010B000DA20EA6EEECFF3FFEDCFF4FF020EEE5E24
:1010C000000EEF5AF3CFE9FFF4CFEAFFEECFE6FFD1
:1010D000EFCFE6FFBDDCF56E0C0EE15EF550F3CF11
:1010E0002BF0F4CF2CF0D9502C0FE96EDACFEAFFB9
:1010F0002B50EE262C50ED2241D1FD0EDBCFE9FF27
:10110000FE0EDBCFEAFFEF5075083EE1610EE66EA2
:10111000E66A2A0EDBCFE6FF2B0EDBCFE6FF280EBA
:10112000DBCFE6FF290EDBCFE6FF000EE66EE66AB8
:101130000A0EE66EE66AD950FB0FE96EFF0EDA2062
:10114000EA6EEECFF3FFEDCFF4FF020EEE5E000E7F
:10115000EF5AF3CFE9FFF4CFEAFFEECFE6FFEFCF90
:10116000E6FF76DCF56E0C0EE15EF550F3CF2BF06A
:10117000F4CF2CF0D9502C0FE96EDACFEAFF2B50C8
:10118000EE262C50ED22FAD0FD0EDBCFE9FFFE0E4D
:10119000DBCFEAFFEF506C0801E081D0610EE66E14
:1011A000E66A2A0EDBCFE6FF2B0EDBCFE6FF280E2A
:1011B000DBCFE6FF290EDBCFE6FF000EE66EE66A28
:1011C000100EE66EE66AD950FB0FE96EFF0EDA20CC
:1011D000EA6EEECFF3FFEDCFF4FF020EEE5E000EEF
:1011E000EF5AF3CFE9FFF4CFEAFFEECFE6FFEFCF00
:1011F000E6FF2EDCF56E0C0EE15EF550F3CF2BF022
:10120000F4CF2CF0D9502C0FE96EDACFEAFF2B5037
:10121000EE262C50ED22610EE66EE66A2A0EDBCF3A
:10122000E6FF2B0EDBCFE6FF280EDBCFE6FF290E15
:10123000DBCFE6FF000EE66EE66A100EE66EE66AAB
:10124000D950FB0FE96EFF0EDA20EA6EEECFF3FF06
:10125000EDCFF4FF020EEE5E000EEF5AF3CFE9FF82
:10126000F4CFEAFFEECFE6FFEFCFE6FF28EC05F084
:10127000F56E0C0EE15EF550F3CF2BF0F4CF2CF0B1
:10128000D9502C0FE96EDACFEAFF2B50EE262C5006
:10129000ED22FD0EDB2AFE0E01E3DB2A6FD0FD0EF0
:1012A000DBCFE9FFFE0EDBCFEAFFEF5062083CE147
:1012B000610EE66EE66A020EE66EE66A280EDBCF87
:1012C000E6FF290EDBCFE6FF000EE66EE66A020EB1
:1012D000E66EE66AD950FB0FE96EFF0EDA20EA6E81
:1012E000EECFF3FFEDCFF4FF020EEE5E000EEF5AED
:1012F000F3CFE9FFF4CFEAFFEECFE6FFEFCFE6FF53
:1013000028EC05F0F56E0C0EE15EF550F3CF2BF0F6
:10131000F4CF2CF0D9502C0FE96EDACFEAFF2B5026
:10132000EE262C50ED222AD029D0FD0EDBCFE9FF8E
:10133000FE0EDBCFEAFFEF500A0808E1FD0EDBCF1F
:10134000E9FFFE0EDBCFEAFF0D0EEF6EFD0EDBCFE9
:10135000E9FFFE0EDBCFEAFFEFCF2BF02C6A2BBEAE
:101360002C682BC0E6FF2CC0E6FF28EC04F0E55209
:10137000E5522C0EDB2A2D0E01E3DB2AFD0EDB2AC3
:10138000FE0E01E3DB2ADED42C0EDBCF2BF02D0E7C
:10139000DBCF2CF02BC0F3FF2CC0F4FFF56E2E0E2C
:1013A000E15C03E200D0E16AE552E16EF550E552FE
:1013B000E7CFD9FF1200D9CFE6FFE1CFD9FF020E68
:1013C000E126D950FD0F2B6EFF0EDA202C6E2BC0BC
:1013D000DEFF2CC0DDFFFD0EDBCF2BF0FE0EDBCFE2
:1013E0002CF02D6A2BC0E6FF2CC0E6FF2DC0E6FFD7
:1013F000000EE66E070EE66ED6EC17F0F56E050EE3
:10140000E15EF550D9CFE9FFDACFEAFF020EEE5EDA
:10141000000EEF5ADECFE6FFDDCFE6FF000EE66EF0
:10142000070EE66E85DCE552E552E552E552F56EB3
:10143000020EE15C03E200D0E16AE552E16EF55094
:10144000E552E7CFD9FF1200D9CFE6FFE1CFD9FFB0
:10145000610EE66EE66A020EE66EE66A040EE66E5F
:10146000E66A010EE66EE66A0A0EE66EE66AFD0EB2
:10147000DBCFE6FFFE0EDBCFE6FF28EC05F0F56ED6
:101480000C0EE15EF550D950FB0FE96EFF0EDA202D
:10149000EA6EEE50ED1007E00D0EE66EE66A28ECFF
:1014A00004F0E552E552E552E7CFD9FF1200D9CF5B
:1014B000E6FFE1CFD9FF610EE66EE66A020EE66E48
:1014C000E66A030EE66EE66A010EE66EE66A0A0E4C
:1014D000E66EE66AFE0EDBCFE6FFE66A28EC05F074
:1014E000F56E0C0EE15EF550D950FC0FE96EFF0E63
:1014F000DA20EA6EEE50ED1007E00D0EE66EE66AB9
:1015000028EC04F0E552E552E552E7CFD9FF12008E
:10151000D9CFE6FFE1CFD9FF610EE66EE66A020E93
:10152000E66EE66A100EE66EE66A000EE66EE66AA3
:10153000020EE66EE66AFD0EDBCFE6FFFE0EDBCFA7
:10154000E6FF28EC05F0F56E0C0EE15EF550D95083
:10155000FB0FE96EFF0EDA20EA6EEE50ED1007E0A9
:101560000D0EE66EE66A28EC04F0E552E552E5520F
:10157000E7CFD9FF1200D9CFE6FFE1CFD9FF610E47
:10158000E66EE66A020EE66EE66A080EE66EE66A49
:10159000000EE66EE66A020EE66EE66AFE0EDBCF2F
:1015A000E6FFE66A28EC05F0F56E0C0EE15EF550FC
:1015B000D950FC0FE96EFF0EDA20EA6EEE50ED1006
:1015C00007E00D0EE66EE66A28EC04F0E552E552FF
:1015D000E552E7CFD9FF1200D9CFE6FFE1CFD9FF1F
:1015E000610EE66EE66A000EE66EE66A020EE66ED2
:1015F000E66A000EE66EE66A100EE66EE66AFD0E1C
:10160000DBCFE6FFFE0EDBCFE6FF28EC05F0F56E44
:101610000C0EE15EF550D950FB0FE96EFF0EDA209B
:10162000EA6EEE50ED1007E00D0EE66EE66A28EC6D
:1016300004F0E552E552E552E7CFD9FF1200D9CFC9
:10164000E6FFE1CFD9FF610EE66EE66A020EE66EB6
:10165000E66AE66EE66A000EE66EE66A100EE66E72
:10166000E66AFE0EDBCFE6FFE66A28EC05F0F56ED3
:101670000C0EE15EF550D950FC0FE96EFF0EDA203A
:10168000EA6EEE50ED1007E00D0EE66EE66A28EC0D
:1016900004F0E552E552E552E7CFD9FF1200D9CF69
:1016A000E6FFE1CFD9FFFD0EDBCF2BF0FE0EDBCF47
:1016B0002CF02D6A2BC0E6FF2CC0E6FF2DC0E6FF04
:1016C000000EE66E070EE66ED6EC17F0F56E050E10
:1016D000E15EF5500701AF6BB06B000EE66E070ED2
:1016E000E66EEFEC17F0E552E552F3CF2BF0F4CFB6
:1016F0002CF007012B50AF5D2C50B05918E2000EB2
:10170000AF25E96E070EB021EA6EEFCF2BF02C6A01
:101710002BBE2C682BC0E6FF2CC0E6FF28EC04F0A3
:10172000E552E5520701AF2B000EB023D6D7010ECC
:10173000E66EE66AFB0EDBCFE6FFFC0EDBCFE6FFD4
:101740004BDFE552E552E552E552E552E7CFD9FFCE
:101750001200D9CFE6FFE1CFD9FFFD0EDBCF2BF092
:10176000FE0EDBCF2CF02D6A2BC0E6FF2CC0E6FF6F
:101770002DC0E6FF000EE66E070EE66ED6EC17F003
:10178000F56E050EE15EF5500701AF6BB06B000E14
:10179000E66E070EE66EEFEC17F0E552E552F3CF7A
:1017A0002BF0F4CF2CF007012B50AF5D2C50B0592B
:1017B00018E2000EAF25E96E070EB021EA6EEFCFFA
:1017C0002BF02C6A2BBE2C682BC0E6FF2CC0E6FF4A
:1017D00028EC04F0E552E5520701AF2B000EB023D0
:1017E000D6D7010EE66EE66AFB0EDBCFE6FFFC0EF7
:1017F000DBCFE6FF8DDEE552E552E552E552E552DC
:10180000E7CFD9FF1200D9CFE6FFE1CFD9FFFD0E18
:10181000DBCF2BF0FE0EDBCF2CF02D6A2BC0E6FFCA
:101820002CC0E6FF2DC0E6FF000EE66E070EE66E4A
:10183000D6EC17F0F56E050EE15EF5500701AF6BC3
:10184000B06B000EE66E070EE66EEFEC17F0E55299
:10185000E552F3CF2BF0F4CF2CF007012B50AF5D06
:101860002C50B05918E2000EAF25E96E070EB021DA
:10187000EA6EEFCF2BF02C6A2BBE2C682BC0E6FF54
:101880002CC0E6FF28EC04F0E552E5520701AF2B2F
:0E189000000EB023D6D7E552E7CFD9FF1200E5
:02189E00DACF9F
:1018A000E4FFE2CFDAFFE9CFE4FFEACFE4FFE6525C
:1018B000F2A202D098D802D09EB6C4D8E552E5CFA5
:1018C000EAFFE5CFE9FFE5CFDAFF1100E66A010E96
:1018D000E66E050EE66E40EC17F0E552E552E55275
:1018E0001200070EB46E000E886E876E866E856ECF
:1018F000846E836E826E816E806E916E906E8F6E3E
:101900008E6E8D6E8C6E8B6E8A6E896E9268936809
:10191000BF0E946E956A700E966E9F0E976EE40ED3
:10192000986E0F0E996E9A68C16E070EC06EF19E8A
:10193000B0989C8EA26A9F6AA06A9D6AA36AA56AF3
:10194000C5DF9F86D08E9E969D869382F06AF28830
:10195000F09EF098F192F09AF16AF28CF28E1200F9
:10196000D9CFE6FFE1CFD9FFE652BBDF0701989759
:10197000989907015C0EDA6F070EDB6FDF6A100EB5
:10198000DF5C0AE2DF50EA6ADA25E96EDB51EA221F
:101990007F0EEF6EDF2AF3D70701756B010E766FAE
:1019A000C90E776F0701988507017A6B7B6B07017A
:1019B000586B5A6B5B6B010ED56E800ED76EF90EAD
:1019C000D66ED59E580EE66E070EE66EABD8E55283
:1019D000E552E552E552E7CFD9FF120082828088B6
:1019E000949292981200F2920701200ED66F9F8671
:1019F000070198A906D00701E00ED36F000ED46F3F
:101A000005D00701C00ED36F000ED46F070198A157
:101A1000987998A706D00701800ED16F000ED26F7B
:101A200005D00701A00ED16F000ED26FC9CFD7F736
:101A3000D1C7E9FFD2C7EAFFD12B000ED223EF5066
:101A4000C96E12009E96C9CFD7F70701D65100087C
:101A500024E2D3C7E9FFD4C7EAFFD32B000ED42377
:101A6000D7C7EFFFD1C7E9FFD2C7EAFFD12BD223F7
:101A7000EFCFD7F7D7C7C9FFD607D6510DE107017A
:101A800098810701020E766F07019893800ED76E3A
:101A9000F90ED66EF294D58E01D0C96A1200D9CF54
:101AA000E6FFE1CFD9FF070198A138D098A906D069
:101AB0000701C00ECF6F000ED06F05D00701E00EFA
:101AC000CF6F000ED06FFD0EDBCFD8F7FE0EDBCF51
:101AD000D9F7D56B200ED55D14E2D551EA6ACF2532
:101AE000E96ED051EA22EF50E66ED8C7E9FFD9C7B8
:101AF000EAFFD82B000ED923E552E750EF6ED52B25
:101B0000E9D79D96070198919D860F0E0001165DFD
:101B100005E06EC7E6FFF8EC14F0E552E552E7CFBA
:101B2000D9FF1200D9CFE6FFE1CFD9FF070198B363
:101B300038D0020E0701765D01E17ED8070198A733
:101B400006D00701A00ECF6F000ED06F05D00701A1
:101B5000800ECF6F000ED06FFD0EDBCFDAF7FE0EDA
:101B6000DBCFDBF7D56B200ED55D14E2DAC7E9FFDA
:101B7000DBC7EAFFDA2B000EDB23EF50E66ED55110
:101B8000EA6ACF25E96ED051EA22E552E750EF6EBE
:101B9000D52BE9D79D960701987798839D860701F5
:101BA000752BE552E7CFD9FF12009D96070198915A
:101BB0009D861200D9CFE6FFE1CFD9FF0001166B59
:101BC000D950FD0FE96EFF0EDA20EA6E010EEE1815
:101BD00001E1ED5002E1168101D0BA6AD950FB0F44
:101BE000E96EFF0EDA20EA6E010EEE1801E1ED500B
:101BF00002E1168301D0B76AD950F90FE96EFF0EE2
:101C0000DA20EA6E010EEE1801E1ED5002E11685D0
:101C100001D0736AD950F70FE96EFF0EDA20EA6E31
:101C2000010EEE1801E1ED5002E1168701D0706A55
:101C3000E552E7CFD9FF12000701746B6F6BC6AE98
:101C400004D0C69E010E6F6F0ED0F150800B06E0DF
:101C5000F250080B03E0020E6F6F05D0F0A603D020
:101C6000909E030E6F6F250EC614250805E0010E29
:101C7000746FC6CF6FF768D0C55005E0020E746F61
:101C8000C5CF6FF761D0D0BE05D0030E746FD0CF33
:101C90006FF75AD09DB605D0040E746F9DCF6FF7C5
:101CA00053D09C5005E0050E746F9CCF6FF74CD05D
:101CB000080E9F5C05E0060E746F9FCF6FF744D04F
:101CC000A25005E0070E746FA2CF6FF73DD0A5506C
:101CD00005E0080E746FA5CF6FF736D0500EF214E2
:101CE000500805E0090E746FF2CF6FF72DD0470E44
:101CF000F11405E00A0E746FF1CF6FF725D0C00E16
:101D0000F01405E00B0E746FF0CF6FF71DD092A8A2
:101D100005D00C0E746F92CF6FF716D093B005D02C
:101D20000D0E746F93CF6FF70FD03E0E94141C08F6
:101D300005E00E0E746F94CF6FF706D097BE04D0F7
:0A1D40000F0E746F97CF6FF71200BB
:061D4A00D9CFE6FFE1CF56
:101D5000D9FFE6520701200EC06F030EC16F010EBE
:101D6000C46F020EC56F100EC26FC36BDF6AC45121
:101D7000DF5C10E2DF50040DF3CFE9FFF4CFEAFFA0
:101D8000C60EE926070EEA22EE6AEE6AEE6AEE6AEF
:101D9000DF2AEDD7CC6BCD6BCE6B010EC26EC45D6E
:101DA00008E3C4510E0805E30F0ED880C455C16E78
:101DB00001D0C16A860EC06E9F9C9E9C9D8CC0C740
:101DC000E6FFC1C7E6FF14D8E552E552E552E552F9
:101DD000E7CFD9FF1200D9CFE6FFE1CFD9FFE65216
:101DE0005FD89D9CC26AE552E552E7CFD9FF120049
:101DF000D9CFE6FFE1CFD9FFFD0EDBCF1DF0FE0E00
:101E0000DBCF1EF01D5002E1190E1E183BE0800EC4
:101E10001D1802E10C0E1E1830E0400E1D1802E1E4
:101E2000060E1E1825E0200E1D1802E1030E1E18D6
:101E30001AE0900E1D1802E1010E1E180FE0C80EE8
:101E40001D1801E11E5005E06A0ECA6EDD0ECB6E54
:101E50001ED06A0ECA6EDD0ECB6E19D0520ECA6E3F
:101E60008C0ECB6E14D0520ECA6E450ECB6E0FD0B8
:101E7000510ECA6E8C0ECB6E0AD0510ECA6E450E34
:101E8000CB6E05D0500ECA6E8C0ECB6E00D0CC6AD5
:101E90009F929E929D82CA84E552E7CFD9FF12009D
:101EA0009D92CA941200D9CFE6FFE1CFD9FF020E6E
:101EB000E126FE0EDBCF2BF00701C451D8802B5456
:101EC00012E39D9CFE0EDB04E96EEA6AD890E936C7
:101ED000EA36CA0EE926070EEA22EECFDEFFEDCF84
:101EE000DDFF9D8C02D0DE6ADD6ADECF2BF0DDCF18
:101EF0002CF02BC0F3FF2CC0F4FFF56E020EE15C5A
:101F000003E200D0E16AE552E16EF550E552E7CF19
:101F1000D9FF1200D9CFE6FFE1CFD9FFFD0EDBCF0D
:101F20002BF0FE0EDBCF2CF02D6A2E6A880E206E71
:101F3000130E216E226A236A2BC01BF02CC01CF0EA
:101F40002DC01DF02EC01EF008EC17F017C02BF0AE
:101F500018C02CF019C02DF01AC02EF0206A100EF7
:101F6000216E226A236A2BC01BF02CC01CF02DC0EE
:101F70001DF02EC01EF0CEEC15F01BC02BF01CC0C7
:101F80002CF01DC02DF01EC02EF02BC0F3FF2CC076
:101F9000F4FF00D0E552E7CFD9FF1200D9CFE6FF1A
:101FA000E1CFD9FFE6529D9CF0C7DFFF9D8CDF504B
:101FB00000D0E552E552E7CFD9FF12009D9C070102
:101FC000F06B9D8C1200C2821200D9CFE6FFE1CFE8
:101FD000D9FF050EE126C450DE6EDD6AD9CFE9FFD8
:101FE000DACFEAFFEE50ED6EEF6AC350DE26000E48
:101FF000DD22DECF2BF0DDCF2CF02D6A2E6A07011B
:10200000CE51040DF3CFE9FFF4CFEAFFC60EE92667
:10201000070EEA222B50EE262C50EE222D50EE22F7
:102020002E50EE22CE2BC451CE5D04E3CE6BCC2BD2
:10203000000ECD23020ECEC7DBFFDB50040D020ED7
:10204000F3CFDBFFDB80DB50C26EC251CC5DC351EE
:10205000CD5901E283D0030EDB6A040EDB6A030E66
:10206000DBCF2BF0040EDBCF2CF00701C4510001B5
:102070002CAE02D0D89003D02B5C000E2C583AE244
:10208000030EDBCFE9FF040EDBCFEAFFD890E93681
:10209000EA36D890E936EA36C60EE926070EEA2275
:1020A0000701C5511F0BEECF2BF0EECF2CF0EECF7A
:1020B0002DF0EECF2EF007E0D8902E322D322C32BC
:1020C0002B32E806F9E1030EDBCFE9FF040EDBCF8C
:1020D000EAFFD890E936EA36CA0EE926070EEA2268
:1020E0002BC0EEFF2CC0EDFF030EDB2A040E01E334
:1020F000DB2AB5D7030EDB6A040EDB6A030EDBCFE7
:102100002BF0040EDBCF2CF00701C45100012CAEE4
:1021100002D0D89003D02B5C000E2C581AE2030E8C
:10212000DBCFE9FF040EDBCFEAFFD890E936EA36D1
:10213000D890E936EA36C60EE926070EEA22EE6A9C
:10214000EE6AEE6AEE6A030EDB2A040E01E3DB2A76
:10215000D5D70701F02B0701CC6BCD6BF56E050EC3
:10216000E15C02E2E16AE552E16EF550E552E7CF4B
:04217000D9FF120081
:0C217400D9CFE6FFE1CFD9FF07016E696B
:10218000D950FD0FE96EFF0EDA20EA6EEE50ED1029
:1021900001E16E91D950FB0FE96EFF0EDA20EA6E75
:1021A000EE50ED1001E16E93D950F90FE96EFF0E7C
:1021B000DA20EA6EEE50ED1001E16E95D950F70F7E
:1021C000E96EFF0EDA20EA6EEE50ED1001E16E9737
:1021D000D950F50FE96EFF0EDA20EA6EEE50ED10E1
:1021E00001E16E99D950F30FE96EFF0EDA20EA6E25
:1021F000EE50ED1001E16E9BD950F10FE96EFF0E2C
:10220000DA20EA6EEE50ED1001E16E9DD950EF0F2D
:10221000E96EFF0EDA20EA6EEE50ED1001E16E9FDE
:10222000E552E7CFD9FF1200D9CFE6FFE1CFD9FFC2
:10223000020EE126ED0EDE6E2D0EDD6E928692848C
:1022400092829280FB0EE66E7FEC14F0E552978846
:1022500097849780998E998A978C97869782928A8D
:10226000998C9988978A8E968E92899A909C90984C
:102270008E9A07017F0E636F63C762F763C761F7CA
:1022800063C760F763C75FF763C75EF763C75DF750
:1022900063C75CF7010EE66EE66AE66EE66AE66E16
:1022A000E66AE66EE66AE66EE66AE66EE66AE66E9E
:1022B000E66AE66EE66A5EDFF56E100EE15EF550E8
:1022C000000EE66EE66AE66EE66AE66EE66AE66EC0
:1022D000E66ADAEC0DF0F56E080EE15EF55071EC91
:1022E00014F033EC12F0A5EC0EF0580EE66E070E6B
:1022F000E66E92EC0DF0E552E552EEEC0CF0F56E68
:10230000020EE15C02E2E16AE552E16EF550E5524F
:10231000E7CFD9FF1200D9CFE6FFE1CFD9FF080EF2
:10232000E1260701E62B000EE723E82BE9230A0E3E
:10233000E81901E1E95108E1D30EE66E2D0EE66ED3
:10234000DBEC09F0E552E55207013C0EE81901E12A
:10235000E95102E1D9EC12F02C0E0701E81902E173
:10236000010EE9190CE1E5EC12F01BEC13F0CD0EB7
:10237000E66E2D0EE66EDBEC09F0E552E552070144
:102380001E0EE65D000EE75952E32C0EE85D010ECD
:10239000E9594DE307EC13F0060EF3CFDBFF070E10
:1023A000F4CFDBFF3AEC12F0F3CFDEFFF4CFDDFF2A
:1023B00090EC12F0020E1BC0DBFF030E1CC0DBFF13
:1023C000040E1DC0DBFF050E1EC0DBFF060EDBCFBB
:1023D000E6FF070EDBCFE6FFBE0EE66E2D0EE66EC5
:1023E000DBEC09F0E552E552E552E552DECFE6FFBF
:1023F000DDCFE6FFAF0EE66E2D0EE66EDBEC09F0EC
:10240000E552E552E552E552020EDBCFE6FF030E40
:10241000DBCFE6FF9F0EE66E2D0EE66EDBEC09F0DD
:10242000E552E552E552E5520701E66BE76B780E9F
:10243000E66E070EE66E4FEC0DF0E552E552580ED3
:10244000E66E070EE66E92EC0DF0E552E552F56E83
:10245000080EE15C02E2E16AE552E16EF550E552F8
:06246000E7CFD9FF1200D6
:0A2466000701B56BB66BB76BB86BDE
:10247000BF6B1200B3C71BF0B4C71CF01D6A1E6A05
:102480001CAE02D01D681E68740E206E050E216EF3
:10249000226A236A08EC17F017C01BF018C01CF062
:1024A00019C01DF01AC01EF0050E206E216A226AA6
:1024B000236A08EC17F017C01BF018C01CF019C0F5
:1024C0001DF01AC01EF0206A100E216E226A236AC7
:1024D000CEEC15F01BC02BF01CC02CF0E80E2C022B
:1024E000F3CF2CF0030E2B02F3502C26E80E2B0218
:1024F000F3CF2BF0F4502C26E80E226E030E236E41
:102500002BC01DF02CC01EF0A8EC15F01DC02BF048
:102510001EC02CF02BC0F3FF2CC0F4FF00D0120023
:10252000B5C71BF0B6C71CF0B7C71DF0B8C71EF083
:10253000740E206E050E216E226A236A08EC17F0D5
:1025400017C01BF018C01CF019C01DF01AC01EF0F7
:10255000050E206E216A226A236A08EC17F017C064
:102560001BF018C01CF019C01DF01AC01EF0206A24
:10257000200E216E030E226E236ACEEC15F0E80EBB
:10258000206E030E216E226A236A08EC17F017C032
:102590001BF018C01CF019C01DF01AC01EF0E80E88
:1025A000206E030E216E226A236ACEEC15F000D055
:1025B00012000701BF5108E1B96BBA6BBB6BBC6B72
:1025C000BD6BBE6B010EBF6F12000701BF051EE1A0
:1025D000BDC72BF0BEC72CF02D6A2E6AB9C71BF001
:1025E000BAC71CF0BBC71DF0BCC71EF02BC020F043
:1025F0002CC021F02DC022F02EC023F0FDEC17F0EE
:102600001BC0B1F71CC0B2F70701BF6B1200B1C706
:10261000F3FFB2C7F4FF00D01200D9CFE6FFE1CF3D
:10262000D9FFFD0EDBCFB1F7FE0EDBCFB2F7E552DF
:10263000E7CFD9FF12000701B56BB66BB76BB86B6C
:102640001200D9CFE6FFE1CFD9FF020EE126070144
:10265000BF0517E1010EE66E53EC0FF0E552F3CF24
:102660002BF0F4CF2CF000012B500701B92700010B
:102670002C500701BA23000EBB23BC23BD2BBE2365
:1026800040D0010EE66E53EC0FF0E5520701B15158
:10269000F35C2B6EB251F4582C6E2BC0DEFF2CC0B5
:1026A000DDFFDECF2BF0DDCF2CF0D8802C5004E7FF
:1026B000F80E2B5CFF0E2C580BE3DECF2DF0DDCF98
:1026C0002EF02E3404E22D500808000E2E5417E28E
:1026D000DECFB3F7DDCFB4F7DECF2BF0DDCF2CF0BC
:1026E0002D6A2E6A2CAE02D02D682E682B50B5278D
:1026F0002C50B6232D50B7232E50B82302D0B36BE5
:10270000B46BF56E020EE15C02E2E16AE552E16E45
:0A271000F550E552E7CFD9FF1200A3
:06271A009EB802D0FDD7BD
:10272000FCD71200D9CFE6FFE1CFD9FFFE0EDBCFF9
:10273000E6FFE2EC14F0E5520D0EAD6EEEDFE55271
:10274000E7CFD9FF1200D9CFE6FFE1CFD9FF0701CC
:10275000D950FD0F506FFF0EDA20516F010EEA6A5B
:102760005025E96E5151EA22EF50E66EE2EC14F08A
:10277000E55250C7E9FF51C7EAFFEF50E66EE2ECC1
:1027800014F0E5520D0EAD6EC8DFE552E7CFD9FF6C
:102790001200D9CFE6FFE1CFD9FFFD0EDBCF2BF042
:1027A000FE0EDBCF2CF02D6A2BC0E6FF2CC0E6FF1F
:1027B0002DC0E6FF000EE66E070EE66ED6EC17F0B3
:1027C000F56E050EE15EF550000EE66E070EE66E44
:1027D000EFEC17F0E552E552F3CF54F7F4CF55F78D
:1027E0000701553504E254515008000E555503E2D7
:1027F000500E546F556B566B576B57515519E8AEC9
:1028000002D0553504D05451565D555157590EE2FA
:10281000000E5625E96E070E5721EA6EEF50AD6E99
:102820007CDF0701562B000E5723E7D7E552E7CF91
:10283000D9FF1200D9CFE6FFE1CFD9FF0701526BD4
:102840001A0E525D11E2FD0EDBCFE9FFDB2AFE0E10
:10285000DBCFEAFF01E3DB2AEF50E66EE2EC14F097
:10286000E5520701522BECD70D0EAD6E56DFE55247
:10287000E7CFD9FF12000701780E506F070E516F96
:10288000070178510701EA6FEB6BEC51EA1902E19D
:10289000ED51EB1918E0070198A502D098950FD0DB
:1028A000ECC7E6FFE2EC14F0E552EAC7E6FFE2EC23
:1028B00014F0E5520D0EAD6E30DF07019895EAC7B2
:1028C000ECF7EBC7EDF70701EC2B000EED23ED3530
:1028D00004E2EC51FF08000EED5502E2EC6BED6BEB
:1028E0001200150EE66E3C0EE66E73EC17F0E55224
:1028F000E552320EE66E66EC18F0E5521200D9CFC2
:10290000E6FFE1CFD9FFFE0EDBCF53F7E552E7CF6D
:10291000D9FF1200D9CFE6FFE1CFD9FF020EE126A1
:10292000FE0EDB507F0BFE0BFD0BE66E53C7E6FF82
:10293000A5EC17F0E552E5520A0EE66E85EC18F0AC
:10294000E55293EC18F007EC04F0000901E0FBD726
:1029500021EC18F090EC18F0C4502D6E2DC02EF024
:102960002D6AC35000012D102B6E2EC02CF02BC0F1
:10297000DEFF2CC0DDFFDECF2BF0DDCF2CF02BC037
:10298000F3FF2CC0F4FFF56E020EE15C03E200D011
:10299000E16AE552E16EF550E552E7CFD9FF12004A
:1029A000000EE96EEA6E0400DDEC14F0EA2A080E6F
:1029B000EA5CD8A4D3EF14F01200EF6AE93EDDEF31
:1029C00014F01200FF0EE3CF09F009380F0B060FC9
:1029D000D8B2070F2A0FAD6E8DEC13F009500F0B14
:1029E000060FD8B2070F2A0FAD6E8DEC13F0000C56
:1029F000FF0EE3CF15F015B0968E15A0969E15B27A
:102A0000988015A2989015B4988615A4989615B636
:102A1000988815A6989815B8968015A8969015BA16
:102A2000968215AA969215BC968415AC969415BEFE
:102A3000968615AE96961200F2B4120016500F0A42
:102A4000D8B41200FF0EE3CF0AF0FE0EE3CF0BF076
:102A5000FD0EE3CF0CF0FC0EE3CF0DF00A2A16A01A
:102A60008D8E0B2A16A28F800C2A16A48F860D2A13
:102A700016A68F88FB0EE3CF0EF0FA0EE3CF0FF011
:102A8000F90EE3CF10F0F80EE3CF11F00E2A8D808F
:102A90000F2A8D82102A8D84112A8D867FEC15F0E5
:102AA0000A2E55EF15F016A08D9E0B2E5AEF15F03D
:102AB00016A28F900C2E5FEF15F016A48F960000D3
:102AC0000D2E65EF15F016A68F9800000E2E6AEFFA
:102AD00015F08D9000000F2E6FEF15F08D92000015
:102AE000102E74EF15F08D940000112E79EF15F073
:102AF0008D96A1EC15F0133E50EF15F01200D70E95
:102B0000136E000000000000000097EC15F0132E7B
:102B100081EF15F0D70E136E0000000000000000DA
:102B200097EC15F0132E8CEF15F00000120000004A
:102B30009AEF15F000000000000000000000000007
:102B40001200030E146E0000142EA3EF15F01200F5
:102B5000256A23AEB1EF15F0226C231EE86A23220A
:102B6000251E1EAEB9EF15F01D6C1E1EE86A1E2252
:102B7000251E40EC18F01EBEC9EF15F025AE000C66
:102B80001D6C1E1EE86A1E22196C1A1EE86A1A22A3
:102B9000000C25BEC0EF15F02688FF0C256AE86AF8
:102BA00023AEDBEF15F0206C211E221E231E2122F6
:102BB00022222322251E1EAEE6EF15F01B6C1C1EE2
:102BC0001D1E1E1E1C221D221E22251EFDEC17F09E
:102BD0001EBEFDEF15F025AE000C1B6C1C1E1D1E4D
:102BE0001E1EE86A1C221D221E22176C181E191EAA
:102BF0001A1E182219221A22000C25BEEDEF15F01C
:102C00002688FF0C1EC02AF01DC029F01D5022028C
:102C1000F4CF1CF0F3CF1BF01E502302F4CF1EF0B4
:102C2000F3CF1DF02202F3501C26F4501D22E86A57
:102C30001E2229502302F3501C26F4501D22E86A5C
:102C40001E2223AE28EF16F029501D5E2A501E5A70
:0E2C50002AAE000C22501D5E23501E5A000CAE
:022C5E001E0E48
:102C6000F66E080EF76E000EF86E07010900F550BB
:102C7000E16F0900F550E26F03E1E16701D03DD05B
:102C80000900F550DC6F0900F550DD6F0900F550C3
:102C9000DE6F09000900F550E96E0900F550EA6E93
:102CA000090009000900F550DF6F0900F550E06FD9
:102CB00009000900F6CFE3F7F7CFE4F7F8CFE5F71F
:102CC000DCC7F6FFDDC7F7FFDEC7F8FF0701DF53FC
:102CD00002E1E05307E00900F550EE6EDF07F8E28D
:102CE000E007F9D7E3C7F6FFE4C7F7FFE5C7F8FF4A
:0C2CF0000701E107000EE25BBFD71200F5
:042CFC00D8CFE4FF4A
:102D0000E0CFE4FFE46EDACFE4FFE2CFDAFFE9CF11
:102D1000E4FFEACFE4FFF3CFE4FFF4CFE4FF00EEFB
:102D20002BF0040EE80403E3EECFE4FFFBD7E652FA
:102D30009E50400B06E09D50400B03E09E9CE5EC4E
:102D40000FF09E50020B06E09D50020B03E09E9296
:102D5000E3EC0FF0E55200EE2EF0040EE80403E37E
:102D6000E5CFEDFFFBD7E5CFF4FFE5CFF3FFE5CFF0
:102D7000EAFFE5CFE9FFE5CFDAFFE550E5CFE0FF79
:102D8000E5CFD8FF1000CEEC0FF0000904E021ECF5
:082D900013F0DEEC0FF012005D
:082D9800286E756C6C290047E0
:102DA00079726F20416E676C653D25640D0D0020C2
:102DB0004779726F20526174653D25640D0020478C
:102DC00079726F20426961733D25640D00446F6E16
:102DD000650D000D43616C63756C6174696E6720ED
:102DE0004779726F20426961732E2E2E0049464941
:102DF00020557365722050726F636573736F722014
:102E0000496E697469616C697A6564202E2E2E00A2
:102E10001B502002F3CF17F0F4CF18F02102F3502B
:102E20001826000EF420196E1B502202F3501926AA
:102E3000000EF4201A6E1B502302F3501A261C5069
:102E40002002F3501826F4501922000E1A221C50AA
:102E50002102F3501926F4501A221C502202F3507A
:102E60001A261D502002F3501926F4501A221D5024
:102E70002102F3501A261E502002F3501A26120087
:102E8000D9CFE6FFDACFE6FFE1CFD9FFE2CFDAFF15
:102E90003F0EC716C66AFD0EDB50C612FB0EDB5096
:102EA000C712FC0EDB50030A09E0010A04E0020A23
:102EB00006E1C78C04D0C78CC68801D0C688FD0E39
:102EC000DB50050A03E0010A04E1928A9486C79E5A
:102ED00001D09496949A9488C68AE552E5CFDAFF99
:062EE000E7CFD9FF12004C
:0A2EE600D9CFE6FFDACFE6FFE1CF17
:102EF000D9FFE2CFDAFFAC6AAB6AFD0EDBB0AC887B
:102F0000DBA202D0AC8CAB8CDBB4AC8EDBA602D0E7
:102F1000AB8801D0AB8ADBA802D0AC8401D0AC94E2
:102F2000DBAC02D09D8A01D09D9ADBAE02D09D8899
:102F300001D09D98FC0EDB50AF6EAC8AAB8EE55293
:0A2F4000E5CFDAFFE7CFD9FF12005A
:062F4A00D9CFE6FFDACF4B
:102F5000E6FFE1CFD9FFE2CFDAFFC26AC16AC06AF9
:102F6000FC0EDB407F0B3C0BC26EFD0EDB500F0BEB
:102F70002B6EFC0EDB38F00B300B2B10C16EFD0EF0
:102F8000DB380F0B070B2B6EFD0EDB50800B2B106D
:102F9000C06EFC0EDBAE03D09E9C9D8CF28CC2807A
:0C2FA000E552E5CFDAFFE7CFD9FF1200C1
:042FAC00FB0EE3CF66
:102FB000F6FFFC0EE3CFF7FFFD0EE3CFF8FFFE0EAA
:102FC000E3CFE9FFFF0EE3CFEAFFE9CFF3FFEACF5C
:102FD000F4FF0900F5CFEFFFEE66FBD71200FE0EFF
:102FE000E3CFE9FFFF0EE3CFEAFFF36AF46AEE52A4
:0A2FF00003E0F34AF42AFBD71200B5
:062FFA001A6A196A186A48
:10300000176A200EE76ED8901B361C361D361E360A
:103010001736183619361A362050175C21501858B2
:103020002250195823501A5809E32050175E215096
:10303000185A2250195A23501A5A1B2AE72EE4D73D
:0230400012007C
:0E304200D9CFE6FFDACFE6FFE1CFD9FFE2CF2C
:10305000DAFFE652E652C350DF6E010EC4CFDBFF4B
:10306000DECF2BF0DDCF2CF02BC0F3FF2CC0F4FF14
:10307000E552E552E552E5CFDAFFE7CFD9FF12007E
:103080001A6A196A100EE76ED8901D361E36193668
:103090001A362250195C23501A5805E32250195E43
:0C30A00023501A5A1D2AE72EF0D7120008
:0430AC0016EE00F02C
:1030B00026EE00F0F86A269CA68EA69CD0EC14F0B2
:0C30C0002FEC16F076EC18F0F9D7120097
:0430CC00FF0EE350C0
:1030D0002F6E480E01D04C0EE76EE72EFED7E76A42
:0C30E000E72EFED72F2EF7D700001200BD
:0430EC00B0EC0CF048
:1030F00014EC11F007019891070198A102D08BEC14
:0A31000011F0C3EC16F0F8D712002E
:06310A00FF0EE350E84E49
:103110001200000000D000D000D0E82EFAD7120034
:06312000C2909D9C12000C
:04312600C28212004F
:04312A0000000000A1
:02312E0000009F
:0231300000009D
:01313200009C
:020000040030CA
:0E000000FFFEFEFCFFFEFBFFFFFFFFFFFFFF0A
:00000001FF
