:020000040000FA
:0608000023EF1CF01200C2
:020806001200DE
:06080800DFEF0DF012000D
:02080E00C250D6
:08081000020B01E0010E1200D1
:06081800F6EF18F01200DB
:02081E000200D6
:10082000D6380000580F000004000000D438000043
:080830001702000002000000A5
:0808380058EC09F0FB0EDBCFC8
:10084000F3FFDB06F35000090AE0A6EC09F0FA0E0C
:1008500011EC0AF0F3E12C1CF1E1010E01D0000EC5
:1008600087EF09F058EC09F03B0EE12402E3E16860
:10087000E652E16E010EDB6A020EDB6AF90EDBCF97
:10088000F6FFFA0EDBCFF7FFFB0EDBCFF8FF080019
:10089000F550DF6EDF5002E1ADEF08F0250EDF5CB2
:1008A00002E0A0EF08F0030EDB6A040EDB6A050E1F
:1008B000DB6A060EDB6A070EDB6AC0EC08F02D0E61
:1008C000DF5C0CE02B0EDF5C09E0200EDF5C06E055
:1008D000230EDF5C03E0300EDF5C1AE1DF50300AEC
:1008E00014E0130A0FE0030A0AE00B0A05E0060A07
:1008F000E4E1030EDB80E1D7030EDB82DED7030EDB
:10090000DB84DBD7030EDB86D8D7030EDB88D5D795
:100910002A0EDF5C1BE1BCEC08F00AEC09F010E0E9
:10092000030EDB801D681E68130EDBCF22F0140E51
:10093000DBCF23F0EBEC16F0040E1BC0DBFF03D083
:10094000130EF3EC08F0C0EC08F00BD0090EDB6AD4
:1009500061EC09F003E0D5EC09F0FAD7090EF3ECED
:1009600008F0030EDBB0DB982E0EDF5C1BE1C0EC61
:1009700008F02A0EDF5C0BE1BCEC08F00AEC09F091
:1009800003E1130E45EC09F0C0EC08F00BD0090EA2
:10099000DB6A61EC09F003E0D5EC09F0FAD7090E47
:1009A00045EC09F0680EDF5C07E1C0EC08F0680E6A
:1009B000DF5C1DE1030E18D0740EDF5C17E07A0EC9
:1009C000DF5C14E0480EDF5C06E0540EDF5C03E001
:1009D0005A0EDF5C02E1020E07D06C0EDF5C03E012
:1009E0006A0EDF5C04E1010E98EC09F0C9DBDF5010
:1009F0006E0A01E181D31E0A01E192D1200A01E1D0
:100A00008FD13F0A01E149D11A0A01E146D10D0A0D
:100A100001E143D1200A01E140D13A0A01E13DD18F
:100A2000200A01E13AD1260A01E135D10D0A01E19E
:100A300032D11A0A01E1D9D0200A4AE0300A1FE077
:100A4000460A0EE0250A01E085D3D950F90FE96E78
:100A5000FF0EDA20EA6E010EEE5E000EEE5AEE5A3E
:100A6000A6EC09F0250EE66E95DB03E12C1C01E1F6
:100A70006BD3A2EC09F001E26DD3DB2A6BD3080E35
:100A8000DB6A040EDB50010806E2040EDB046AECAC
:100A900009F0DB508BDB080EDB5009E0030EDB5066
:100AA000010B05E172DB01E04FD3080EDB6A64DB6A
:100AB000EFCFDFFF1AEC0AF003E12C1C01E144D375
:100AC000A2EC09F001E3DB2A60DB01E143D33CD374
:100AD000070EDB5002080FE1E6EC09F0030EADEC67
:100AE00009F00E0EEECFDBFF0F0EEECFDBFF100E88
:100AF000EECFDBFF20D0F70EDBCF2EF0F80EDBCFF2
:100B00002FF0020E2E5E000E2F5AF70E2EC0DBFFC6
:100B1000F80E2FC0DBFF2EC0E9FF2FC0EAFF9DECCF
:100B200009F02D6A0E0E2BC0DBFF0F0E2CC0DBFF71
:100B3000100E2DC0DBFF0E0EDBCFE6FF0F0EDBCF5E
:100B4000E6FF100EDBCFE6FF13EC1AF0E552E5529C
:100B5000E552130E1CC0DBFF140E1DC0DBFF060E9A
:100B6000DB5005E0130EE1EC09F001E26ADB05EC75
:100B70000AF002E2130E37DBC8EC09F006E0040EBF
:100B8000E1EC09F002E2050E2EDB030EDBB005D02E
:100B9000FCDA01E0D9D2080EDB6A090EDB6A0E0E20
:100BA000DBCFF6FF0F0EDBCFF7FF100EDBCFF8FF2A
:100BB0000800F550DF6EDF5014E00BEC0AF011E294
:100BC0001AEC0AF003E12C1C01E1BED2BBDB01E30D
:100BD000DB2A090EDB2AD9500E0FE96E000ECBDBA3
:100BE000E7D7D3DA01E1B6D2AFD2C6DA110EEECF33
:100BF000DBFF120EEDCFDBFF110EDBCFE6FF120E97
:100C0000DBCFE6FF05EC1AF0E552E552130EF3CF09
:100C1000DBFF140EF4CFDBFF060EDB5004E0130EF7
:100C2000D0DB01E20EDB05EC0AF002E2130EDBDAA8
:100C3000AFDB05E0040EC5DB02E2050ED4DA030EDD
:100C4000DBB005D0A2DA01E07FD2080EDB6A090E24
:100C5000DB6A110EDBCFE9FF120EDBCFEAFFEFCF2D
:100C6000DFFFDF5014E0D7DB12E2E4DB03E12C1CF2
:100C700001E16AD267DB01E3DB2A090EDB2A110EF0
:100C8000DB2ADBCFE9FF120EE8E3DB2AE6D77DDAC9
:100C900001E160D259D2030EDB8E070EDB0410E1B6
:100CA00095DB040E5ADB0A0EEECFDBFF0B0EEECF08
:100CB000DBFF0C0EEECFDBFF0D0EEECFDBFF6CD0BB
:100CC000070EDB5003082CE1030EDBAE0DD0B2DAC9
:100CD000020E76DAEFCF2BF02C6A2D6A2E6A2BAE3D
:100CE00039D02C682D6835D0F70EDBCF2CF0F80EFC
:100CF000DBCF2DF0020E2C5E000E2D5AF70E2CC00D
:100D0000DBFFF80E2DC0DBFF2CC0E9FF2DC0EAFF92
:100D1000EFCF2BF00A0E2BC0DBFF0B0EDB6A38D0B7
:100D2000070EDB50020809E1030EDBAE04D059DBED
:100D30002DAE10D00ED055DB0DD0030EDBAE12D091
:100D400079DA020E3DDAF9DA2D6A2E6A2CAE02D07B
:100D50002D682E68E2DA0C0E2DC0DBFF0D0E2EC0C2
:100D6000DBFF1AD0F70EDBCF2DF0F80EDBCF2EF025
:100D7000020E2D5E000E2E5AF70E2DC0DBFFF80E70
:100D80002EC0DBFF2DC0E9FF2EC0EAFFD6DAC5DAA0
:100D90000C0EDB6A0D0EDB6A060EDB5005E1010E60
:100DA000F36E050EF3CFDBFF150EDB6A160EDB6A62
:100DB000D950370F2B6E000EDA202C6E390E2BC057
:100DC000DBFF3A0E2CC0DBFF380EDB6A080EDB6A55
:100DD0000A0EAEDADF50780A12E0200A10E0280A84
:100DE0000CE0200A0AE03F0A06E00D0A02E0200AB1
:100DF00008E1020E05D0080E03D0080EDF26100E03
:100E000097DA030EDBBE02D0DB92DB94DB50800B63
:100E100026E08ADA030EEB50000AE8AE02D0D89042
:100E200008D0000EEE5C000EEE58000EEE58000EDC
:100E3000EE5815E211DA2068216822682368C4ECB4
:100E40001AF00A0E17C0DBFF0B0E18C0DBFF0C0EEA
:100E500019C0DBFF0D0E1AC0DBFF2D0E08D0030EEC
:100E6000DBA202D02B0E03D0DBA408D0200EF36E41
:100E7000170EF3CFDBFF150EDB2A02D0170EDB6A4D
:100E8000050EDB5003E1B5D901E189D0B80E2B6E18
:100E9000380E2C6E000E2D6E070EDBCF2EF02F6A53
:100EA000306A316A2EC020F02FC021F030C022F00D
:100EB00031C023F0D1D9BAEC1BF02B501724F36EBC
:100EC0002C501820F46E2D501920F86EF4CFF7FF37
:100ED000F3CFF6FF0800090EF5CFDBFF580EDF5CFD
:100EE0000FE1610EF36E090E79D90AE3200E2B6E25
:100EF000090EDBCFE7FF2B50E75E090EE7CFDBFFE4
:100F0000070EDBCF2BF02C6A2D6A2E6A0DDA2BC070
:100F100020F02CC021F02DC022F02EC023F0EECF07
:100F20001BF0EECF1CF0EECF1DF0EFCF1EF0BAECB1
:100F30001BF01EC0EDFF1DC0EDFF1CC0EDFF1BC070
:100F4000EFFF390EDBCFE9FFDB063A0EDBCFEAFF1E
:100F500001E2DB06090EDBCFEFFF150EDB2A49D9D4
:100F600095E1030EDBA61DD06F0EDF5C06E1BFD955
:100F700018E3150EDB2859DA14D0780EDF5C09E08F
:100F8000580EDF5C06E0620EDF5C03E0420EDF5CC1
:100F900008E1020EF36E160EF3CFDBFF02D0150E42
:100FA000DB6A030EDB50100B0EE0040EDBCF2BF0E0
:100FB000050EDB50D8802B5406E2060EDB5003E111
:100FC000040EDB5032DA93D90AE2050EDBCFE7FFDD
:100FD000150EDB50E75E050EE7CFDBFF02D0050EF6
:100FE000DB6A040EDBCF2BF0160E43D9D8802B54CE
:100FF00014E2160EDBCFE6FF150EDBCFE6FF040E84
:10100000DBCFE6FF050EDB50E552E75CE552D8800A
:10101000E754E552D880E7545DD9030EDB50010B4D
:101020000BE1080EDB5008E0B0D801E08DD0080ECF
:10103000DB50BCD8080EDB6A170EDB5007E086D900
:10104000170EEFD903E12C1C01E17ED0160EDB5008
:1010500016E07CD9300EE66E9DD802E12C1C74E0BF
:1010600075D9DFCFE6FF82EC1AF0E552E552E55282
:10107000F4CF2CF00001F31C02E12C1C65E0050EFE
:10108000DBCF2BF0160EDB50D8802B5409E2050E77
:10109000DBCFE7FF160EDB50E75E050EE7CFDBFF89
:1010A000300EE66E050EC9D94FE1390EDB2ADBCFD3
:1010B000E9FF3A0E01E3DB2ADBCFEAFF090EEFCFAF
:1010C000DBFFDB500EE042D9090EABD902E12C1C4C
:1010D0003BE0390EDB2ADBCFE9FF3A0EEDE3DB2AFA
:1010E000EBD753D831E1160EDBCFE6FF080EC1D89F
:1010F000E552E7245BD82ED0070EDB50030A1CE034
:10110000010A14E0030A07E079D9DBCFEEFF020EF3
:10111000DBCFEDFF1FD0F3D8306A2EAE02D02F68A0
:1011200030682AD8BAD830C0EEFF14D0E8D82EBE26
:101130002F6822D8B2D80ED061D9DBCFEFFF0AD00A
:1011400079D905E12C1C03E1F368F46810D0FAD8D2
:1011500001E3DB2A77D947EF04F0010EDBCF2BF058
:10116000020EDBCF2CF02BC0F3FF2CC0F4FFD9CF45
:10117000E1FFDACFE2FFCBD029D9020EADEF09F0C3
:1011800061D90800F550DF6E1200200EE66E080EE1
:101190001DEF0AF082EC1AF0E552E552E552F3CF6A
:1011A0002BF0F4CF2CF00001F31C12002B6E2C6AF4
:1011B000D950010F4DD92B50EE262C50ED221200A4
:1011C0002F5E000E305AF70E2FC0DBFFF80E30C036
:1011D000DBFF2FC0E9FF30C0EAFF1200DBCFF4FFD6
:1011E000F350F45C1200DB50E76E040EE7CFDBFF38
:1011F00012000A0EDBCF2BF00B0EDBCF2CF00C0E07
:10120000DBCF2DF00D0EDBCF2EF02B502C102D1040
:101210002E101200130EEECFDBFF140EEDCFDBFF0E
:10122000130EDBCF2BF0140EDBCF2CF00001800E61
:101230002C141200F70EDBCF2FF0F80EDBCF30F0BE
:101240001200050EDB50E66ED950130F01D9E5529E
:10125000E750EE6EED6A12000A0EDBCF1BF00B0EAC
:10126000DBCF1CF00C0EDBCF1DF00D0EDBCF1EF024
:101270001200DBCFE6FF150EDBCFE6FF050EDB50DD
:10128000E552E724E552E7241200DB50CED8010EE8
:10129000F36E060EF3CFDBFF1200EE50EFCFEAFF46
:1012A000E96E2DC0EEFF2EC0EEFF2FC0EEFF120044
:1012B000D9CFE6FFDACFE6FFE1CFD9FFE2CFDAFF01
:1012C0001200DFCFE6FFE66A11EC1CF0E552E552B2
:1012D000F3501200E76E080EE7CFDBFF1200EECFEF
:1012E0002BF0EECF2CF0EFCF2DF02E6A1200050E72
:1012F000DBCF2BF0150EDB50D8802B541200010EE3
:10130000DBCF2DF0020EDBCF2EF02F6A1200E5525C
:10131000E5CFDAFFE7CFD9FF12000A0E2BC0DBFFC3
:101320000B0E2CC0DBFF1200D9500A0F28EF0AF079
:10133000F36E070EF3CFDBFF1200EECF2BF0EFCFF3
:101340002CF01200010EDB2A020E1200FC0EDBCF85
:10135000E6FFFD0EDBCFE6FF12002B5E000E2C5ADF
:10136000F70E2BC0DBFFF80E2CC0DBFF2BC0E9FF14
:101370002CC0EAFF1200DA20EA6EEF2AEECFF6FF69
:10138000000EEF22EECFF7FFEF22EECFF8FF1200B4
:10139000040EDBCFE6FF130EDB50E552E75C9ADF6D
:1013A000DB5004DF060EDB501200090EDB500A0D85
:1013B000F350DF24D00FE76E090EE7CFDBFFC0EF5D
:1013C00008F0DB50F36E050EEEEF08F0F70EDBCF02
:1013D0002BF0F80EDBCF2CF01200DFCFE6FFCAEFC8
:1013E00008F028DF030EECDE6FEF09F01CEC04F0D0
:1013F000E552E552E552E55200091200BDDEEE501D
:10140000EFCFEAFFE96E010E1200130EDB50F36E10
:10141000040EEEEF08F0040EDB50F36E090EEEEF53
:1014200008F0DBCFE6FFCAEF08F0E76E050EE7CF66
:10143000DBFF12008BDFEDEF09F0DBCFE6FF86DF8D
:10144000F6EF09F0D950F90FE96EFF0EBBEF09F086
:0A145000E96E000EDA20EA6E1200C9
:06145A00D9CFE6FFE1CF4F
:10146000D9FFFE0EDB5011E1FC0EDBCFE9FFFD0ED4
:10147000DBCFEAFFEF507F0808E2FC0EDBCFE9FF8D
:10148000FD0EDBCFEAFF7F0EEF6EE552E7CFD9FF0F
:101490001200D9CFE6FFE1CFD9FFFE0EDB5013E1FA
:1014A000FC0EDBCFE9FFFD0EDBCFEAFFEFCF2BF029
:1014B0007F0E2B5C08E2FC0EDBCFE9FFFD0EDBCFDD
:1014C000EAFF7F0EEF6EE552E7CFD9FF1200D9CFCA
:1014D000E6FFE1CFD9FFFD0EDBCF2BF0FE0EDBCF19
:1014E0002CF0D8902C5004E6D00E2B5C070E2C5814
:1014F00006E20F01D00E5C6F070E5D6F19D0FD0E76
:10150000DBCF2BF0FE0EDBCF2CF02C3404E22B5083
:10151000CE08080E2C5406E20F01CE0E5C6F080EAA
:101520005D6F06D0FD0EDBCF5CFFFE0EDBCF5DFFF7
:101530005CCF2BF05DCF2CF0D00E2B5E070E2C5A1B
:101540002B5000D0E552E7CFD9FF1200F00EE66E27
:10155000B7EC18F0E552938A938893869384998226
:101560009980938E938C9A849A82998699849A8A88
:101570009A8894809A869A8E9A9C919C01017F0EFB
:10158000CA6FCAC1C9F1CAC1C8F1CAC1C7F1CAC1CB
:10159000C6F1CAC1C5F1CAC1C4F1CAC1C3F1D26F93
:1015A000D2C1D1F1D2C1D0F1D2C1CFF1D2C1CEF1ED
:1015B000D2C1CDF1D2C1CCF1D2C1CBF1000EE66ED9
:1015C000E66AE66EE66AE66EE66AE66EE66A41ECB2
:1015D0000FF0F56E080EE15EF550BF0EE66E010EDF
:1015E000E66EFFEC0EF0E552E55226EC13F04B0EE2
:1015F0002B6E370E2C6E2D6A2BC0E6FF2CC0E6FF3B
:101600002DC0E6FF38EC1AF0E552E552E55286EFC0
:101610000EF0DF0EE66E010EE66EE6EC0EF0E55221
:10162000E5524ED80101E151020B01E0010EE66ED8
:10163000E66AE151010BE66EE66AE951E66EE66A9A
:10164000E551E66EE66A260E2B6E370E2C6E2D6A7D
:101650002BC0E6FF2CC0E6FF2DC0E6FF38EC1AF0E9
:10166000F56E0B0EE15EF550D2C1E6FFD1C1E6FF8B
:10167000D0C1E6FFCFC1E6FF9EEC15F0E552E55282
:10168000E552E5520101BA5112E00F01010E5E6F01
:101690001D0E5E5D0CE25ECFE6FFD2EC13F0E5526C
:1016A000000902E05ECFC1F10F015E2BF1D7BF0E42
:1016B000E66E010EE66EFFEC0EF0E552E55212000A
:1016C000E5C1C3F1E6C1C4F1E7C1C5F1E8C1C6F1A6
:1016D000E9C1C7F1EAC1C8F1EBC1C9F1ECC1CAF176
:1016E000EDC1CBF1EEC1CCF1EFC1CDF1F0C1CEF146
:1016F0000101E5512E6AD00F2D6E070E2E22E95101
:1017000000012D242B6E000E2E202C6E7F0E2B5EE2
:10171000000E2C5A2BC0E6FF2CC0E6FFD8DEE552A7
:10172000E5520101D06FCF6F0101E5512E6AD00F54
:101730002D6E070E2E22E9512F6E306A2F502D5C30
:101740002B6E30502E582C6E7F0E2B26000E2C2226
:101750002BC0E6FF2CC0E6FFBADEE552E5520101E0
:10176000D26FD16F8150040B01E0010E2B6E01018D
:10177000E151010B2B14010BF36EFE0E8D14F310CF
:101780008D6E8150080B01E0010E2B6EE151020BB2
:1017900001E0010E2B14010BF36EFE0E8C14F310FE
:1017A0008C6E8150100B01E0010E2B6EE251010B8B
:1017B0002B14010BF36EF346FD0E8D14F3108D6E9A
:1017C0008150200B01E0010E2B6EE251020B01E073
:1017D000010E2B14010BF36EF346FD0E8C14F31067
:1017E0008C6EE151100B02E08D8401D08D94E1519B
:1017F000200B02E08C8401D08C94E251100B02E0AB
:101800008D8601D08D96E251200B02E08C8601D0AE
:101810008C96E151040B02E08D8801D08D98E15146
:10182000080B02E08C8801D08C98E151400B02E05B
:101830008D8A01D08D9AE151800B02E08C8A01D013
:101840008C9AE251400B02E08D8C01D08D9CE251CC
:10185000800B02E08C8C01D08C9C8850800B02E0C5
:10186000919001D091808C9EC50EE66E010EE66EC1
:101870008150400B01E0010EE66EEFDDE552E552CE
:10188000E552C50EE66E010EE66E8150800B01E05A
:10189000010EE66EFEDDE552E552E552C60EE66E3D
:1018A000010EE66E8750010BE66ED7DDE552E5527C
:1018B000E552C60EE66E010EE66E8750020B01E0A1
:1018C000010EE66EE6DDE552E552E552CB0EE66E20
:1018D000010EE66E8750040B01E0010EE66EBDDDE1
:1018E000E552E552E552CB0EE66E010EE66E8750EC
:1018F000080B01E0010EE66ECCDDE552E552E55243
:10190000CC0EE66E010EE66E8850020B01E0010E71
:10191000E66EA3DDE552E552E552CC0EE66E010E11
:10192000E66E8850040B01E0010EE66EB2DDE55272
:10193000E552E552CD0EE66E010EE66E8850080BBC
:1019400001E0010EE66E89DDE552E552E552CD0E6D
:10195000E66E010EE66E8250010BE66E9ADDE552F0
:10196000E552E552CE0EE66E010EE66E8850100B83
:1019700001E0010EE66E71DDE552E552E552CE0E54
:10198000E66E010EE66E8850200B01E0010EE66E59
:1019900080DDE552E552E5520101E0BBBDD0000E0D
:1019A000E55D07E3E551380804E30101BF91BF831A
:1019B0002DD07D0EE55D0EE3E5512B6E2C6A2C34A7
:1019C00004E22B508108000E2C5404E30101BF8176
:1019D000BF831CD0E5512B6E2C6AD8902C5004E6A6
:1019E000D80E2B5C000E2C580EE3E5512D6E2E6A9E
:1019F0002E3404E22D50FF08000E2E5404E30101A2
:101A0000BF81BF9303D00101BF91BF93000E0101BD
:101A1000E65D07E3E651380804E30101BF95BF879F
:101A20002DD07D0EE65D0EE3E6512B6E2C6A2C3434
:101A300004E22B508108000E2C5404E30101BF8501
:101A4000BF871CD0E6512B6E2C6AD8902C5004E630
:101A5000D80E2B5C000E2C580EE3E6512D6E2E6A2C
:101A60002E3404E22D50FF08000E2E5404E3010131
:101A7000BF85BF9703D00101BF95BF97BF9B8D5016
:101A8000010B01E0BF8BBF998C50010B01E0BF89B6
:101A9000BF9F8D50020B01E0BF8FBF9D8C50020B8A
:101AA00001E0BF8D8150040B01E0010E2B6E2C6A0A
:101AB0002B502C1002E0000E01D0010E010BF36E32
:101AC000FE0EC015F310C06F8150080B01E0010E2F
:101AD0002B6E2C6A2B502C1002E0000E01D0010E50
:101AE000010BF36EF346FD0EC015F310C06F81506D
:101AF000100B01E0010E2B6E2C6A2B502C1002E013
:101B0000000E01D0010E010BF36EF346F346FB0EFF
:101B1000C015F310C06F52D0F6C11EF01AEC16F0CB
:101B20001CC033F01DC034F01EC035F01FC036F0AD
:101B3000710E216E3D0E226E7A0E236E410E246EC2
:101B400033C01CF034C01DF035C01EF036C01FF08D
:101B50007EEC16F01CC02FF01DC030F01EC031F01E
:101B60001FC032F0216A226A800E236E430E246E5B
:101B70002FC01CF030C01DF031C01EF032C01FF06D
:101B80002BEC16F01CC02BF01DC02CF01EC02DF04D
:101B90001FC02EF0216A226A200E236E410E246E91
:101BA0002BC01CF02CC01DF02DC01EF02EC01FF04D
:0E1BB0007EEC16F018EC17F01EC0BFF112000C
:021BBE00DACF7C
:101BC000E4FFE2CFDAFFE9CFE4FFEACFE4FFE65239
:101BD000F2A202D0A0D802D09EB6CCD8E552E5CF72
:101BE000EAFFE5CFE9FFE5CFDAFF1100E66A010E73
:101BF000E66E050EE66EFCEC1AF0E552E552E55293
:101C00001200070EB46E000E886E876E866E856EAB
:101C1000846E836E826E816E806E916E906E8F6E1A
:101C20008E6E8D6E8C6E8B6E8A6E896E2F0E926E9E
:101C3000FD0E936E9C0E946E956A966A9768040EDC
:101C4000986E0E0E9A6E9968C16AF19EB0989C8E3D
:101C5000A26A9F6AA06A9D6AA36AA56AC7DF9F8677
:101C6000D08E9E969D86F06AF288F09EF098F19252
:101C7000F09AF16AF28CF28E1200D9CFE6FFE1CF32
:101C8000D9FFE652BEDF0101FF97FF990201C30EA3
:101C90000B6F010E0C6FDF6A100EDF5C0AE2DF5083
:101CA000EA6A0B25E96E0C51EA227F0EEF6EDF2AFD
:101CB000F3D70101DC6B010EDD6FC20EDE6F010197
:101CC000FF850101E16BE26B0101BF6BC16BC26B70
:101CD000010ED56E320ED76ECF0ED66ED59EBF0ECC
:101CE000E66E010EE66E8BD8E552E5520101FF93D8
:101CF000BF0EE66E010EE66E82D8E552E552010196
:101D0000FF93E552E552E7CFD9FF12008282808827
:101D1000949292981200F2920201200E076F9F8611
:101D20000101FFA906D00201E00E046F000E056F4D
:101D300005D00201C00E046F000E056F0101FFA166
:101D4000FF79FFA706D00201800E026F000E036F1D
:101D500005D00201A00E026F000E036FC9CF08F27A
:101D600002C2E9FF03C2EAFF022B000E0323EF5079
:101D7000C96E12009E96C9CF08F2020107510008F1
:101D800023E204C2E9FF05C2EAFF042B000E05238B
:101D900008C2EFFF02C2E9FF03C2EAFF022B0323DE
:101DA000EFCF08F208C2C9FF070707510CE1010194
:101DB000020EDD6F0101FF93FF81320ED76ECF0E51
:101DC000D66EF294D58E01D0C96A1200D9CFE6FF43
:101DD000E1CFD9FF0101FFA10ED0FD0EDBCFE6FF61
:101DE000FE0EDBCFE6FF0AEC15F0E552E5529D96BC
:101DF0000101FF919D86E552E7CFD9FF1200D9CFAF
:101E0000E6FFE1CFD9FF0101FFB332D0FD0EDBCFFA
:101E1000E9FFFE0EDBCFEAFF1E0EE926000EEA22E6
:101E2000EF50020809E1FD0EDBCFE6FFFE0EDBCF2F
:101E3000E6FF69D8E552E552FD0EDBCFE9FFFE0E65
:101E4000DBCFEAFF150EE926000EEA22EF9EFD0E1B
:101E5000DBCFE6FFFE0EDBCFE6FF78EC14F0E552B9
:101E6000E5529D960101FF77FF839D860101DC2BE2
:101E7000E552E7CFD9FF12009D960101FF919D86A3
:101E80001200D9CFE6FFE1CFD9FF0001166BD95080
:101E9000FD0FE96EFF0EDA20EA6E010EEE1801E189
:101EA000ED5002E1168101D0BA6AD950FB0FE96EFC
:101EB000FF0EDA20EA6E010EEE1801E1ED5002E1AC
:101EC000168301D0B76AD950F90FE96EFF0EDA20F8
:101ED000EA6E010EEE1801E1ED5002E1168501D027
:101EE000736AD950F70FE96EFF0EDA20EA6E010E21
:101EF000EE1801E1ED5002E1168701D0706AE5525B
:101F0000E7CFD9FF1200D9CFE6FFE1CFD9FFFD0E11
:101F1000DBCFE9FFFE0EDBCFEAFF1C0EE926000E49
:101F2000EA22EF6AFD0EDBCFE9FFFE0EDBCFEAFF10
:101F3000170EE926000EEA22EF6AC6AE0ED0C69E44
:101F4000FD0EDBCFE9FFFE0EDBCFEAFF170EE92621
:101F5000000EEA22010EEF6E22D0F150800B10E04D
:101F6000F250080B0DE0FD0EDBCFE9FFFE0EDBCFDC
:101F7000EAFF170EE926000EEA22020EEF6E0FD0DE
:101F8000F0A60DD0909EFD0EDBCFE9FFFE0EDBCF5D
:101F9000EAFF170EE926000EEA22030EEF6E250E69
:101FA000C614250819E0FD0EDBCFE9FFFE0EDBCFDE
:101FB000EAFF1C0EE926000EEA22010EEF6EFD0E6E
:101FC000DBCFE9FFFE0EDBCFEAFF170EE926000E9E
:101FD000EA22C6CFEFFF80D1C55019E0FD0EDBCF5E
:101FE000E9FFFE0EDBCFEAFF1C0EE926000EEA2217
:101FF000020EEF6EFD0EDBCFE9FFFE0EDBCFEAFF38
:10200000170EE926000EEA22C5CFEFFF65D1D0BE3C
:1020100019D0FD0EDBCFE9FFFE0EDBCFEAFF1C0E71
:10202000E926000EEA22030EEF6EFD0EDBCFE9FF7C
:10203000FE0EDBCFEAFF170EE926000EEA22D0CF14
:10204000EFFF4AD19DB619D0FD0EDBCFE9FFFE0EA2
:10205000DBCFEAFF1C0EE926000EEA22040EEF6E2B
:10206000FD0EDBCFE9FFFE0EDBCFEAFF170EE92600
:10207000000EEA229DCFEFFF2FD19C5019E0FD0EFC
:10208000DBCFE9FFFE0EDBCFEAFF1C0EE926000ED8
:10209000EA22050EEF6EFD0EDBCFE9FFFE0EDBCF71
:1020A000EAFF170EE926000EEA229CCFEFFF14D1BB
:1020B000080E9F5C19E0FD0EDBCFE9FFFE0EDBCFC3
:1020C000EAFF1C0EE926000EEA22060EEF6EFD0E58
:1020D000DBCFE9FFFE0EDBCFEAFF170EE926000E8D
:1020E000EA229FCFEFFFF8D0A25019E0FD0EDBCF20
:1020F000E9FFFE0EDBCFEAFF1C0EE926000EEA2206
:10210000070EEF6EFD0EDBCFE9FFFE0EDBCFEAFF21
:10211000170EE926000EEA22A2CFEFFFDDD0A55070
:1021200019E0FD0EDBCFE9FFFE0EDBCFEAFF1C0E50
:10213000E926000EEA22080EEF6EFD0EDBCFE9FF66
:10214000FE0EDBCFEAFF170EE926000EEA22A5CF2E
:10215000EFFFC2D0100EF214100819E0FD0EDBCF15
:10216000E9FFFE0EDBCFEAFF1C0EE926000EEA2295
:10217000090EEF6EFD0EDBCFE9FFFE0EDBCFEAFFAF
:10218000170EE926000EEA22F2CFEFFFA5D0470E88
:10219000F11419E0FD0EDBCFE9FFFE0EDBCFEAFF05
:1021A0001C0EE926000EEA220A0EEF6EFD0EDBCFB2
:1021B000E9FFFE0EDBCFEAFF170EE926000EEA224A
:1021C000F1CFEFFF89D0C00EF01419E0FD0EDBCF88
:1021D000E9FFFE0EDBCFEAFF1C0EE926000EEA2225
:1021E0000B0EEF6EFD0EDBCFE9FFFE0EDBCFEAFF3D
:1021F000170EE926000EEA22F0CFEFFF6DD092A86D
:1022000019D0FD0EDBCFE9FFFE0EDBCFEAFF1C0E7F
:10221000E926000EEA220C0EEF6EFD0EDBCFE9FF81
:10222000FE0EDBCFEAFF170EE926000EEA2292CF60
:10223000EFFF52D093B019D0FD0EDBCFE9FFFE0EB9
:10224000DBCFEAFF1C0EE926000EEA220D0EEF6E30
:10225000FD0EDBCFE9FFFE0EDBCFEAFF170EE9260E
:10226000000EEA2293CFEFFF37D03E0E94141C08E5
:1022700019E0FD0EDBCFE9FFFE0EDBCFEAFF1C0EFF
:10228000E926000EEA220E0EEF6EFD0EDBCFE9FF0F
:10229000FE0EDBCFEAFF170EE926000EEA2294CFEE
:1022A000EFFF1AD097BE18D0FD0EDBCFE9FFFE0E70
:1022B000DBCFEAFF1C0EE926000EEA220F0EEF6EBE
:1022C000FD0EDBCFE9FFFE0EDBCFEAFF170EE9269E
:1022D000000EEA2297CFEFFFE552E7CFD9FF1200B9
:1022E000D9CFE6FFE1CFD9FFF29CFD0EDBCFE9FFAE
:1022F000FE0EDBCFEAFFEE52EF6AFD0EDBCFE9FF09
:10230000FE0EDBCFEAFF540EE926000EEA22EF6A4A
:10231000F28CE552E7CFD9FF1200D9CFE6FFE1CF2B
:10232000D9FFE6520101AE0E5D6F0F0E5E6FAD0E6E
:102330005F6F0F0E606F010E086F080EE66E010EE4
:10234000E66ECEDFE552E55201016E0EB66F0F0E5E
:10235000B76F6D0EB86F0F0EB96F020E616F610E21
:10236000E66E010EE66EBCDFE552E552150EE66E36
:102370007C0EE66E61EC1BF0E552E5529F989F9A49
:10238000949C948EAE50DF6EAE50DF6E9E9A150E0A
:10239000E66E7C0EE66E2FEC1BF0E552E552A59A38
:1023A000A598989298846E50DF6E6E50DF6EA49A56
:1023B0000101BA6BE552E552E7CFD9FF1200D9CF40
:1023C000E6FFE1CFD9FFFD0EDBCFE9FFFE0EDBCF4D
:1023D000EAFFEF0402E19D8801D0A388E552E7CF30
:1023E000D9FF1200D9CFE6FFE1CFD9FFD950FD0FB9
:1023F000E96EFF0EDA20EA6EEE50ED100AE19EA8BB
:1024000007D0080EE66E010EE66ED9DFE552E55202
:1024100009D0A4A807D0610EE66E010EE66ECFDFEC
:10242000E552E552E552E7CFD9FF1200D9CFE6FFDA
:10243000E1CFD9FFD950FD0FE96EFF0EDA20EA6E29
:10244000EE50ED1005E1ABB2AB98AB889D8A04D09D
:102450006BB26B986B88A38AE552E7CFD9FF120065
:10246000D9CFE6FFE1CFD9FFFD0EDBCFE9FFFE0EAE
:10247000DBCFEAFFEF0403E19E989D9802D0A49879
:10248000A398E552E7CFD9FF1200D9CFE6FFE1CFFD
:10249000D9FFFD0EDBCFE9FFFE0EDBCFEAFFEE52E8
:1024A000EF500AE1FD0EDBCFE6FFFE0EDBCFE6FFCD
:1024B000D7DFE552E5522FD0FD0EDBCFE9FFFE0E50
:1024C000DBCFEAFF020EE926000EEA22EECFF3FF91
:1024D000EDCFF4FFEE2AEF22F3CFE9FFF4CFEAFFCE
:1024E000EF50E66EFD0EDBCFE9FFFE0EDBCFEAFF1D
:1024F000570EE926000EEA22EE50EFCFEAFFE96E12
:10250000E552E750EF6EFD0EDBCFE9FFFE0EDBCFAD
:10251000EAFFEE52EF06E552E7CFD9FF1200D9CF1E
:10252000E6FFE1CFD9FFE65201010651060A4FE06E
:10253000030A41E0010A37E0070A2DE0010A1EE024
:10254000030A0CE0010A02E0066B4FD0066BFE0E98
:10255000DB50C90802E1010E066F47D0066B079BEE
:10256000FE0EDB50170802E1079D05D0FE0EDB5082
:10257000180801E1078D020E066F37D0FE0EDBCF83
:1025800002F1DBCFD7F10251800B01E0010EBA6FEF
:10259000030E066F2AD0FE0EDBCF03F1DBCFD8F19E
:1025A000040E066F22D0FE0EDBCF04F1DBCFD9F193
:1025B000050E066F1AD0FE0EDBCF05F1DBCFDAF188
:1025C00007AD03D0060E066F01D0066B0ED0025188
:1025D000032504250525DF6EDF1CF36EFE0EDB50A0
:1025E000F35C01E1078B066B00D0E552E552E7CFC3
:1025F000D9FF12009EAA0AD09E9A5DC1E9FF5EC172
:10260000EAFFEF50E66E8BDFE5521FD09EA807D0A1
:10261000080EE66E010EE66E38DFE552E552A4AA1A
:102620000BD0A49AB6C1E9FFB7C1EAFFEF50E66E3E
:1026300095EC19F0E55209D0A4A807D0610EE66E1A
:10264000010EE66E22DFE552E55212008DEF11F029
:10265000D9CFE6FFE1CFD9FF590E1D6E1E6AFD0EE0
:10266000DBCF22F0FE0EDBCF23F0EBEC16F01BC02D
:10267000BBF11CC0BCF1080E0101BB27010EBC233D
:10268000F29CBBC1E9FFBCC1EAFF020EE926000EC5
:10269000EA22FB0EDBCFEEFFFC0EDBCFEDFFBBC172
:1026A000E9FFBCC1EAFFEE52F90EDBCFEFFFF28C7F
:1026B000FD0EDBCFE6FFFE0EDBCFE6FF93DEE5523D
:1026C000E552E552E7CFD9FF1200D9CFE6FFE1CFBF
:1026D000D9FF590E1D6E1E6AFD0EDBCF22F0FE0ED5
:1026E000DBCF23F0EBEC16F01BC0BDF11CC0BEF13C
:1026F000080E0101BD27010EBE23BDC1E9FFBEC109
:10270000EAFF570EE926000EEA22EE50EFCFEAFF6D
:10271000E96EFB0EDBCFEFFFD950FD0FE96EFF0E28
:10272000DA20EA6EEE50ED1003E19EA8FED702D04B
:10273000A4A8FED7E552E7CFD9FF1200D9CFE6FF14
:10274000E1CFD9FF01010951000801E2FBD75C513B
:102750005C2BEA6A0C0FE96E010EEA22FE0EDBCF5B
:10276000EFFFDB500D0803E0500E5C5D0FE3F29CC1
:102770000C0E0A6F010E0B6F5CC109F1F28C5C6BE1
:10278000000EE66EE66A2EDEE552E552E552E7CF30
:10279000D9FF1200010107AD02D0010E02D0000ED8
:1027A00000D01200D9CFE6FFE1CFD9FF020EE1261B
:1027B000010EDB6A010107AD04D007BB02D0DB507C
:1027C00068D0090EF36EFE0EDBCFF4FFF350F45C1D
:1027D00013E2FE0EDB042B6E010E2B5204E0E846E2
:1027E000FE0B2B06FCE1DF6EDF5001010515E76EE5
:1027F000010EE7CFDBFF4BD0110EF36EFE0EDBCFE9
:10280000F4FFF350F45C14E2FE0EDB50F70F2B6E76
:10281000010E2B5204E0E846FE0B2B06FCE1DF6EB6
:10282000DF5001010415E76E010EE7CFDBFF2FD06B
:10283000190EF36EFE0EDBCFF4FFF350F45C14E2DE
:10284000FE0EDB50EF0F2B6E010E2B5204E0E8461C
:10285000FE0B2B06FCE1DF6EDF5001010315E76E76
:10286000010EE7CFDBFF13D0FE0EDB50E70F2B6E20
:10287000010E2B5204E0E846FE0B2B06FCE1DF6E56
:10288000DF5001010215E76E010EE7CFDBFFDB50E1
:0E28900000D0D9CFE1FFE552E7CFD9FF12000B
:02289E00000E2A
:1028A000E96EEA6E04005CEC14F0EA2A080EEA5CB9
:1028B000D8A452EF14F01200EF6AE93E5CEF14F076
:1028C0001200FF0EE3CF09F009380F0B060FD8B244
:1028D000070F2A0FAD6EC5EC17F009500F0B060F4E
:1028E000D8B2070F2A0FAD6EC5EC17F0000C12001E
:1028F000EACF04F0E9CF05F0FF0EE3CFEAFFFE0ECA
:10290000E3CFE9FFFFA741D0EECFA0F0EECFA1F0DB
:10291000EECFA2F0EECFA3F0EECFA4F0EECFA5F075
:10292000EECFA6F0EECFA7F0EECFA8F0EECFA9F055
:10293000EECFAAF0EECFABF0EECFACF0EECFADF035
:10294000EECFAEF0EECFAFF0EECFB0F0EECFB1F015
:10295000EECFB2F0EECFB3F0EECFB4F0EECFB5F0F5
:10296000EECFB6F0EECFB7F0EECFB8F0EECFB9F0D5
:10297000EECFBAF0EECFBBF0EECFBCF0EECFBDF0B5
:10298000EECFBEF0EECFBFF040D0EECF80F0EECF76
:1029900081F0EECF82F0EECF83F0EECF84F0EECF79
:1029A00085F0EECF86F0EECF87F0EECF88F0EECF59
:1029B00089F0EECF8AF0EECF8BF0EECF8CF0EECF39
:1029C0008DF0EECF8EF0EECF8FF0EECF90F0EECF19
:1029D00091F0EECF92F0EECF93F0EECF94F0EECFF9
:1029E00095F0EECF96F0EECF97F0EECF98F0EECFD9
:1029F00099F0EECF9AF0EECF9BF0EECF9CF0EECFB9
:102A00009DF0EECF9EF0EECF9FF004C0EAFF05C030
:102A1000E9FF1200FFA11200EACF04F0E9CF05F0B0
:102A2000FF0EE3CFEAFFFE0EE3CFE9FFFFA941D09F
:102A3000C0C0EEFFC1C0EEFFC2C0EEFFC3C0EEFFDC
:102A4000C4C0EEFFC5C0EEFFC6C0EEFFC7C0EEFFBC
:102A5000C8C0EEFFC9C0EEFFCAC0EEFFCBC0EEFF9C
:102A6000CCC0EEFFCDC0EEFFCEC0EEFFCFC0EEFF7C
:102A7000D0C0EEFFD1C0EEFFD2C0EEFFD3C0EEFF5C
:102A8000D4C0EEFFD5C0EEFFD6C0EEFFD7C0EEFF3C
:102A9000D8C0EEFFD9C0EEFFDAC0EEFFDBC0EEFF1C
:102AA000DCC0EEFFDDC0EEFFDEC0EEFFDFC0EEFFFC
:102AB00040D0E0C0EEFFE1C0EEFFE2C0EEFFE3C0B9
:102AC000EEFFE4C0EEFFE5C0EEFFE6C0EEFFE7C0BC
:102AD000EEFFE8C0EEFFE9C0EEFFEAC0EEFFEBC09C
:102AE000EEFFECC0EEFFEDC0EEFFEEC0EEFFEFC07C
:102AF000EEFFF0C0EEFFF1C0EEFFF2C0EEFFF3C05C
:102B0000EEFFF4C0EEFFF5C0EEFFF6C0EEFFF7C03B
:102B1000EEFFF8C0EEFFF9C0EEFFFAC0EEFFFBC01B
:102B2000EEFFFCC0EEFFFDC0EEFFFEC0EEFFFFC0FB
:102B3000EEFF04C0EAFF05C0E9FF1200F2B4120084
:102B400016500F0AD8B41200FF0EE3CF0AF0FE0EA3
:102B5000E3CF0BF0FD0EE3CF0CF0FC0EE3CF0DF056
:102B60000A2A16A08D8E0B2A16A28F800C2A16A474
:102B70008F860D2A16A68F880E6A0F6A106A116A50
:102B8000F1EC15F00A2EC7EF15F016A08D9E0B2E56
:102B9000CCEF15F016A28F900C2ED1EF15F016A4E5
:102BA0008F9600000D2ED7EF15F016A68F98000017
:102BB0000E2EDCEF15F0129000000F2EE1EF15F055
:102BC00012920000102EE6EF15F012940000112E64
:102BD000EBEF15F0129613EC16F0133EC2EF15F062
:102BE0001200D70E136E000000000000000009EC78
:102BF00016F0132EF3EF15F0D70E136E0000000041
:102C00000000000009EC16F0132EFEEF15F0000096
:102C1000120000000CEF16F00000000000000000A1
:102C2000000000001200030E146E0000142E15EFB9
:042C300016F0120088
:0C2C3400269E05D0269E1EAE02D01E6C0F
:102C4000268E1EC018F0176A2A6A296A860E196E27
:102C50001A6A5BEF17F0266A97EC17F0AFEC17F0E3
:102C600026B63FEF17F026A205D026BA3FEF17F0A1
:102C700046EF17F026BA52EF17F026A005D026B877
:102C80003FEF17F052EF17F026B846EF17F01A6A29
:102C90007F0E1F24196EE86A1A222450195EE86A12
:102CA0001A5A1A0E276E1F6A296A2A6A176A186A40
:102CB00021501C5E22501D5A23501E5A000E1F5ACE
:102CC00009E721501C2622501D2223501E22000EEF
:102CD0001F2201D0298AD8901C361D361E361F3679
:102CE000D89029362A3617361836272EE1D71E50A7
:102CF0001D101C10D8A4298A5BEF17F0266A97ECE8
:102D000017F0AFEC17F026B63FEF17F026A205D06C
:102D100026B83FEF17F046EF17F026AA05D026B0E9
:102D20003FEF17F046EF17F026B002D026A802D0EA
:102D300052EF17F01A6A24501F24196EE86A1A22FB
:102D40007E0E195EE86A1A5A296A2A6A176A186A90
:102D500023501E02F4CF18F0F3CF17F022501E02BA
:102D6000F3502A26F4501722000E182223501D0279
:102D7000F3502A26F4501722000E182221501E026A
:102D8000F3502926F4502A22000E1722182222502E
:102D90001D02F3502926F4502A22000E1722182271
:102DA00023501C02F3502926F4502A22000E172229
:102DB000182221501D02F4502926000E2A22172223
:102DC000182222501C02F4502926000E2A22172213
:102DD00018225BEF17F01EC02AF01DC029F01D500D
:102DE0002202F4CF1CF0F3CF1BF01E502302F4CFCD
:102DF0001EF0F3CF1DF02202F3501C26F4501D22CA
:102E0000E86A1E2229502302F3501C26F4501D228A
:102E1000E86A1E2223AE11EF17F029501D5E2A50DA
:102E20001E5A2AAE000C22501D5E23501E5A000C62
:102E3000266A97EC17F026B622EF17F026A20AD0E2
:102E400026B403D07F0E1E6E19D0800E1E6E16D0D3
:102E50001E6A14D026B0FCD7870E1F60F1D77E0EF5
:102E60001F64F6D7860E1F5C04E0D8901E321F2A1E
:102E7000F9D726A403D01E6C1EAEEAD712007F0E2F
:102E80001F6EFF0E1E6E1D6E1C6E12007F0E26BE84
:102E9000FF0E1F6E02D07F0E1F6E800E1E6E1D6A0B
:102EA0001C6AF3D726AE04D0800E1F6E1E6AF7D7B9
:102EB0001F6A1E6AF4D7185017102A102910F8E05C
:102EC0001ABEF0D718BE0CD019501A10EBE0D890EB
:102ED00029362A36173618361906D8A01A06F2D718
:102EE0001A50D4E11928D2E029AE11D07F0E29144E
:102EF00002E12AA00CD02A2AE86A1722182207E346
:102F0000D880183217322A32192A1928BFE01950EE
:102F1000C9E02AC01CF017C01DF018341E6E19300D
:102F20001F6E1E321F9E26BE1F8E45EF17F01E36E7
:102F30001F3602E32684267E06E126801F6A1E6A6B
:102F40001D6A1C6A12001F2803E0D8801E3212007E
:102F5000D8901E3202E12682120026861200233605
:102F6000243602E3268C267E06E12688246A236A1C
:102F7000226A216A1200242803E0D880233212003A
:0A2F8000D8902332EAE1268A1200FD
:062F8A009EB802D0FDD745
:102F9000FCD71200D9CFE6FFE1CFD9FFFE0EDBCF81
:102FA000E6FF61EC14F0E5520D0EAD6EEEDFE5527A
:102FB000E7CFD9FF1200D9CFE6FFE1CFD9FF0F014C
:102FC000D950FD0F506FFF0EDA20516F010EEA6AE3
:102FD0005025E96E5151EA22EF50E66E61EC14F093
:102FE000E55250CFE9FF51CFEAFFEF50E66E61ECBA
:102FF00014F0E5520D0EAD6EC8DFE552E7CFD9FFF4
:103000001200D9CFE6FFE1CFD9FFFD0EDBCF2BF0C9
:10301000FE0EDBCF2CF02D6A2BC0E6FF2CC0E6FFA6
:103020002DC0E6FF000EE66E0F0EE66EECEC19F01A
:10303000F56E050EE15EF550000EE66E0F0EE66EC3
:1030400005EC1AF0E552E552F3CF54FFF4CF55FFEB
:103050000F01553504E254515008000E555503E256
:10306000500E546F556B566B576B57515519E8AE50
:1030700002D0553504D05451565D555157590EE282
:10308000000E5625E96E0F0E5721EA6EEF50AD6E19
:103090007CDF0F01562B000E5723E7D7E552E7CF11
:1030A000D9FF1200D9CFE6FFE1CFD9FF0F01526B54
:1030B0001A0E525D11E2FD0EDBCFE9FFDB2AFE0E98
:1030C000DBCFEAFF01E3DB2AEF50E66E61EC14F0A0
:1030D000E5520F01522BECD70D0EAD6E56DFE552C7
:1030E000E7CFD9FF12000F01DF0E506F010E516FB5
:1030F0000101DF510F01586F596B5A51581902E104
:103100005B51591918E00101FFA502D0FF950FD0BE
:103110005ACFE6FF61EC14F0E55258CFE6FF61ECC0
:1031200014F0E5520D0EAD6E30DF0101FF9558CF62
:103130005AFF59CF5BFF0F015A2B000E5B235B3503
:1031400004E25A51FF08000E5B5502E25A6B5B6BBA
:103150001200150EE66E3C0EE66E61EC1BF0E552B9
:10316000E552320EE66E33EC1CF0E5521200D9CF78
:10317000E6FFE1CFD9FFFE0EDBCF53FFE552E7CFED
:10318000D9FF1200D9CFE6FFE1CFD9FF020EE12629
:103190000A0EE66E51EC1CF0E55268EC1CF007ECF0
:1031A00004F0000901E0FBD7DEEC1BF065EC1CF03D
:1031B000C4502D6E2DC02EF02D6AC35000012D106D
:1031C0002B6E2EC02CF02BC0DEFF2CC0DDFFDECF1F
:1031D0002BF0DDCF2CF02BC0F3FF2CC0F4FF00D080
:0C31E000D9CFE1FFE552E7CFD9FF120084
:0431EC00D8CFE4FF55
:1031F000E0CFE4FFE46EDACFE4FFE2CFDAFFE9CF1D
:10320000E4FFEACFE4FFF3CFE4FFF4CFE4FFE652BC
:10321000D9CFE6FFE1CFD9FFE652F050020B05E02F
:10322000F050100B02E0F09214D0F050040B05E0C7
:10323000F050200B02E0F0940CD0F250010B07E0AC
:10324000F250080B04E08150DF6EF29002D0FAECED
:1032500012F0E552E552E7CFD9FFE552E5CFF4FF92
:10326000E5CFF3FFE5CFEAFFE5CFE9FFE5CFDAFFF2
:10327000E550E5CFE0FFE5CFD8FF100001017F0E5C
:10328000CA6FCAC1C9F1CAC1C8F1CAC1C7F1CAC1AE
:10329000C6F1CAC1C5F1CAC1C4F1CAC1C3F1D26F76
:1032A000D2C1D1F1D2C1D0F1D2C1CFF1D2C1CEF1D0
:1032B000D2C1CDF1D2C1CCF1D2C1CBF18C928D92E1
:1032C0008C908D908C968D968C948D948C9A8D9AF2
:1032D0008C988D988C9E91908C9C8D9C0101E0AD7A
:1032E00022D00101FFA11ED0DF0EE66E010EE66EB8
:1032F000E6EC0EF0E552E552D2C1E6FFD1C1E6FFA1
:10330000D0C1E6FFCFC1E6FF9EEC15F0E552E552D5
:10331000E552E552BF0EE66E010EE66EFFEC0EF0D2
:10332000E552E552DBD712001200D9CFE6FFE1CF1C
:0A333000D9FFE552E7CFD9FF1200E4
:06333A001E0EF66E080EE7
:10334000F76E000EF86E02010900F550126F0900C9
:10335000F550136F03E1126701D03DD00900F5501D
:103360000D6F0900F5500E6F0900F5500F6F090041
:103370000900F550E96E0900F550EA6E09000900F0
:103380000900F550106F0900F550116F0900090090
:10339000F6CF14F2F7CF15F2F8CF16F20DC2F6FF02
:1033A0000EC2F7FF0FC2F8FF0201105302E11153E2
:1033B00007E00900F550EE6E1007F8E21107F9D7A3
:1033C00014C2F6FF15C2F7FF16C2F8FF020112077A
:0833D000000E135BBFD71200D1
:0833D800FB0EE3CFF6FFFC0E33
:1033E000E3CFF7FFFD0EE3CFF8FFFE0EE3CFE9FFDB
:1033F000FF0EE3CFEAFFE9CFF3FFEACFF4FF0900C6
:10340000F5CFEFFFEE66FBD71200FE0EE3CFE9FF2C
:10341000FF0EE3CFEAFFF36AF46AEE5203E0F34AE9
:10342000F42AFBD71200FF0EE3CFF8FFE552FF0EA0
:10343000E3CFF7FFE552FF0EE3CFF6FFE552E66A72
:10344000E66AE66A0900F55209E0FD0EE32A05E1A5
:10345000FE0EE32A02E1FF0EE32AF4D7FD0EE3CFCE
:103460001CF0FE0EE3CF1DF0FF0EE3CF1EF01200A6
:10347000D9CFE6FFDACFE6FFE1CFD9FFE2CFDAFF1F
:10348000E652E652E652E652D950FB0F2B6EFF0E83
:10349000DA202C6E2BC0DEFFDD6EDECFE6FFDDCF47
:1034A000E6FFFB0EDBCFE6FFFC0EDBCFE6FFFD0EFB
:1034B000DBCFE6FF17C2E6FF18C2E6FF32EC04F0EE
:1034C000F56E070EE15C02E2E16AE552E16EF5504D
:1034D000020EF3CFDBFF030EF4CFDBFF020EDBCFD8
:1034E0002BF0030EDBCF2CF02BC0F3FF2CC0F4FF2E
:1034F000D9CFE1FFDACFE2FFE552E5CFDAFFE7CF40
:04350000D9FF1200DD
:0C350400D9CFE6FFDACFE6FFE1CFD9FF18
:10351000E2CFDAFFFB0EDBCF2BF0FC0EDBCF2CF083
:103520000001800E2C141AE1FB0EDBCFE9FFFC0E2C
:10353000DBCFEAFFEECFF3FFEDCFF4FFEE2A000E74
:10354000EF22F3CFE9FFF4CFEAFFFD0EDBCFEFFF71
:10355000EF502C6AF36E2CC0F4FF10D0FB0EDB5042
:10356000FE0806E1FD0EDBCFE6FF43EC1CF005D0C4
:10357000FD0EDBCFE6FF03EC04F0E552E552E5CFAC
:08358000DAFFE7CFD9FF1200CA
:083588001B502002F3CF17F0E5
:10359000F4CF18F02102F3501826000EF420196E13
:1035A0001B502202F3501926000EF4201A6E1B50F5
:1035B0002302F3501A261C502002F3501826F45010
:1035C0001922000E1A221C502102F3501926F45021
:1035D0001A221C502202F3501A261D502002F350CA
:1035E0001926F4501A221D502102F3501A261E509B
:0835F0002002F3501A2612001C
:0835F800D9CFE6FFDACFE6FFB0
:10360000E1CFD9FFE2CFDAFF3F0EC716C66AFD0E43
:10361000DB50C612FB0EDB50C712FC0EDB50030A58
:1036200009E0010A04E0020A06E1C78C04D0C78C55
:10363000C68801D0C688FD0EDB50050A03E0010AEA
:1036400004E1978E9486C79E01D09496949A9488AC
:0E365000C68AE552E5CFDAFFE7CFD9FF1200B8
:02365E00D9CFC2
:10366000E6FFDACFE6FFE1CFD9FFE2CFDAFF6C6AFF
:103670006B6AFD0EDBB06C88DBA202D06C8C6B8CAD
:10368000DBB46C8EDBA602D06B8801D06B8ADBA822
:1036900002D06C8401D06C94DBAC02D0A38A01D040
:1036A000A39ADBAE02D0A38801D0A398FC0EDB5016
:1036B0006F6E6C8A6B8EE552E5CFDAFFE7CFD9FFEC
:0236C0001200F6
:0E36C200D9CFE6FFDACFE6FFE1CFD9FFE2CFA6
:1036D000DAFFAC6AAB6AFD0EDBB0AC88DBA202D0CD
:1036E000AC8CAB8CDBB4AC8EDBA602D0AB8801D04B
:1036F000AB8ADBA802D0AC8401D0AC94DBAC02D0A6
:103700009D8A01D09D9ADBAE02D09D8801D09D9804
:10371000FC0EDB50AF6EAC8AAB8EE552E5CFDAFF24
:06372000E7CFD9FF120003
:0A372600506F7274312059202533D2
:10373000642C2058202533642C204669726520258E
:10374000642C20546F702025640D004946492032B6
:1037500030303620557365722050726F6365737315
:103760006F7220496E697469616C697A6564202E94
:043770002E2E0D00EC
:0C3774001A6A196A186A176A200EE76EBC
:10378000D8901B361C361D361E361736183619369D
:103790001A362050175C21501858225019582350BF
:1037A0001A5809E32050175E2150185A2250195A0E
:0C37B00023501A5A1B2AE72EE4D71200FF
:0437BC00D9CFE6FF7C
:1037C000DACFE6FFE1CFD9FFE2CFDAFFE652E652E9
:1037D000C350DF6E010EC4CFDBFFDECF2BF0DDCF99
:1037E0002CF02BC0F3FF2CC0F4FFE552E552E5525C
:0A37F000E5CFDAFFE7CFD9FF1200A2
:0637FA003DEC0EF0A6EC10
:103800000AF00101FF910101FFA107D009EC0BF0C3
:103810000101E0AD02D03EEC19F094EC19F0F3D7C1
:02382000120094
:0E382200F36AF46AFF0EE124E96EFF0EE22065
:10383000EA6EED6607D02F0EEF6404D03A0EEF600B
:0638400001D0F32A120082
:0A3846001EEE00F02EEE00F0F86A0E
:10385000269CA68EA69C4FEC14F09DEC19F0FDEC76
:063860001BF0F9D7120075
:0A386600FF0EE350376E480E01D04C
:103870004C0EE76EE72EFED7E76AE72EFED7372E0F
:06388000F7D70000120062
:0A388600FF0EE350ACBA04D0AF6AA5
:10389000AB8EAC8A949CACA2FED7AD6EF36EF46A8C
:0238A000120014
:0E38A200FF0EE350E84E1200000000D000D0F0
:0838B00000D0E82EFAD7120047
:0838B80030313233343536376C
:0938C00038396162636465660039
:0638CA00C2909D9C12005B
:0438D000C28212009E
:0238D400FEFFF5
:0438D60000000000EE
:00000001FF
