:020000040000FA
:0608000036EF1CF01200AF
:020806001200DE
:0608080039EF0AF01200B6
:02080E00C250D6
:08081000020B01E0010E1200D1
:060818006BEF18F0120066
:02081E000400D4
:1008200002390000170F000009000000FE38000028
:10083000240F000004000000FC3800002D0F000011
:1008400002000000FA3800002B0F00000200000038
:1008500064EC09F0FB0EDBCFF3FFDB06F35000097D
:100860000AE0B2EC09F0FA0E1DEC0AF0F3E12C1CE0
:10087000F1E1010E01D0000E93EF09F064EC09F0F4
:100880003B0EE12402E3E168E652E16E010EDB6A11
:10089000020EDB6AF90EDBCFF6FFFA0EDBCFF7FFB5
:1008A000FB0EDBCFF8FF0800F550DF6EDF5002E1F2
:1008B000B9EF08F0250EDF5C02E0ACEF08F0030EA4
:1008C000DB6A040EDB6A050EDB6A060EDB6A070EC6
:1008D000DB6ACCEC08F02D0EDF5C0CE02B0EDF5C4D
:1008E00009E0200EDF5C06E0230EDF5C03E0300E43
:1008F000DF5C1AE1DF50300A14E0130A0FE0030A4C
:100900000AE00B0A05E0060AE4E1030EDB80E1D70A
:10091000030EDB82DED7030EDB84DBD7030EDB8620
:10092000D8D7030EDB88D5D72A0EDF5C1BE1C8ECD5
:1009300008F016EC09F010E0030EDB801D681E685D
:10094000130EDBCF22F0140EDBCF23F0A2EC16F057
:10095000040E1BC0DBFF03D0130EFFEC08F0CCEC41
:1009600008F00BD0090EDB6A6DEC09F003E0E1EC56
:1009700009F0FAD7090EFFEC08F0030EDBB0DB98A4
:100980002E0EDF5C1BE1CCEC08F02A0EDF5C0BE1E5
:10099000C8EC08F016EC09F003E1130E51EC09F075
:1009A000CCEC08F00BD0090EDB6A6DEC09F003E02B
:1009B000E1EC09F0FAD7090E51EC09F0680EDF5CA2
:1009C00007E1CCEC08F0680EDF5C1DE1030E18D0E7
:1009D000740EDF5C17E07A0EDF5C14E0480EDF5C1B
:1009E00006E0540EDF5C03E05A0EDF5C02E1020E0B
:1009F00007D06C0EDF5C03E06A0EDF5C04E1010EE1
:100A0000A4EC09F0C9DBDF506E0A01E181D31E0AB4
:100A100001E192D1200A01E18FD13F0A01E149D1E0
:100A20001A0A01E146D10D0A01E143D1200A01E190
:100A300040D13A0A01E13DD1200A01E13AD1260A2A
:100A400001E135D10D0A01E132D11A0A01E1D9D013
:100A5000200A4AE0300A1FE0460A0EE0250A01E0BB
:100A600085D3D950F90FE96EFF0EDA20EA6E010E38
:100A7000EE5E000EEE5AEE5AB2EC09F0250EE66E6E
:100A800095DB03E12C1C01E16BD3AEEC09F001E234
:100A90006DD3DB2A6BD3080EDB6A040EDB50010832
:100AA00006E2040EDB0476EC09F0DB508BDB080E6B
:100AB000DB5009E0030EDB50010B05E172DB01E0C6
:100AC0004FD3080EDB6A64DBEFCFDFFF26EC0AF0C2
:100AD00003E12C1C01E144D3AEEC09F001E3DB2A75
:100AE00060DB01E143D33CD3070EDB5002080FE18A
:100AF000F2EC09F0030EB9EC09F00E0EEECFDBFFBD
:100B00000F0EEECFDBFF100EEECFDBFF20D0F70E87
:100B1000DBCF2EF0F80EDBCF2FF0020E2E5E000E94
:100B20002F5AF70E2EC0DBFFF80E2FC0DBFF2EC0B2
:100B3000E9FF2FC0EAFFA9EC09F02D6A0E0E2BC0C9
:100B4000DBFF0F0E2CC0DBFF100E2DC0DBFF0E0EE7
:100B5000DBCFE6FF0F0EDBCFE6FF100EDBCFE6FFAD
:100B6000EAEC1AF0E552E552E552130E1CC0DBFF29
:100B7000140E1DC0DBFF060EDB5005E0130EEDEC7E
:100B800009F001E26ADB11EC0AF002E2130E37DB36
:100B9000D4EC09F006E0040EEDEC09F002E2050EDB
:100BA0002EDB030EDBB005D0FCDA01E0D9D2080E53
:100BB000DB6A090EDB6A0E0EDBCFF6FF0F0EDBCF12
:100BC000F7FF100EDBCFF8FF0800F550DF6EDF50A7
:100BD00014E017EC0AF011E226EC0AF003E12C1CF9
:100BE00001E1BED2BBDB01E3DB2A090EDB2AD950CF
:100BF0000E0FE96E000ECBDBE7D7D3DA01E1B6D2F8
:100C0000AFD2C6DA110EEECFDBFF120EEDCFDBFF57
:100C1000110EDBCFE6FF120EDBCFE6FFDCEC1AF0A5
:100C2000E552E552130EF3CFDBFF140EF4CFDBFFDA
:100C3000060EDB5004E0130ED0DB01E20EDB11ECFC
:100C40000AF002E2130EDBDAAFDB05E0040EC5DBCF
:100C500002E2050ED4DA030EDBB005D0A2DA01E021
:100C60007FD2080EDB6A090EDB6A110EDBCFE9FFCB
:100C7000120EDBCFEAFFEFCFDFFFDF5014E0D7DB50
:100C800012E2E4DB03E12C1C01E16AD267DB01E341
:100C9000DB2A090EDB2A110EDB2ADBCFE9FF120E5D
:100CA000E8E3DB2AE6D77DDA01E160D259D2030E10
:100CB000DB8E070EDB0410E195DB040E5ADB0A0E17
:100CC000EECFDBFF0B0EEECFDBFF0C0EEECFDBFF2C
:100CD0000D0EEECFDBFF6CD0070EDB5003082CE1CE
:100CE000030EDBAE0DD0B2DA020E76DAEFCF2BF0C8
:100CF0002C6A2D6A2E6A2BAE39D02C682D6835D01F
:100D0000F70EDBCF2CF0F80EDBCF2DF0020E2C5EB1
:100D1000000E2D5AF70E2CC0DBFFF80E2DC0DBFFA6
:100D20002CC0E9FF2DC0EAFFEFCF2BF00A0E2BC03D
:100D3000DBFF0B0EDB6A38D0070EDB50020809E13F
:100D4000030EDBAE04D059DB2DAE10D00ED055DB38
:100D50000DD0030EDBAE12D079DA020E3DDAF9DAED
:100D60002D6A2E6A2CAE02D02D682E68E2DA0C0EA7
:100D70002DC0DBFF0D0E2EC0DBFF1AD0F70EDBCF30
:100D80002DF0F80EDBCF2EF0020E2D5E000E2E5A47
:100D9000F70E2DC0DBFFF80E2EC0DBFF2DC0E9FFE4
:100DA0002EC0EAFFD6DAC5DA0C0EDB6A0D0EDB6A5E
:100DB000060EDB5005E1010EF36E050EF3CFDBFFEF
:100DC000150EDB6A160EDB6AD950370F2B6E000E3C
:100DD000DA202C6E390E2BC0DBFF3A0E2CC0DBFF65
:100DE000380EDB6A080EDB6A0A0EAEDADF50780ACC
:100DF00012E0200A10E0280A0CE0200A0AE03F0A6C
:100E000006E00D0A02E0200A08E1020E05D0080EF5
:100E100003D0080EDF26100E97DA030EDBBE02D0D9
:100E2000DB92DB94DB50800B26E08ADA030EEB507A
:100E3000000AE8AE02D0D89008D0000EEE5C000E9A
:100E4000EE58000EEE58000EEE5815E211DA20684A
:100E500021682268236870EC1AF00A0E17C0DBFFC5
:100E60000B0E18C0DBFF0C0E19C0DBFF0D0E1AC0F5
:100E7000DBFF2D0E08D0030EDBA202D02B0E03D019
:100E8000DBA408D0200EF36E170EF3CFDBFF150E98
:100E9000DB2A02D0170EDB6A050EDB5003E1B5D961
:100EA00001E189D0DE0E2B6E380E2C6E000E2D6EF9
:100EB000070EDBCF2EF02F6A306A316A2EC020F089
:100EC0002FC021F030C022F031C023F0D1D9CDECB9
:100ED0001BF02B501724F36E2C501820F46E2D505D
:100EE0001920F86EF4CFF7FFF3CFF6FF0800090ED4
:100EF000F5CFDBFF580EDF5C0FE1610EF36E090EDC
:100F000079D90AE3200E2B6E090EDBCFE7FF2B50B9
:100F1000E75E090EE7CFDBFF070EDBCF2BF02C6A75
:100F20002D6A2E6A0DDA2BC020F02CC021F02DC0C6
:100F300022F02EC023F0EECF1BF0EECF1CF0EECF50
:100F40001DF0EFCF1EF0CDEC1BF01EC0EDFF1DC05D
:100F5000EDFF1CC0EDFF1BC0EFFF390EDBCFE9FF3B
:100F6000DB063A0EDBCFEAFF01E2DB06090EDBCF40
:100F7000EFFF150EDB2A49D995E1030EDBA61DD044
:100F80006F0EDF5C06E1BFD918E3150EDB2859DAD6
:100F900014D0780EDF5C09E0580EDF5C06E0620ECC
:100FA000DF5C03E0420EDF5C08E1020EF36E160E1A
:100FB000F3CFDBFF02D0150EDB6A030EDB50100B04
:100FC0000EE0040EDBCF2BF0050EDB50D8802B5447
:100FD00006E2060EDB5003E1040EDB5032DA93D951
:100FE0000AE2050EDBCFE7FF150EDB50E75E050ECC
:100FF000E7CFDBFF02D0050EDB6A040EDBCF2BF060
:10100000160E43D9D8802B5414E2160EDBCFE6FF20
:10101000150EDBCFE6FF040EDBCFE6FF050EDB503F
:10102000E552E75CE552D880E754E552D880E754B2
:101030005DD9030EDB50010B0BE1080EDB5008E01D
:10104000B0D801E08DD0080EDB50BCD8080EDB6AAA
:10105000170EDB5007E086D9170EEFD903E12C1CE1
:1010600001E17ED0160EDB5016E07CD9300EE66E24
:101070009DD802E12C1C74E075D9DFCFE6FF2EEC81
:101080001AF0E552E552E552F4CF2CF00001F31CC2
:1010900002E12C1C65E0050EDBCF2BF0160EDB50B9
:1010A000D8802B5409E2050EDBCFE7FF160EDB508C
:1010B000E75E050EE7CFDBFF300EE66E050EC9D901
:1010C0004FE1390EDB2ADBCFE9FF3A0E01E3DB2AE1
:1010D000DBCFEAFF090EEFCFDBFFDB500EE042D99A
:1010E000090EABD902E12C1C3BE0390EDB2ADBCF29
:1010F000E9FF3A0EEDE3DB2AEBD753D831E1160EC8
:10110000DBCFE6FF080EC1D8E552E7245BD82ED02E
:10111000070EDB50030A1CE0010A14E0030A07E093
:1011200079D9DBCFEEFF020EDBCFEDFF1FD0F3D876
:10113000306A2EAE02D02F6830682AD8BAD830C0B4
:10114000EEFF14D0E8D82EBE2F6822D8B2D80ED029
:1011500061D9DBCFEFFF0AD079D905E12C1C03E17F
:10116000F368F46810D0FAD801E3DB2A77D953EF9B
:1011700004F0010EDBCF2BF0020EDBCF2CF02BC0E6
:10118000F3FF2CC0F4FFD9CFE1FFDACFE2FFCBD0E1
:1011900029D9020EB9EF09F061D90800F550DF6EC8
:1011A0001200200EE66E080E29EF0AF02EEC1AF05F
:1011B000E552E552E552F3CF2BF0F4CF2CF00001CD
:1011C000F31C12002B6E2C6AD950010F4DD92B50F5
:1011D000EE262C50ED2212002F5E000E305AF70E34
:1011E0002FC0DBFFF80E30C0DBFF2FC0E9FF30C09F
:1011F000EAFF1200DBCFF4FFF350F45C1200DB5087
:10120000E76E040EE7CFDBFF12000A0EDBCF2BF0F8
:101210000B0EDBCF2CF00C0EDBCF2DF00D0EDBCF49
:101220002EF02B502C102D102E101200130EEECF7E
:10123000DBFF140EEDCFDBFF130EDBCF2BF0140E14
:10124000DBCF2CF00001800E2C141200F70EDBCF48
:101250002FF0F80EDBCF30F01200050EDB50E66EFB
:10126000D950130F01D9E552E750EE6EED6A120026
:101270000A0EDBCF1BF00B0EDBCF1CF00C0EDBCF0E
:101280001DF00D0EDBCF1EF01200DBCFE6FF150EBA
:10129000DBCFE6FF050EDB50E552E724E552E724FD
:1012A0001200DB50CED8010EF36E060EF3CFDBFF3B
:1012B0001200EE50EFCFEAFFE96E2DC0EEFF2EC018
:1012C000EEFF2FC0EEFF1200D9CFE6FFDACFE6FF28
:1012D000E1CFD9FFE2CFDAFF1200DFCFE6FFE66A07
:1012E00024EC1CF0E552E552F3501200E76E080EB4
:1012F000E7CFDBFF1200EECF2BF0EECF2CF0EFCFDD
:101300002DF02E6A1200050EDBCF2BF0150EDB50F0
:10131000D8802B541200010EDBCF2DF0020EDBCF54
:101320002EF02F6A1200E552E5CFDAFFE7CFD9FFA2
:1013300012000A0E2BC0DBFF0B0E2CC0DBFF1200CD
:10134000D9500A0F34EF0AF0F36E070EF3CFDBFF2C
:101350001200EECF2BF0EFCF2CF01200010EDB2AA3
:10136000020E1200FC0EDBCFE6FFFD0EDBCFE6FF28
:1013700012002B5E000E2C5AF70E2BC0DBFFF80E6E
:101380002CC0DBFF2BC0E9FF2CC0EAFF1200DA20E3
:10139000EA6EEF2AEECFF6FF000EEF22EECFF7FF58
:1013A000EF22EECFF8FF1200040EDBCFE6FF130EA4
:1013B000DB50E552E75C9ADFDB5004DF060EDB50C2
:1013C0001200090EDB500A0DF350DF24D00FE76E38
:1013D000090EE7CFDBFFCCEF08F0DB50F36E050E14
:1013E000FAEF08F0F70EDBCF2BF0F80EDBCF2CF086
:1013F0001200DFCFE6FFD6EF08F028DF030EECDEA9
:101400007BEF09F028EC04F0E552E552E552E55295
:1014100000091200BDDEEE50EFCFEAFFE96E010ECB
:101420001200130EDB50F36E040EFAEF08F0040EF8
:10143000DB50F36E090EFAEF08F0DBCFE6FFD6EFD4
:1014400008F0E76E050EE7CFDBFF12008BDFF9EF48
:1014500009F0DBCFE6FF86DF02EF0AF0D950F90F83
:10146000E96EFF0EC7EF09F0E96E000EDA20EA6EB2
:02147000120068
:0E147200DACFE4FFE2CFDAFFE9CFE4FFEACF02
:10148000E4FFE652F2A202D0A0D802D09EB6CCD899
:10149000E552E5CFEAFFE5CFE9FFE5CFDAFF11003E
:1014A000E66A010EE66E050EE66E0FEC1BF0E552E5
:1014B000E552E5521200070EB46E000E886E876E7C
:1014C000866E856E846E836E826E816E806E916E86
:1014D000906E8F6E8E6E8D6E8C6E8B6E8A6E896E38
:1014E0002F0E926EFD0E936E9C0E946E956A966A08
:1014F0009768040E986E0E0E9A6E9968C16AF19EF6
:10150000B0989C8EA26A9F6AA06A9D6AA36AA56A27
:10151000C7DF9F86D08E9E969D86F06AF288F09EE9
:10152000F098F192F09AF16AF28CF28E1200D9CF13
:10153000E6FFE1CFD9FFE652BEDF0101FF97FF9939
:101540000F01C30E0B6F010E0C6FDF6A100EDF5C14
:101550000AE2DF50EA6A0B25E96E0C51EA227F0E9F
:10156000EF6EDF2AF3D70101DC6B010EDD6FC20ED7
:10157000DE6F0101FF850101E16BE26B0101BF6BD1
:10158000C16BC26B010ED56E320ED76ECF0ED66E0A
:10159000D59EBF0EE66E010EE66E8BD8E552E55283
:1015A0000101FF93BF0EE66E010EE66E82D8E55292
:1015B000E5520101FF93E552E552E7CFD9FF120052
:1015C00082828088949292981200F2920F01200EEB
:1015D000076F9F860101FFA906D00F01E00E046F7F
:1015E000000E056F05D00F01C00E046F000E056FD1
:1015F0000101FFA1FF79FFA706D00F01800E026F46
:10160000000E036F05D00F01A00E026F000E036FD6
:10161000C9CF08FF02CFE9FF03CFEAFF022B000E7C
:101620000323EF50C96E12009E96C9CF08FF0F0129
:101630000751000823E204CFE9FF05CFEAFF042B9E
:10164000000E052308CFEFFF02CFE9FF03CFEAFF2B
:10165000022B0323EFCF08FF08CFC9FF070707516D
:101660000CE10101020EDD6F0101FF93FF81320EDB
:10167000D76ECF0ED66EF294D58E01D0C96A120005
:10168000D9CFE6FFE1CFD9FF0101FFA10ED0FD0EBA
:10169000DBCFE6FFFE0EDBCFE6FFC1EC14F0E55238
:1016A000E5529D960101FF919D86E552E7CFD9FF56
:1016B0001200D9CFE6FFE1CFD9FF0101FFB332D04D
:1016C000FD0EDBCFE9FFFE0EDBCFEAFF1E0EE926A3
:1016D000000EEA22EF50020809E1FD0EDBCFE6FF23
:1016E000FE0EDBCFE6FF69D8E552E552FD0EDBCFFB
:1016F000E9FFFE0EDBCFEAFF150EE926000EEA2217
:10170000EF9EFD0EDBCFE6FFFE0EDBCFE6FF2FECFC
:1017100014F0E552E5529D960101FF77FF839D8607
:101720000101DC2BE552E7CFD9FF12009D960101A4
:10173000FF919D861200D9CFE6FFE1CFD9FF0001CE
:10174000166BD950FD0FE96EFF0EDA20EA6E010E1E
:10175000EE1801E1ED5002E1168101D0BA6AD950CC
:10176000FB0FE96EFF0EDA20EA6E010EEE1801E1C2
:10177000ED5002E1168301D0B76AD950F90FE96E36
:10178000FF0EDA20EA6E010EEE1801E1ED5002E1E3
:10179000168501D0736AD950F70FE96EFF0EDA2073
:1017A000EA6E010EEE1801E1ED5002E1168701D05C
:1017B000706AE552E7CFD9FF1200D9CFE6FFE1CF3B
:1017C000D9FFFD0EDBCFE9FFFE0EDBCFEAFF1C0EDB
:1017D000E926000EEA22EF6AFD0EDBCFE9FFFE0EDE
:1017E000DBCFEAFF170EE926000EEA22EF6AC6AE4B
:1017F0000ED0C69EFD0EDBCFE9FFFE0EDBCFEAFF6B
:10180000170EE926000EEA22010EEF6E22D0F150EB
:10181000800B10E0F250080B0DE0FD0EDBCFE9FF6E
:10182000FE0EDBCFEAFF170EE926000EEA22020EBB
:10183000EF6E0FD0F0A60DD0909EFD0EDBCFE9FF2E
:10184000FE0EDBCFEAFF170EE926000EEA22030E9A
:10185000EF6E250EC614250819E0FD0EDBCFE9FF5B
:10186000FE0EDBCFEAFF1C0EE926000EEA22010E77
:10187000EF6EFD0EDBCFE9FFFE0EDBCFEAFF170EAA
:10188000E926000EEA22C6CFEFFF80D1C55019E04D
:10189000FD0EDBCFE9FFFE0EDBCFEAFF1C0EE926D3
:1018A000000EEA22020EEF6EFD0EDBCFE9FFFE0E08
:1018B000DBCFEAFF170EE926000EEA22C5CFEFFFC5
:1018C00065D1D0BE19D0FD0EDBCFE9FFFE0EDBCF18
:1018D000EAFF1C0EE926000EEA22030EEF6EFD0E53
:1018E000DBCFE9FFFE0EDBCFEAFF170EE926000E85
:1018F000EA22D0CFEFFF4AD19DB619D0FD0EDBCF43
:10190000E9FFFE0EDBCFEAFF1C0EE926000EEA22FD
:10191000040EEF6EFD0EDBCFE9FFFE0EDBCFEAFF1C
:10192000170EE926000EEA229DCFEFFF2FD19C5023
:1019300019E0FD0EDBCFE9FFFE0EDBCFEAFF1C0E48
:10194000E926000EEA22050EEF6EFD0EDBCFE9FF61
:10195000FE0EDBCFEAFF170EE926000EEA229CCF2F
:10196000EFFF14D1080E9F5C19E0FD0EDBCFE9FFFD
:10197000FE0EDBCFEAFF1C0EE926000EEA22060E61
:10198000EF6EFD0EDBCFE9FFFE0EDBCFEAFF170E99
:10199000E926000EEA229FCFEFFFF8D0A25019E00F
:1019A000FD0EDBCFE9FFFE0EDBCFEAFF1C0EE926C2
:1019B000000EEA22070EEF6EFD0EDBCFE9FFFE0EF2
:1019C000DBCFEAFF170EE926000EEA22A2CFEFFFD7
:1019D000DDD0A55019E0FD0EDBCFE9FFFE0EDBCF19
:1019E000EAFF1C0EE926000EEA22080EEF6EFD0E3D
:1019F000DBCFE9FFFE0EDBCFEAFF170EE926000E74
:101A0000EA22A5CFEFFFC2D0100EF214100819E0A1
:101A1000FD0EDBCFE9FFFE0EDBCFEAFF1C0EE92651
:101A2000000EEA22090EEF6EFD0EDBCFE9FFFE0E7F
:101A3000DBCFEAFF170EE926000EEA22F2CFEFFF16
:101A4000A5D0470EF11419E0FD0EDBCFE9FFFE0E25
:101A5000DBCFEAFF1C0EE926000EEA220A0EEF6E2B
:101A6000FD0EDBCFE9FFFE0EDBCFEAFF170EE92606
:101A7000000EEA22F1CFEFFF89D0C00EF01419E07A
:101A8000FD0EDBCFE9FFFE0EDBCFEAFF1C0EE926E1
:101A9000000EEA220B0EEF6EFD0EDBCFE9FFFE0E0D
:101AA000DBCFEAFF170EE926000EEA22F0CFEFFFA8
:101AB0006DD092A819D0FD0EDBCFE9FFFE0EDBCF73
:101AC000EAFF1C0EE926000EEA220C0EEF6EFD0E58
:101AD000DBCFE9FFFE0EDBCFEAFF170EE926000E93
:101AE000EA2292CFEFFF52D093B019D0FD0EDBCF98
:101AF000E9FFFE0EDBCFEAFF1C0EE926000EEA220C
:101B00000D0EEF6EFD0EDBCFE9FFFE0EDBCFEAFF21
:101B1000170EE926000EEA2293CFEFFF37D03E0ED4
:101B200094141C0819E0FD0EDBCFE9FFFE0EDBCF9D
:101B3000EAFF1C0EE926000EEA220E0EEF6EFD0EE5
:101B4000DBCFE9FFFE0EDBCFEAFF170EE926000E22
:101B5000EA2294CFEFFF1AD097BE18D0FD0EDBCF4C
:101B6000E9FFFE0EDBCFEAFF1C0EE926000EEA229B
:101B70000F0EEF6EFD0EDBCFE9FFFE0EDBCFEAFFAF
:101B8000170EE926000EEA2297CFEFFFE552E7CFC6
:041B9000D9FF120067
:0C1B9400D9CFE6FFE1CFD9FFFE0EDB50F9
:101BA00011E1FC0EDBCFE9FFFD0EDBCFEAFFEF50CA
:101BB0007F0808E2FC0EDBCFE9FFFD0EDBCFEAFF7A
:101BC0007F0EEF6EE552E7CFD9FF1200D9CFE6FFC7
:101BD000E1CFD9FFFE0EDB5013E1FC0EDBCFE9FFB6
:101BE000FD0EDBCFEAFFEFCF2BF07F0E2B5C08E280
:101BF000FC0EDBCFE9FFFD0EDBCFEAFF7F0EEF6EC1
:101C0000E552E7CFD9FF1200D9CFE6FFE1CFD9FFE8
:101C1000FD0EDBCF2BF0FE0EDBCF2CF0D8902C503E
:101C200004E6D00E2B5C070E2C5806E20F01D00EF6
:101C3000286F070E296F19D0FD0EDBCF2BF0FE0E9B
:101C4000DBCF2CF02C3404E22B50CE08080E2C54A1
:101C500006E20F01CE0E286F080E296F06D0FD0E8A
:101C6000DBCF28FFFE0EDBCF29FF28CF2BF029CFBB
:101C70002CF0D00E2B5E070E2C5A2B5000D0E552C4
:101C8000E7CFD9FF120012EC19F0F00EE66E1DEC52
:101C900018F0E552938A9388938693849982998069
:101CA000938E938C9A849A82998699849A8A9A8838
:101CB00094809A869A8E9A9C919C01017F0ECA6F9D
:101CC000CAC1C9F1CAC1C8F1CAC1C7F1CAC1C6F106
:101CD000CAC1C5F1CAC1C4F1CAC1C3F1D26FD2C170
:101CE000D1F1D2C1D0F1D2C1CFF1D2C1CEF1D2C1A6
:101CF000CDF1D2C1CCF1D2C1CBF1000EE66EE66AD5
:101D0000E66EE66AE66EE66AE66EE66A9BEC0BF065
:101D1000F56E080EE15EF55012EC19F0BF0EE66E9E
:101D2000010EE66E59EC0BF0E552E552DDEC12F0D7
:101D3000710E2B6E370E2C6E2D6A2BC0E6FF2CC059
:101D4000E6FF2DC0E6FFE4EC19F0E552E552E5525E
:101D5000E0EF0AF0DF0EE66E010EE66E40EC0BF0EF
:101D6000E552E5524FD80101E151020B01E0010EAD
:101D7000E66EE66AE151010BE66EE66A0101C751C3
:101D8000E66EE66AC351E66EE66A4C0E2B6E370EBF
:101D90002C6E2D6A2BC0E6FF2CC0E6FF2DC0E6FF9F
:101DA000E4EC19F0F56E0B0EE15EF550D2C1E6FFE2
:101DB000D1C1E6FFD0C1E6FFCFC1E6FF55EC15F07B
:101DC000E552E552E552E5520101BA5112E00F0128
:101DD000010E2A6F1D0E2A5D0CE22ACFE6FF89EC68
:101DE00013F0E552000902E02ACFC1F10F012A2BBE
:101DF000F1D7BF0EE66E010EE66E59EC0BF0E55220
:101E0000E5521200D9CFE6FFE1CFD9FFE6522BCF42
:101E10002BF02CCF2CF0050ED8902C322B32E8046E
:101E2000FBE12B50DF6E0F012B2B000E2C23E5C1A5
:101E3000C3F1E6C1C4F1E7C1C5F1E8C1C6F1E9C12A
:101E4000C7F1EAC1C8F1EBC1C9F1ECC1CAF1EDC1FA
:101E5000CBF1EEC1CCF1EFC1CDF1F0C1CEF101017A
:101E6000E5512E6AD00F2D6E070E2E22E95100018A
:101E70002D242B6E000E2E202C6E7F0E2B5E000E5E
:101E80002C5A2BC0E6FF2CC0E6FFBEDEE552E55221
:101E90000101D06FCF6F0101E5512E6AD00F2D6E79
:101EA000070E2E22E9512F6E306A2F502D5C2B6EBB
:101EB00030502E582C6E7F0E2B26000E2C222BC05D
:101EC000E6FF2CC0E6FFA0DEE552E5520101D26F2D
:101ED000D16F8150040B01E0010E2B6E0101E15125
:101EE000010B2B14010BF36EFE0E8D14F3108D6E8F
:101EF0008150080B01E0010E2B6EE151020B01E055
:101F0000010E2B14010BF36EFE0E8C14F3108C6E6D
:101F10008150100B01E0010E2B6EE251010B2B14CE
:101F2000010BF36EF346FD0E8D14F3108D6E815090
:101F3000200B01E0010E2B6EE251020B01E0010EBD
:101F40002B14010BF36EF346FD0E8C14F3108C6E04
:101F5000E151100B02E08D8401D08D94E151200BF2
:101F600002E08C8401D08C94E251100B02E08D864B
:101F700001D08D96E251200B02E08C8601D08C9628
:101F8000E151040B02E08D8801D08D98E151080BDE
:101F900002E08C8801D08C98E151400B02E08D8AE0
:101FA00001D08D9AE151800B02E08C8A01D08C9A8D
:101FB000E251400B02E08D8C01D08D9CE251800BF0
:101FC00002E08C8C01D08C9C8850800B02E09190B8
:101FD00001D091808C9EC50EE66E010EE66E81509A
:101FE000400B01E0010EE66ED5DDE552E552E5520B
:101FF000C50EE66E010EE66E8150800B01E0010E0B
:10200000E66EE4DDE552E552E552C60EE66E010EDF
:10201000E66E8750010BE66EBDDDE552E552E552F6
:10202000C60EE66E010EE66E8750020B01E0010E51
:10203000E66ECCDDE552E552E552CB0EE66E010EC2
:10204000E66E8750040B01E0010EE66EA3DDE5525B
:10205000E552E552CB0EE66E010EE66E8750080B98
:1020600001E0010EE66EB2DDE552E552E552CC0E1E
:10207000E66E010EE66E8850020B01E0010EE66E80
:1020800089DDE552E552E552CC0EE66E010EE66EB4
:102090008850040B01E0010EE66E98DDE552E55232
:1020A000E552CD0EE66E010EE66E8850080B01E09B
:1020B000010EE66E6FDDE552E552E552CD0EE66E9D
:1020C000010EE66E8250010BE66E80DDE552E552B0
:1020D000E552CE0EE66E010EE66E8850100B01E062
:1020E000010EE66E57DDE552E552E552CE0EE66E84
:1020F000010EE66E8850200B01E0010EE66E66DDF3
:10210000E552E552E5520101E0BB4AD0D9CFE9FFE3
:10211000DACFEAFF0101BF91EF50010B01E0BF816F
:10212000D9CFE9FFDACFEAFFBF93EF50020B01E00E
:10213000BF83D9CFE9FFDACFEAFFBF95EF50040B99
:1021400001E0BF85D9CFE9FFDACFEAFFBF97EF50B3
:10215000080B01E0BF87D9CFE9FFDACFEAFFBF9BC9
:10216000EF50100B01E0BF8BD9CFE9FFDACFEAFFC8
:10217000BF99EF50200B01E0BF89D9CFE9FFDACF3B
:10218000EAFFBF9FEF50400B01E0BF8FD9CFE9FFBF
:10219000DACFEAFFBF9DEF50800B01E0BF8D52D038
:1021A000F6C11EF0D1EC15F01CC033F01DC034F0A8
:1021B0001EC035F01FC036F0710E216E3D0E226E2E
:1021C0007A0E236E410E246E33C01CF034C01DF015
:1021D00035C01EF036C01FF035EC16F01CC02FF0D5
:1021E0001DC030F01EC031F01FC032F0216A226ADB
:1021F000800E236E430E246E2FC01CF030C01DF0E5
:1022000031C01EF032C01FF0E2EC15F01CC02BF004
:102210001DC02CF01EC02DF01FC02EF0216A226AB6
:10222000200E236E410E246E2BC01CF02CC01DF01E
:102230002DC01EF02EC01FF035EC16F0CFEC16F0BE
:0E2240001EC0BFF1E552E552E7CFD9FF1200F4
:02224E00D9CFE6
:10225000E6FFE1CFD9FFF29CFD0EDBCFE9FFFE0EDA
:10226000DBCFEAFFEE52EF6AFD0EDBCFE9FFFE0E99
:10227000DBCFEAFF540EE926000EEA22EF6AF28C69
:10228000E552E7CFD9FF1200D9CFE6FFE1CFD9FF62
:10229000E6520101AE0E5D6F0F0E5E6FAD0E5F6F09
:1022A0000F0E606F010E086F080EE66E010EE66EEF
:1022B000CEDFE552E55201016E0EB66F0F0EB76F1D
:1022C0006D0EB86F0F0EB96F020E616F610EE66E84
:1022D000010EE66EBCDFE552E552150EE66E7C0E91
:1022E000E66E74EC1BF0E552E5529F989F9A949C21
:1022F000948EAE50DF6EAE50DF6E9E9A150EE66E77
:102300007C0EE66E42EC1BF0E552E552A59AA598CC
:10231000989298846E50DF6E6E50DF6EA49A010121
:10232000BA6BE552E552E7CFD9FF1200D9CFE6FFED
:10233000E1CFD9FFFD0EDBCFE9FFFE0EDBCFEAFFD9
:10234000EF0402E19D8801D0A388E552E7CFD9FFD1
:102350001200D9CFE6FFE1CFD9FFD950FD0FE96ECA
:10236000FF0EDA20EA6EEE50ED100AE19EA807D0CB
:10237000080EE66E010EE66ED9DFE552E55209D091
:10238000A4A807D0610EE66E010EE66ECFDFE5521F
:10239000E552E552E7CFD9FF1200D9CFE6FFE1CFF2
:1023A000D9FFD950FD0FE96EFF0EDA20EA6EEE502C
:1023B000ED1005E1ABB2AB98AB889D8A04D06BB24F
:1023C0006B986B88A38AE552E7CFD9FF1200D9CF6B
:1023D000E6FFE1CFD9FFFD0EDBCFE9FFFE0EDBCF3D
:1023E000EAFFEF0403E19E989D9802D0A498A39879
:1023F000E552E7CFD9FF1200D9CFE6FFE1CFD9FFF1
:10240000FD0EDBCFE9FFFE0EDBCFEAFFEE52EF5011
:102410000AE1FD0EDBCFE6FFFE0EDBCFE6FFD7DFE6
:10242000E552E5522FD0FD0EDBCFE9FFFE0EDBCFEC
:10243000EAFF020EE926000EEA22EECFF3FFEDCF0F
:10244000F4FFEE2AEF22F3CFE9FFF4CFEAFFEF50DB
:10245000E66EFD0EDBCFE9FFFE0EDBCFEAFF570E87
:10246000E926000EEA22EE50EFCFEAFFE96EE552D0
:10247000E750EF6EFD0EDBCFE9FFFE0EDBCFEAFF8C
:10248000EE52EF06E552E7CFD9FF1200D9CFE6FFB3
:10249000E1CFD9FFE65201010651060A4FE0030AD7
:1024A00041E0010A37E0070A2DE0010A1EE0030AB5
:1024B0000CE0010A02E0066B4FD0066BFE0EDB500B
:1024C000C90802E1010E066F47D0066B079BFE0E9E
:1024D000DB50170802E1079D05D0FE0EDB501808FF
:1024E00001E1078D020E066F37D0FE0EDBCF02F141
:1024F000DBCFD7F10251800B01E0010EBA6F030E62
:10250000066F2AD0FE0EDBCF03F1DBCFD8F1040E2D
:10251000066F22D0FE0EDBCF04F1DBCFD9F1050E22
:10252000066F1AD0FE0EDBCF05F1DBCFDAF107AD77
:1025300003D0060E066F01D0066B0ED002510325A4
:1025400004250525DF6EDF1CF36EFE0EDB50F35C09
:1025500001E1078B066B00D0E552E552E7CFD9FFCA
:1025600012009EAA0AD09E9A5DC1E9FF5EC1EAFFF1
:10257000EF50E66E8BDFE5521FD09EA807D0080E05
:10258000E66E010EE66E38DFE552E552A4AA0BD0E6
:10259000A49AB6C1E9FFB7C1EAFFEF50E66E0AECB4
:1025A00019F0E55209D0A4A807D0610EE66E010E1D
:1025B000E66E22DFE552E552120044EF11F0D9CF6A
:1025C000E6FFE1CFD9FF590E1D6E1E6AFD0EDBCF6F
:1025D00022F0FE0EDBCF23F0A2EC16F01BC0BBF105
:1025E0001CC0BCF1080E0101BB27010EBC23F29CEC
:1025F000BBC1E9FFBCC1EAFF020EE926000EEA22D8
:10260000FB0EDBCFEEFFFC0EDBCFEDFFBBC1E9FF26
:10261000BCC1EAFFEE52F90EDBCFEFFFF28CFD0EEC
:10262000DBCFE6FFFE0EDBCFE6FF93DEE552E552A1
:10263000E552E7CFD9FF1200D9CFE6FFE1CFD9FFAE
:10264000590E1D6E1E6AFD0EDBCF22F0FE0EDBCF93
:1026500023F0A2EC16F01BC0BDF11CC0BEF1080EA9
:102660000101BD27010EBE23BDC1E9FFBEC1EAFFC6
:10267000570EE926000EEA22EE50EFCFEAFFE96E90
:10268000FB0EDBCFEFFFD950FD0FE96EFF0EDA2016
:10269000EA6EEE50ED1003E19EA8FED702D0A4A88A
:1026A000FED7E552E7CFD9FF1200D9CFE6FFE1CF41
:1026B000D9FF01010951000801E2FBD75C515C2BF5
:1026C000EA6A0C0FE96E010EEA22FE0EDBCFEFFF85
:1026D000DB500D0803E0500E5C5D0FE3F29C0C0E26
:1026E0000A6F010E0B6F5CC109F1F28C5C6B000E7E
:1026F000E66EE66A2EDEE552E552E552E7CFD9FFF7
:102700001200010107AD02D0010E02D0000E00D070
:102710001200D9CFE6FFE1CFD9FF020EE126010E6C
:10272000DB6A010107AD04D007BB02D0DB5068D0E3
:10273000090EF36EFE0EDBCFF4FFF350F45C13E2F0
:10274000FE0EDB042B6E010E2B5204E0E846FE0B5E
:102750002B06FCE1DF6EDF5001010515E76E010E6F
:10276000E7CFDBFF4BD0110EF36EFE0EDBCFF4FF95
:10277000F350F45C14E2FE0EDB50F70F2B6E010EEB
:102780002B5204E0E846FE0B2B06FCE1DF6EDF5027
:1027900001010415E76E010EE7CFDBFF2FD0190E04
:1027A000F36EFE0EDBCFF4FFF350F45C14E2FE0E8A
:1027B000DB50EF0F2B6E010E2B5204E0E846FE0BB0
:1027C0002B06FCE1DF6EDF5001010315E76E010E01
:1027D000E7CFDBFF13D0FE0EDB50E70F2B6E010EB1
:1027E0002B5204E0E846FE0B2B06FCE1DF6EDF50C7
:1027F00001010215E76E010EE7CFDBFFDB5000D0D1
:0C280000D9CFE1FFE552E7CFD9FF12006D
:04280C00000EE96E63
:10281000EA6E040013EC14F0EA2A080EEA5CD8A46D
:1028200009EF14F01200EF6AE93E13EF14F0120002
:10283000FF0EE3CF09F009380F0B060FD8B2070FD0
:102840002A0FAD6E7CEC17F009500F0B060FD8B2B3
:10285000070F2A0FAD6E7CEC17F0000C1200EACFC8
:1028600004F0E9CF05F0FF0EE3CFEAFFFE0EE3CF61
:10287000E9FFFFA741D0EECFA0F0EECFA1F0EECF61
:10288000A2F0EECFA3F0EECFA4F0EECFA5F0EECF06
:10289000A6F0EECFA7F0EECFA8F0EECFA9F0EECFE6
:1028A000AAF0EECFABF0EECFACF0EECFADF0EECFC6
:1028B000AEF0EECFAFF0EECFB0F0EECFB1F0EECFA6
:1028C000B2F0EECFB3F0EECFB4F0EECFB5F0EECF86
:1028D000B6F0EECFB7F0EECFB8F0EECFB9F0EECF66
:1028E000BAF0EECFBBF0EECFBCF0EECFBDF0EECF46
:1028F000BEF0EECFBFF040D0EECF80F0EECF81F053
:10290000EECF82F0EECF83F0EECF84F0EECF85F005
:10291000EECF86F0EECF87F0EECF88F0EECF89F0E5
:10292000EECF8AF0EECF8BF0EECF8CF0EECF8DF0C5
:10293000EECF8EF0EECF8FF0EECF90F0EECF91F0A5
:10294000EECF92F0EECF93F0EECF94F0EECF95F085
:10295000EECF96F0EECF97F0EECF98F0EECF99F065
:10296000EECF9AF0EECF9BF0EECF9CF0EECF9DF045
:10297000EECF9EF0EECF9FF004C0EAFF05C0E9FF66
:102980001200FFA11200EACF04F0E9CF05F0FF0E1C
:10299000E3CFEAFFFE0EE3CFE9FFFFA941D0C0C0BD
:1029A000EEFFC1C0EEFFC2C0EEFFC3C0EEFFC4C069
:1029B000EEFFC5C0EEFFC6C0EEFFC7C0EEFFC8C049
:1029C000EEFFC9C0EEFFCAC0EEFFCBC0EEFFCCC029
:1029D000EEFFCDC0EEFFCEC0EEFFCFC0EEFFD0C009
:1029E000EEFFD1C0EEFFD2C0EEFFD3C0EEFFD4C0E9
:1029F000EEFFD5C0EEFFD6C0EEFFD7C0EEFFD8C0C9
:102A0000EEFFD9C0EEFFDAC0EEFFDBC0EEFFDCC0A8
:102A1000EEFFDDC0EEFFDEC0EEFFDFC0EEFF40D018
:102A2000E0C0EEFFE1C0EEFFE2C0EEFFE3C0EEFF6C
:102A3000E4C0EEFFE5C0EEFFE6C0EEFFE7C0EEFF4C
:102A4000E8C0EEFFE9C0EEFFEAC0EEFFEBC0EEFF2C
:102A5000ECC0EEFFEDC0EEFFEEC0EEFFEFC0EEFF0C
:102A6000F0C0EEFFF1C0EEFFF2C0EEFFF3C0EEFFEC
:102A7000F4C0EEFFF5C0EEFFF6C0EEFFF7C0EEFFCC
:102A8000F8C0EEFFF9C0EEFFFAC0EEFFFBC0EEFFAC
:102A9000FCC0EEFFFDC0EEFFFEC0EEFFFFC0EEFF8C
:102AA00004C0EAFF05C0E9FF1200F2B4120016509C
:102AB0000F0AD8B41200FF0EE3CF0AF0FE0EE3CFE8
:102AC0000BF0FD0EE3CF0CF0FC0EE3CF0DF00A2A65
:102AD00016A08D8E0B2A16A28F800C2A16A48F8624
:102AE0000D2A16A68F880E6A0F6A106A116AA8EC62
:102AF00015F00A2E7EEF15F016A08D9E0B2E83EF9B
:102B000015F016A28F900C2E88EF15F016A48F9654
:102B100000000D2E8EEF15F016A68F9800000E2ED9
:102B200093EF15F0129000000F2E98EF15F012920F
:102B30000000102E9DEF15F012940000112EA2EF50
:102B400015F01296CAEC15F0133E79EF15F012004D
:102B5000D70E136E0000000000000000C0EC15F05E
:102B6000132EAAEF15F0D70E136E00000000000020
:102B70000000C0EC15F0132EB5EF15F000001200A8
:102B80000000C3EF15F0000000000000000000008E
:102B900000001200030E146E0000142ECCEF15F08E
:022BA000120021
:0E2BA200269E05D0269E1EAE02D01E6C268EEC
:102BB0001EC018F0176A2A6A296A860E196E1A6AE8
:102BC00012EF17F0266A4EEC17F066EC17F026B6F7
:102BD000F6EF16F026A205D026BAF6EF16F0FDEFB6
:102BE00016F026BA09EF17F026A005D026B8F6EFA2
:102BF00016F009EF17F026B8FDEF16F01A6A7F0EEF
:102C00001F24196EE86A1A222450195EE86A1A5ABB
:102C10001A0E276E1F6A296A2A6A176A186A2150D3
:102C20001C5E22501D5A23501E5A000E1F5A09E7DF
:102C300021501C2622501D2223501E22000E1F222E
:102C400001D0298AD8901C361D361E361F36D890E2
:102C500029362A3617361836272EE1D71E501D1072
:102C60001C10D8A4298A12EF17F0266A4EEC17F030
:102C700066EC17F026B6F6EF16F026A205D026B8B9
:102C8000F6EF16F0FDEF16F026AA05D026B0F6EF07
:102C900016F0FDEF16F026B002D026A802D009EFFC
:102CA00017F01A6A24501F24196EE86A1A227E0E41
:102CB000195EE86A1A5A296A2A6A176A186A23503A
:102CC0001E02F4CF18F0F3CF17F022501E02F3507B
:102CD0002A26F4501722000E182223501D02F3500A
:102CE0002A26F4501722000E182221501E02F350FB
:102CF0002926F4502A22000E1722182222501D02E3
:102D0000F3502926F4502A22000E172218222350AD
:102D10001C02F3502926F4502A22000E17221822F2
:102D200021501D02F4502926000E2A2217221822B3
:102D300022501C02F4502926000E2A2217221822A3
:102D400012EF17F01EC02AF01DC029F01D502202FC
:102D5000F4CF1CF0F3CF1BF01E502302F4CF1EF073
:102D6000F3CF1DF02202F3501C26F4501D22E86A16
:102D70001E2229502302F3501C26F4501D22E86A1B
:102D80001E2223AEC8EF16F029501D5E2A501E5A8F
:102D90002AAE000C22501D5E23501E5A000C266ADB
:102DA0004EEC17F026B6D9EF16F026A20AD026B4BC
:102DB00003D07F0E1E6E19D0800E1E6E16D01E6AB6
:102DC00014D026B0FCD7870E1F60F1D77E0E1F648B
:102DD000F6D7860E1F5C04E0D8901E321F2AF9D762
:102DE00026A403D01E6C1EAEEAD712007F0E1F6E03
:102DF000FF0E1E6E1D6E1C6E12007F0E26BEFF0E95
:102E00001F6E02D07F0E1F6E800E1E6E1D6A1C6A22
:102E1000F3D726AE04D0800E1F6E1E6AF7D71F6A46
:102E20001E6AF4D7185017102A102910F8E01ABE9D
:102E3000F0D718BE0CD019501A10EBE0D8902936F4
:102E40002A36173618361906D8A01A06F2D71A509D
:102E5000D4E11928D2E029AE11D07F0E291402E165
:102E60002AA00CD02A2AE86A1722182207E3D88061
:102E7000183217322A32192A1928BFE01950C9E02E
:102E80002AC01CF017C01DF018341E6E19301F6EBA
:102E90001E321F9E26BE1F8EFCEF16F01E361F36FA
:102EA00002E32684267E06E126801F6A1E6A1D6ACA
:102EB0001C6A12001F2803E0D8801E321200D8902E
:102EC0001E3202E1268212002686120023362436A4
:102ED00002E3268C267E06E12688246A236A226A7B
:102EE000216A1200242803E0D88023321200D890EF
:082EF0002332EAE1268A1200F8
:082EF8009EB802D0FDD7FCD703
:102F00001200D9CFE6FFE1CFD9FFFE0EDBCFE6FFFF
:102F100018EC14F0E5520D0EAD6EEEDFE552E7CF82
:102F2000D9FF1200D9CFE6FFE1CFD9FF0F01D95069
:102F3000FD0F206FFF0EDA20216F010EEA6A2025B7
:102F4000E96E2151EA22EF50E66E18EC14F0E552DA
:102F500020CFE9FF21CFEAFFEF50E66E18EC14F026
:102F6000E5520D0EAD6EC8DFE552E7CFD9FF120076
:102F7000D9CFE6FFE1CFD9FF0F01226B1A0E225DF8
:102F800011E2FD0EDBCFE9FFDB2AFE0EDBCFEAFF0D
:102F900001E3DB2AEF50E66E18EC14F0E5520F0166
:102FA000222BECD70D0EAD6EA7DFE552E7CFD9FF90
:102FB00012000F01DF0E206F010E216F0101DF51A2
:102FC0000F01246F256B2651241902E12751251981
:102FD00018E00101FFA502D0FF950FD026CFE6FF34
:102FE00018EC14F0E55224CFE6FF18EC14F0E5528B
:102FF0000D0EAD6E81DF0101FF9524CF26FF25CF99
:1030000027FF0F01262B000E2723273504E2265128
:10301000FF08000E275502E2266B276B1200150EE3
:10302000E66E3C0EE66E74EC1BF0E552E552320E95
:10303000E66E46EC1CF0E5521200D9CFE6FFE1CF78
:10304000D9FFFE0EDBCF23FFE552E7CFD9FF1200F9
:10305000D9CFE6FFE1CFD9FF020EE1260F0EE66ED3
:10306000FE0EDB507F0BFE0BFD0BE66EF10EE66EE7
:10307000A8EC1AF0E552E552E5520A0EE66E64EC51
:103080001CF0E5527BEC1CF007EC04F0000901E0B9
:10309000FBD7F1EC1BF078EC1CF0C4502D6E2DC06A
:1030A0002EF02D6AC35000012D102B6E2EC02CF077
:1030B0002BC0DEFF2CC0DDFFDECF2BF0DDCF2CF0F0
:1030C0002BC0F3FF2CC0F4FF00D0D9CFE1FFE552B5
:0630D000E7CFD9FF12005A
:0A30D600D8CFE4FFE0CFE4FFE46E82
:1030E000DACFE4FFE2CFDAFFE9CFE4FFEACFE4FF93
:1030F000F3CFE4FFF4CFE4FFE652D9CFE6FFE1CF10
:10310000D9FFE652F050020B05E0F050100B02E040
:10311000F09214D0F050040B05E0F050200B02E0C8
:10312000F0940CD0F250010B07E0F250080B04E0D1
:103130008150DF6EF29002D0B1EC12F0E552E55210
:10314000E7CFD9FFE552E5CFF4FFE5CFF3FFE5CFB9
:10315000EAFFE5CFE9FFE5CFDAFFE550E5CFE0FF95
:10316000E5CFD8FF100001017F0ECA6FCAC1C9F1B7
:10317000CAC1C8F1CAC1C7F1CAC1C6F1CAC1C5F145
:10318000CAC1C4F1CAC1C3F1D26FD2C1D1F1D2C197
:10319000D0F1D2C1CFF1D2C1CEF1D2C1CDF1D2C1E5
:1031A000CCF1D2C1CBF18C928D928C908D908C967B
:1031B0008D968C948D948C9A8D9A8C988D988C9EEB
:1031C00091908C9C8D9C0101E0AD22D00101FFA16A
:1031D0001ED0DF0EE66E010EE66E40EC0BF0E552FF
:1031E000E552D2C1E6FFD1C1E6FFD0C1E6FFCFC1B3
:1031F000E6FF55EC15F0E552E552E552E552BF0EFB
:10320000E66E010EE66E59EC0BF0E552E552DBD7A7
:1032100012001200D9CFE6FFE1CFD9FFE552E7CF88
:04322000D9FF1200C0
:0C3224009384F09EF188F092F08893866D
:10323000F192F186F094F08A1200D9CFE6FFE1CF47
:10324000D9FF040EE126F09817CFDFFF010E18CF4B
:10325000DBFF020E19CFDBFF030E1ACFDBFFF08876
:10326000DECF1BF0DECF1CF0DECF1DF0DDCF1EF079
:10327000DD52DD5200D0D9CFE1FFE552E7CFD9FFD3
:103280001200F0980F01176B186B196B1A6BF0880E
:10329000120088B207D00F011707000E185B195BE8
:1032A0001A5B06D00F01172B000E182319231A23BF
:1032B0001200D9CFE6FFE1CFD9FF040EE126F09A44
:1032C0001BCFDFFF010E1CCFDBFF020E1DCFDBFF8C
:1032D000030E1ECFDBFFF08ADECF1BF0DECF1CF02B
:1032E000DECF1DF0DDCF1EF0DD52DD5200D0D9CF94
:1032F000E1FFE552E7CFD9FF1200F09A0F011B6BF7
:103300001C6B1D6B1E6BF08A120088B407D00F0176
:103310001B07000E1C5B1D5B1E5B06D00F011B2BE9
:0A332000000E1C231D231E231200C3
:06332A001E0EF66E080EF7
:10333000F76E000EF86E0F010900F550126F0900CC
:10334000F550136F03E1126701D03DD00900F5502D
:103350000D6F0900F5500E6F0900F5500F6F090051
:103360000900F550E96E0900F550EA6E0900090000
:103370000900F550106F0900F550116F09000900A0
:10338000F6CF14FFF7CF15FFF8CF16FF0DCFF6FFDE
:103390000ECFF7FF0FCFF8FF0F01105302E11153CB
:1033A00007E00900F550EE6E1007F8E21107F9D7B3
:1033B00014CFF6FF15CFF7FF16CFF8FF0F01120756
:0833C000000E135BBFD71200E1
:0833C800D9CFE6FFDACFE6FFE2
:1033D000E1CFD9FFE2CFDAFFE652E652E652E652FB
:1033E000D950FB0F2B6EFF0EDA202C6E2BC0DEFFA8
:1033F000DD6EDECFE6FFDDCFE6FFFB0EDBCFE6FFC7
:10340000FC0EDBCFE6FFFD0EDBCFE6FF2DCFE6FFA8
:103410002ECFE6FF3EEC04F0F56E070EE15C02E213
:10342000E16AE552E16EF550020EF3CFDBFF030EC9
:10343000F4CFDBFF020EDBCF2BF0030EDBCF2CF043
:103440002BC0F3FF2CC0F4FFD9CFE1FFDACFE2FFAE
:0C345000E552E5CFDAFFE7CFD9FF12000C
:04345C00D9CFE6FFDF
:10346000DACFE6FFE1CFD9FFE2CFDAFFFB0EDBCF09
:103470002BF0FC0EDBCF2CF00001800E2C141AE197
:10348000FB0EDBCFE9FFFC0EDBCFEAFFEECFF3FF55
:10349000EDCFF4FFEE2A000EEF22F3CFE9FFF4CFD9
:1034A000EAFFFD0EDBCFEFFFEF502C6AF36E2CC06E
:1034B000F4FF10D0FB0EDB50FE0806E1FD0EDBCF63
:1034C000E6FF56EC1CF005D0FD0EDBCFE6FF03EC6B
:1034D00004F0E552E552E5CFDAFFE7CFD9FF12005D
:1034E0001B502002F3CF17F0F4CF18F02102F35055
:1034F0001826000EF420196E1B502202F3501926D4
:10350000000EF4201A6E1B502302F3501A261C5092
:103510002002F3501826F4501922000E1A221C50D3
:103520002102F3501926F4501A221C502202F350A3
:103530001A261D502002F3501926F4501A221D504D
:103540002102F3501A261E502002F3501A261200B0
:10355000D9CFE6FFDACFE6FFE1CFD9FFE2CFDAFF3E
:10356000C26AC16AC06AFC0EDB407F0B3C0BC26EB4
:10357000FB0EDB50C16EFC0EDB38F00B300BC112C2
:10358000FD0EDB50800BC06EFD0EDB380F0B070B02
:10359000C012FD0EDB50040DF350380BC012FC0EB0
:1035A000DBAE03D09E9C9D8CF28CC280E552E5CFB1
:0835B000DAFFE7CFD9FF12009A
:0835B800FE0EE3CFE9FFFF0E58
:1035C000E3CFEAFFF36AF46AEE5203E0F34AF42A27
:1035D000FBD71200FF0EE3CFF8FFE552FF0EE3CF5B
:1035E000F7FFE552FF0EE3CFF6FFE552E66AE66A23
:1035F000E66A0900F55209E0FD0EE32A05E1FE0E38
:10360000E32A02E1FF0EE32AF4D7FD0EE3CF1CF01C
:0E361000FE0EE3CF1DF0FF0EE3CF1EF0120002
:02361E00D9CF02
:10362000E6FFDACFE6FFE1CFD9FFE2CFDAFF3F0EC8
:10363000C716C66AFD0EDB50C612FB0EDB50C71262
:10364000FC0EDB50030A09E0010A04E0020A06E16D
:10365000C78C04D0C78CC68801D0C688FD0EDB504D
:10366000050A03E0010A04E1978E9486C79E01D003
:103670009496949A9488C68AE552E5CFDAFFE7CF0C
:04368000D9FF12005C
:0C368400D9CFE6FFDACFE6FFE1CFD9FF97
:10369000E2CFDAFF6C6A6B6AFD0EDBB06C88DBA2EE
:1036A00002D06C8C6B8CDBB46C8EDBA602D06B888A
:1036B00001D06B8ADBA802D06C8401D06C94DBACA7
:1036C00002D0A38A01D0A39ADBAE02D0A38801D096
:1036D000A398FC0EDB506F6E6C8A6B8EE552E5CFC3
:0836E000DAFFE7CFD9FF120069
:0836E800D9CFE6FFDACFE6FFBF
:1036F000E1CFD9FFE2CFDAFFAC6AAB6AFD0EDBB0F7
:10370000AC88DBA202D0AC8CAB8CDBB4AC8EDBA67D
:1037100002D0AB8801D0AB8ADBA802D0AC8401D048
:10372000AC94DBAC02D09D8A01D09D9ADBAE02D076
:103730009D8801D09D98FC0EDB50AF6EAC8AAB8E9D
:0C374000E552E5CFDAFFE7CFD9FF120019
:04374C00506F7274D4
:10375000312059202533642C2058202533642C2017
:10376000466972652025642C20546F702025640DF5
:10377000004946492032303036205573657220505A
:10378000726F636573736F7220496E697469616CDF
:0A379000697A6564202E2E2E0D00CC
:06379A001A6A196A186AA0
:1037A000176A200EE76ED8901B361C361D361E3663
:1037B0001736183619361A362050175C215018580B
:1037C0002250195823501A5809E32050175E2150EF
:1037D000185A2250195A23501A5A1B2AE72EE4D796
:0237E0001200D5
:0E37E200D9CFE6FFDACFE6FFE1CFD9FFE2CF85
:1037F000DAFFE652E652C350DF6E010EC4CFDBFFA4
:10380000DECF2BF0DDCF2CF02BC0F3FF2CC0F4FF6C
:10381000E552E552E552E5CFDAFFE7CFD9FF1200D6
:1038200097EC0AF043EC0EF00101FF910101FFA1BA
:1038300007D0AAEC0EF00101E0AD02D0B3EC18F015
:0838400009EC19F0F3D71200A6
:08384800F36AF46AFF0EE124AB
:10385000E96EFF0EE220EA6EED6607D02F0EEF64F0
:0C38600004D03A0EEF6001D0F32A1200F1
:04386C001EEE00F05C
:103870002EEE00F0F86A269CA68EA69C06EC14F0AC
:0C38800095EC19F010EC1CF0F9D71200C8
:04388C00FF0EE350F8
:10389000376E480E01D04C0EE76EE72EFED7E76A72
:0C38A000E72EFED7372EF7D700001200ED
:0438AC00FF0EE350D8
:1038B000ACBA04D0AF6AAB8EAC8A949CACA2FED7F3
:0838C000AD6EF36EF46A120014
:0838C800FF0EE350E84E120070
:0E38D000000000D000D000D0E82EFAD7120081
:0238DE00303187
:0F38E000323334353637383961626364656600D8
:0638F000C2909D9C120035
:0438F600C282120078
:0238FA000000CC
:0238FC00FEFFCD
:0238FE000000C8
:023900000000C5
:093902000000000000000000FFBD
:00000001FF
